:0400000047EF01F0D5
:100008005C82F2A80AEF00F00CEF00F015EF00F0A8
:10001800F2A211EF00F013EF00F015EF00F06FEC13
:100028000AF0F0A61AEF00F01CEF00F025EF00F040
:10003800F0A021EF00F023EF00F025EF00F06DECC9
:100048000AF0F0A82AEF00F02CEF00F035EF00F0EE
:10005800F0A231EF00F033EF00F035EF00F06BEC79
:100068000AF0F2A63AEF00F03CEF00F057EF00F08C
:10007800F2A041EF00F043EF00F057EF00F081A845
:1000880048EF00F04AEF00F057EF00F02204D8A440
:1000980050EF00F052EF00F057EF00F0000E226E24
:1000A800010E56EC0AF0F2A65CEF00F05EEF00F0ED
:1000B80079EF00F0F2A063EF00F065EF00F079EF60
:1000C80000F081B86AEF00F06CEF00F079EF00F013
:1000D8002250D8A472EF00F074EF00F079EF00F02E
:1000E800010E226E000E56EC0AF0F2A67EEF00F02A
:1000F80080EF00F09BEF00F0F2A085EF00F087EFB3
:1001080000F09BEF00F081AA8CEF00F08EEF00F07A
:100118009BEF00F02104D8A494EF00F096EF00F0D4
:100128009BEF00F0000E216E010E49EC0AF0F2A6DA
:10013800A0EF00F0A2EF00F0BDEF00F0F2A0A7EFF3
:1001480000F0A9EF00F0BDEF00F081BAAEEF00F0CB
:10015800B0EF00F0BDEF00F02150D8A4B6EF00F0EA
:10016800B8EF00F0BDEF00F0010E216E000E49EC73
:100178000AF0F2A6C2EF00F0C4EF00F0DFEF00F0E3
:10018800F2A0C9EF00F0CBEF00F0DFEF00F081AC98
:10019800D0EF00F0D2EF00F0DFEF00F02004D8A499
:1001A800D8EF00F0DAEF00F0DFEF00F0000E206E7D
:1001B800010E3CEC0AF0F2A6E4EF00F0E6EF00F0E6
:1001C80001EF01F0F2A0EBEF00F0EDEF00F001EF2E
:1001D80001F081BCF2EF00F0F4EF00F001EF01F064
:1001E8002050D8A4FAEF00F0FCEF00F001EF01F086
:1001F800010E206E000E3CEC0AF0F2A606EF01F0AC
:1002080008EF01F023EF01F0F2A00DEF01F00FEF7E
:1002180001F023EF01F081AE14EF01F016EF01F0C9
:1002280023EF01F01F04D8A41CEF01F01EEF01F02A
:1002380023EF01F0000E1F6E010E2FEC0AF0F2A65C
:1002480028EF01F02AEF01F045EF01F0F2A02FEFBF
:1002580001F031EF01F045EF01F081BE36EF01F01A
:1002680038EF01F045EF01F01F50D8A43EEF01F040
:1002780040EF01F045EF01F0010E1F6E000E2FEC6C
:0A0288000AF05C921100EFEF09F09C
:10100000003738392F343536373132333423303DD9
:051010002B2569000022
:10101600516E37EF08F0928078EF08F0928278EF01
:1010260008F0928478EF08F0928678EF08F0928ABA
:1010360078EF08F0968078EF08F0968278EF08F05F
:10104600968478EF08F0938478EF08F0938678EF2B
:1010560008F0938278EF08F0938878EF08F0938091
:1010660078EF08F078EF08F051504F6E506A505004
:10107600000AD8B441EF08F035EF08F04F50000AE7
:10108600D8B40EEF08F0010AD8B411EF08F0030A3D
:10109600D8B414EF08F0010AD8B417EF08F0070A1D
:1010A600D8B41AEF08F0010AD8B41DEF08F0030A05
:1010B600D8B420EF08F0010AD8B423EF08F00F0ADD
:1010C600D8B426EF08F0010AD8B429EF08F0030ACD
:1010D600D8B42CEF08F0010AD8B42FEF08F0070AAD
:1010E600D8B432EF08F035EF08F01200010E546E56
:1010F6004F50D8B481EF08F083EF08F08BEF08F07B
:101106005050D8A489EF08F08BEF08F08FEF08F065
:10111600000E546ED3EF08F04F50D96EDA6A050E02
:10112600D926DFA299EF08F09BEF08F0AEEF08F0A2
:10113600C350C4CF51F0526A51C052F0516A512681
:10114600000E52225050D96EDA6A51C0DEFF52C0EC
:10115600DDFFD3EF08F04F50D96EDA6A050ED926B7
:10116600DFB2B8EF08F0BAEF08F09BEF08F0C35013
:10117600C4CF51F0526A51C052F0516A5126000E46
:101186005222060E536E523452325132532EC6EF4D
:1011960008F05050D96EDA6A51C0DEFF52C0DDFF4A
:1011A60054501200010E546E5250D8A4DDEF08F0D0
:1011B600DFEF08F0E3EF08F0000E546E1EEF09F0C3
:1011C600C2905250D96EDA6A020ED926DF50536E9B
:1011D600534653465346C0505318C70B5318C06E58
:1011E6005250D96EDA6A030ED926DF50536EC050BC
:1011F6005318F80B5318C06E5250D96EDA6A040EA3
:10120600D926DF50536E53465346C2505318C30B6C
:101216005318C26E5250D96EDA6A040ED926DF50C0
:101226000BEC08F052C04FF0A9EC09F052C04FF099
:1012360052EC09F0C28054501200000E596E5650FE
:10124600D8B428EF09F02AEF09F032EF09F0585028
:10125600D8A430EF09F032EF09F036EF09F0000EAE
:101266005A6E50EF09F056C052F057C053F0D3EC07
:1012760009F05A6E56C04FF01EEC0AF05A12C2B26E
:1012860047EF09F049EF09F042EF09F056C04FF079
:1012960058C050F079EC08F05A6E5A5012004F5070
:1012A600D8A458EF09F05AEF09F05CEF09F07EEF89
:1012B60009F04F50D96EDA6A050ED926DFA066EF1F
:1012C60009F068EF09F06CEF09F0C18AC1887EEF7A
:1012D60009F04F50D96EDA6A050ED926DFB076EFDF
:1012E60009F078EF09F07CEF09F0C19AC1987EEF1A
:1012F60009F0C19AC198120063EC0AF0230E566EEB
:10130600000E576E4C0E586E20EC09F05B6E230EE5
:10131600566E010E576E4A0E586E20EC09F05B6E43
:10132600230E566E020E576E480E586E20EC09F0CC
:101336005B6E230E566E030E576E460E586E20ECED
:1013460009F05B6E81EF09F047EF01F04F50D8A42A
:10135600AFEF09F0B1EF09F0B3EF09F0D2EF09F002
:101366004F50D96EDA6A050ED926DFA2BDEF09F015
:10137600BFEF09F0C2EF09F0C08ED2EF09F04F506F
:10138600D96EDA6A050ED926DFB2CCEF09F0CEEFB8
:1013960009F0D1EF09F0C09ED2EF09F0C08E12001D
:1013A600010E556E5250D8A4DBEF09F0DDEF09F0BF
:1013B600E1EF09F0000E556EEDEF09F053C054F061
:1013C60054465446C2505418C30B5418C26E535058
:1013D6000BEC08F055501200140EF66E140EF76E54
:1013E600000EF86E00EE01F010EE28F00900F5CFC1
:1013F600EEFFE550E150FAE100EE29F0250EEE6A27
:10140600E806FDE15C905C9200017FEF09F0800F39
:10141600810F820F830F840F890F8A0F8B0F8C0F1A
:101426008D0F920F930F940F950F960F01010101E7
:10143600000005050002010E506E4F50D8A426EF9D
:101446000AF028EF0AF02CEF0AF0000E506E2DEF8E
:101456000AF0C282505012004E6EF2904E50D8A43E
:1014660037EF0AF039EF0AF03BEF0AF03BEF0AF0EC
:1014760012004E6EF2904E50D8A444EF0AF046EF9A
:101486000AF048EF0AF048EF0AF012004E6EF290AA
:101496004E50D8A451EF0AF053EF0AF055EF0AF078
:1014A60055EF0AF012004E6EF2904E50D8A45EEF41
:1014B6000AF060EF0AF062EF0AF062EF0AF012003B
:1014C600230E526ED5EC08F05B6E71EC0AF012003A
:0E14D600F0921200F0901200F292120012003A
:020000040030CA
:0E000000FF071F1FFF8985FF0FC00FE00F4095
:00000001FF
