:040000005FEF01F0BD
:100008004D82FACF46F0FBCF47F0D9CF48F0DACF90
:1000180049F0F3CF4AF0F4CF4BF0F2A816EF00F016
:1000280018EF00F021EF00F0F2A21DEF00F01FEF33
:1000380000F021EF00F0B8EC0CF0F0A626EF00F08D
:1000480028EF00F031EF00F0F0A02DEF00F02FEFD7
:1000580000F031EF00F0B6EC0CF0F0A836EF00F04D
:1000680038EF00F041EF00F0F0A23DEF00F03FEF75
:1000780000F041EF00F0B4EC0CF0F2A646EF00F00F
:1000880048EF00F063EF00F0F2A04DEF00F04FEF03
:1000980000F063EF00F081A854EF00F056EF00F095
:1000A80063EF00F03504D8A45CEF00F05EEF00F0D9
:1000B80063EF00F0000E356E010EE6EC0AF0F2A6D2
:1000C80068EF00F06AEF00F085EF00F0F2A06FEF44
:1000D80000F071EF00F085EF00F081B876EF00F0E6
:1000E80078EF00F085EF00F03550D8A47EEF00F0EF
:1000F80080EF00F085EF00F0010E356E000EE6ECA3
:100108000AF0F2A68AEF00F08CEF00F0A7EF00F0FB
:10011800F2A091EF00F093EF00F0A7EF00F081AAB2
:1001280098EF00F09AEF00F0A7EF00F03404D8A49D
:10013800A0EF00F0A2EF00F0A7EF00F0000E346E81
:10014800010EA7EC0AF0F2A6ACEF00F0AEEF00F05B
:10015800C9EF00F0F2A0B3EF00F0B5EF00F0C9EF7F
:1001680000F081BABAEF00F0BCEF00F0C9EF00F080
:100178003450D8A4C2EF00F0C4EF00F0C9EF00F08B
:10018800010E346E000EA7EC0AF0F2A6CEEF00F0D6
:10019800D0EF00F0EBEF00F0F2A0D5EF00F0D7EFD2
:1001A80000F0EBEF00F081ACDCEF00F0DEEF00F0E8
:1001B800EBEF00F03304D8A4E4EF00F0E6EF00F032
:1001C800EBEF00F0000E336E010E68EC0AF0F2A6B9
:1001D800F0EF00F0F2EF00F00DEF01F0F2A0F7EF12
:1001E80000F0F9EF00F00DEF01F081BCFEEF00F038
:1001F80000EF01F00DEF01F03350D8A406EF01F045
:1002080008EF01F00DEF01F0010E336E000E68ECFF
:100218000AF0F2A612EF01F014EF01F02FEF01F04F
:10022800F2A019EF01F01BEF01F02FEF01F081AE02
:1002380020EF01F022EF01F02FEF01F03204D8A4F3
:1002480028EF01F02AEF01F02FEF01F0000E326ED7
:10025800010E29EC0AF0F2A634EF01F036EF01F0B6
:1002680051EF01F0F2A03BEF01F03DEF01F051EF4B
:1002780001F081BE42EF01F044EF01F051EF01F0CF
:100288003250D8A44AEF01F04CEF01F051EF01F0E1
:10029800010E326E000E29EC0AF04BC0F4FF4AC082
:1002A800F3FF49C0DAFF48C0D9FF47C0FBFF46C08B
:0A02B800FAFF4D9211003AEF0CF02E
:10100000003738392F343536373132333423303DD9
:051010002B2569000022
:10101600010E0001886F8251D8B414EF08F016EF64
:1010260008F026EF08F08251D96EDA6ADF30E8322E
:10103600E832070B836F070E836524EF08F026EF6F
:1010460008F07FEF08F0000E886F95EF08F08251E8
:10105600D96EDA6ADF30E832E832070B836F010EA9
:10106600846F832B39EF08F0D8908437832F37EFBE
:1010760008F000018451FF0A856F8251D96EDA6A41
:10108600DF50070B020DF350280FD96EDA6ADECF58
:1010960086F0DDCF87F086C0D9FF87C0DAFF85519D
:1010A600DF1695EF08F08251D96EDA6ADF30E83242
:1010B600E832070B836F010E846F832B65EF08F010
:1010C600D8908437832F63EF08F000018251D96EE0
:1010D600DA6ADF50070B020DF350280FD96EDA6A71
:1010E600DECF85F0DDCF86F085C0D9FF86C0DAFF7A
:1010F6008451DF1295EF08F08251D96EDA6ADFBCAF
:1011060087EF08F08AEF08F0010E8BEF08F0000E6B
:10111600000AD8B42AEF08F0010AD8B456EF08F04E
:1011260026EF08F088511200010E0001896F8251E6
:10113600D8B4A0EF08F0A2EF08F0B2EF08F08251A1
:10114600D96EDA6ADF30E832E832070B846F070EB1
:101156008465B0EF08F0B2EF08F00BEF09F0000E6F
:10116600896F20EF09F08251D96EDA6ADF30E832F2
:10117600E832070B846F010E856F842BC5EF08F0EC
:10118600D8908537842FC3EF08F000018551FF0AF8
:10119600866F8251D96EDA6ADF50070B020DF35063
:1011A6001E0FD96EDA6ADECF87F0DDCF88F087C0F2
:1011B600D9FF88C0DAFF8651DF1620EF09F0825189
:1011C600D96EDA6ADF30E832E832070B846F010E37
:1011D600856F842BF1EF08F0D8908537842FEFEFD9
:1011E60008F000018251D96EDA6ADF50070B020D52
:1011F600F3501E0FD96EDA6ADECF86F0DDCF87F0A8
:1012060086C0D9FF87C0DAFF8551DF1220EF09F0CB
:101216008351846F856B8551000AD8B415EF09F0A8
:10122600B2EF08F08451000AD8B4B6EF08F0010A0C
:10123600D8B4E2EF08F0B2EF08F0895112000001CD
:101246008951D8A429EF09F02BEF09F02FEF09F007
:10125600000E8A6FA4EF09F0F296F290F28EF28CED
:101266008951040F826F0BEC08F000018A6F88EF3A
:1012760009F08951D96EDA6A020ED926DECF0DF051
:10128600DDCF0EF08951D96EDA6ADECF0FF0DDCFF1
:1012960010F0A3EF09F08951D96EDA6A020ED92649
:1012A600DECF09F0DDCF0AF08951D96EDA6ADECFDA
:1012B6000BF0DDCF0CF0A3EF09F08951D96EDA6A95
:1012C600020ED926DECF05F0DDCF06F08951D96EA4
:1012D600DA6ADECF07F0DDCF08F0A3EF09F0895117
:1012E600D96EDA6A020ED926DECF01F0DDCF02F022
:1012F6008951D96EDA6ADECF03F0DDCF04F0A3EFB1
:1013060009F0000E8A6FA3EF09F08951D96EDA6AE7
:10131600040ED926DF30E832E832070B040AD8B4C7
:101326003CEF09F0010AD8B44EEF09F0030AD8B42D
:1013360060EF09F0010AD8B472EF09F084EF09F002
:10134600F2868A5112003A50D8B4ACEF09F0AEEFEB
:1013560009F0BEEF09F03A50D96EDA6ADF30E832AA
:10136600E832070B3C6E070E3C64BCEF09F0BEEF9B
:1013760009F013EF0AF028EF0AF03A50D96EDA6A4C
:10138600DF30E832E832070B3C6E010E3D6E3C2A38
:10139600CFEF09F0D8903D363C2ECDEF09F03D5009
:1013A600FF0A3E6E3A50D96EDA6ADF50070B020D1D
:1013B600F3501E0FD96EDA6ADECF3FF0DDCF40F074
:1013C6003FC0D9FF40C0DAFF3E50DF1628EF0AF0D3
:1013D6003A50D96EDA6ADF30E832E832070B3C6EF3
:1013E600010E3D6E3C2AFAEF09F0D8903D363C2EB0
:1013F600F8EF09F03A50D96EDA6ADF50070B020DA2
:10140600F3501E0FD96EDA6ADECF3EF0DDCF3FF025
:101416003EC0D9FF3FC0DAFF3D50DF1228EF0AF089
:101426003B503C6E3D6A3D50000AD8B41DEF0AF0B1
:10143600BEEF09F03C50000AD8B4C0EF09F0010A2B
:10144600D8B4EBEF09F0BEEF09F01200456EF2904A
:101456004550D8A431EF0AF033EF0AF04AEF0AF00C
:1014660001500210D8B43AEF0AF03CEF0AF067EFE9
:101476000AF002D848EF0AF00500FA6E0150FD6E38
:101486000250FE6EFF6AFA50120067EF0AF045043A
:10149600D8A450EF0AF052EF0AF067EF0AF00350B3
:1014A6000410D8B459EF0AF05BEF0AF067EF0AF0C0
:1014B60002D867EF0AF00500FA6E0350FD6E04507D
:1014C600FE6EFF6AFA5012001200456EF290455009
:1014D600D8A470EF0AF072EF0AF089EF0AF005500F
:1014E6000610D8B479EF0AF07BEF0AF0A6EF0AF0FF
:1014F60002D887EF0AF00500FA6E0550FD6E065019
:10150600FE6EFF6AFA501200A6EF0AF04504D8A450
:101516008FEF0AF091EF0AF0A6EF0AF007500810D5
:10152600D8B498EF0AF09AEF0AF0A6EF0AF002D8BC
:10153600A6EF0AF00500FA6E0750FD6E0850FE6E23
:10154600FF6AFA5012001200456EF2904550D8A478
:10155600AFEF0AF0B1EF0AF0C8EF0AF009500A102F
:10156600D8B4B8EF0AF0BAEF0AF0E5EF0AF002D8FD
:10157600C6EF0AF00500FA6E0950FD6E0A50FE6EBF
:10158600FF6AFA501200E5EF0AF04504D8A4CEEF40
:101596000AF0D0EF0AF0E5EF0AF00B500C10D8B4C1
:1015A600D7EF0AF0D9EF0AF0E5EF0AF002D8E5EF37
:1015B6000AF00500FA6E0B50FD6E0C50FE6EFF6AC7
:1015C600FA5012001200456EF2904550D8A4EEEF84
:1015D6000AF0F0EF0AF007EF0BF00D500E10D8B43A
:1015E600F7EF0AF0F9EF0AF024EF0BF002D805EF57
:1015F6000BF00500FA6E0D50FD6E0E50FE6EFF6A82
:10160600FA50120024EF0BF04504D8A40DEF0BF0AE
:101616000FEF0BF024EF0BF00F501010D8B416EFAD
:101626000BF018EF0BF024EF0BF002D824EF0BF0C1
:101636000500FA6E0F50FD6E1050FE6EFF6AFA50EE
:1016460012001200010E00018F6F8D51D8A42EEFEB
:101656000BF030EF0BF034EF0BF0000E8F6F5DEFF9
:101666000BF01DC090F08D51D96EDA6ADF500F0B6A
:101676008E6F90518E19F80B8E19906F8D51D96E11
:10168600DA6ADF38070B8E6F8E478E478E4790518A
:101696008E19C70B8E19906F909D8D51D96EDA6A8F
:1016A600DFAE02D0908F02D00001909F900E8A6F1D
:1016B60008EC0CF000018F511200010E436E4150F0
:1016C600D8A468EF0BF06AEF0BF06EEF0BF0000E8C
:1016D600436E98EF0BF01BC044F04150D96EDA6AA6
:1016E600DF500F0B426E44504218F80B4218446EFE
:1016F6004150D96EDA6ADF38070B426E42464246DF
:10170600424644504218C70B4218446E449C41500E
:10171600D96EDA6ADFAE02D0448E01D0449E440E02
:101726003A6E000E3B6EA6EC09F043501200010E15
:10173600436E4150D8A4A2EF0BF0A4EF0BF0A8EF34
:101746000BF0000E436ED2EF0BF01CC044F041507C
:10175600D96EDA6ADF500F0B426E44504218F80B0E
:101766004218446E4150D96EDA6ADF38070B426E72
:1017760042464246424644504218C70B4218446EFF
:10178600449C4150D96EDA6ADFAE02D0448E01D055
:10179600449E440E3A6E010E3B6EA6EC09F0435091
:1017A6001200390E00018D6F25EC0BF04C6E380ED1
:1017B60000018D6F25EC0BF04C6E370E00018D6F1E
:1017C60025EC0BF04C6E360E00018D6F25EC0BF000
:1017D6004C6E7C0E0001896F22EC09F04C6E760E81
:1017E6000001896F22EC09F04C6E700E0001896FC2
:1017F60022EC09F04C6E6A0E0001896F22EC09F0AA
:101806004C6E04EF0CF05FEF01F000018A51D8B482
:101816000FEF0CF011EF0CF021EF0CF08A51D96E9E
:10182600DA6ADF30E832E832070B8B6F070E8B651A
:101836001FEF0CF021EF0CF025EF0CF0000E8C6F73
:1018460038EF0CF08AC082F00BEC08F000018C6FC8
:101856008AC082F08A51D96EDA6A000EDFBE010EA6
:10186600836F97EC08F000018C6F8C511200CA0E42
:10187600F66E180EF76E000EF86E00EE60F010EEC3
:1018860022F00900F5CFEEFFE550E150FAE1EC0E4B
:10189600F66E180EF76E000EF86E00EE1EF010EEE5
:1018A6001CF00900F5CFEEFFE550E150FAE100EE3D
:1018B60001F01D0EEE6AE806FDE14D904D92000125
:1018C600D4EF0BF0800F810F820F830F840F5C190A
:1018D6002C1979013819081971014419141969016B
:1018E600501920196101890F8A0F8B0F8C0F8D0FEC
:1018F600920F930F940F950F960F0101010132225B
:101906001202360E416E9AEC0BF04C6E1200380E37
:10191600416E60EC0BF04C6E1200380E416E9AEC84
:101926000BF04C6E1200360E416E60EC0BF04C6EF6
:101936001200370E416E9AEC0BF04C6E1200390E07
:10194600416E60EC0BF04C6E1200390E416E9AEC53
:101956000BF04C6E1200370E416E60EC0BF04C6EC5
:0E1966001200F0921200F0901200F2921200A5
:020000040030CA
:0E000000FF071F1FFF8985FF0FC00FE00F4095
:00000001FF
