:0400000097EF01F085
:100008005F82F2A80AEF00F00CEF00F015EF00F0A5
:10001800F2A211EF00F013EF00F015EF00F08FECF3
:1000280008F0F0A61AEF00F01CEF00F025EF00F042
:10003800F0A021EF00F023EF00F025EF00F08DECA9
:1000480008F0F0A82AEF00F02CEF00F035EF00F0F0
:10005800F0A231EF00F033EF00F035EF00F08BEC59
:1000680008F0F2A63AEF00F03CEF00F057EF00F08E
:10007800F2A041EF00F043EF00F057EF00F081A845
:1000880048EF00F04AEF00F057EF00F05D04D8A405
:1000980050EF00F052EF00F057EF00F0000E5D6EE9
:1000A800010E64EC08F0F2A65CEF00F05EEF00F0E1
:1000B80079EF00F0F2A063EF00F065EF00F079EF60
:1000C80000F081B86AEF00F06CEF00F079EF00F013
:1000D8005D50D8A472EF00F074EF00F079EF00F0F3
:1000E800010E5D6E000E64EC08F0F2A67EEF00F0E3
:1000F80080EF00F09BEF00F0F2A085EF00F087EFB3
:1001080000F09BEF00F081AA8CEF00F08EEF00F07A
:100118009BEF00F05C04D8A494EF00F096EF00F099
:100128009BEF00F0000E5C6E010E57EC08F0F2A693
:10013800A0EF00F0A2EF00F0BDEF00F0F2A0A7EFF3
:1001480000F0A9EF00F0BDEF00F081BAAEEF00F0CB
:10015800B0EF00F0BDEF00F05C50D8A4B6EF00F0AF
:10016800B8EF00F0BDEF00F0010E5C6E000E57EC2A
:1001780008F0F2A6C2EF00F0C4EF00F0DFEF00F0E5
:10018800F2A0C9EF00F0CBEF00F0DFEF00F081AC98
:10019800D0EF00F0D2EF00F0DFEF00F05B04D8A45E
:1001A800D8EF00F0DAEF00F0DFEF00F0000E5B6E42
:1001B800010E4AEC08F0F2A6E4EF00F0E6EF00F0DA
:1001C80001EF01F0F2A0EBEF00F0EDEF00F001EF2E
:1001D80001F081BCF2EF00F0F4EF00F001EF01F064
:1001E8005B50D8A4FAEF00F0FCEF00F001EF01F04B
:1001F800010E5B6E000E4AEC08F0F2A606EF01F065
:1002080008EF01F023EF01F0F2A00DEF01F00FEF7E
:1002180001F023EF01F081AE14EF01F016EF01F0C9
:1002280023EF01F05A04D8A41CEF01F01EEF01F0EF
:1002380023EF01F0000E5A6E010E3DEC08F0F2A615
:1002480028EF01F02AEF01F045EF01F0F2A02FEFBF
:1002580001F031EF01F045EF01F081BE36EF01F01A
:1002680038EF01F045EF01F05A50D8A43EEF01F005
:1002780040EF01F045EF01F0010E5A6E000E3DEC23
:1002880008F09DAC4AEF01F04CEF01F055EF01F09A
:100298009EAC51EF01F053EF01F055EF01F091ECF6
:1002A80008F0F2AA5AEF01F05CEF01F065EF01F0F7
:1002B800F2A461EF01F063EF01F065EF01F07DEC6E
:1002C80008F09DA06AEF01F06CEF01F075EF01F006
:1002D8009EA071EF01F073EF01F075EF01F077EC7C
:1002E80008F09DA27AEF01F07CEF01F085EF01F0B4
:1002F8009EA281EF01F083EF01F085EF01F087EC1A
:1003080008F0A0A28AEF01F08CEF01F095EF01F060
:10031800A1A291EF01F093EF01F095EF01F071ECDC
:0A03280008F05F9211000BEF08F0DF
:10100000003738392F343536373132333423303DD9
:051010002B2569000022
:10101600580EF66E100EF76E000EF86E00EE3CF0EF
:1010260010EE22F00900F5CFEEFFE550E150FAE1AF
:1010360000EE60F00B0EEE6AE806FDE100EE01F050
:101046003B0EEE6AE806FDE15F905F92000183EFDA
:1010560008F0800F810F820F830F840F890F8A0F8C
:101066008B0F8C0F8D0F920F930F940F950F960F7A
:10107600010101015E6EF2905E50D8A445EF08F0C2
:1010860047EF08F049EF08F049EF08F012005E6EEE
:10109600F2905E50D8A452EF08F054EF08F056EFE5
:1010A60008F056EF08F012005E6EF2905E50D8A47B
:1010B6005FEF08F061EF08F063EF08F063EF08F008
:1010C60012005E6EF2905E50D8A46CEF08F06EEFE0
:1010D60008F070EF08F070EF08F01200A1920E50C1
:1010E600B36E0DC0B2FF12009E901450CF6E13C0A7
:1010F600CEFF1200F2941850D76E17C0D6FF12001A
:1011060083EF08F097EF01F09E9233C0CCFF1200F8
:10111600F0921200F0901200F29212009E9C1200C1
:020000040030CA
:0E000000FF071F1FFF8985FF0FC00FE00F4095
:00000001FF
