:0400000097EF01F085
:100008005C82F2A80AEF00F00CEF00F015EF00F0A8
:10001800F2A211EF00F013EF00F015EF00F069EC19
:1000280009F0F0A61AEF00F01CEF00F025EF00F041
:10003800F0A021EF00F023EF00F025EF00F067ECCF
:1000480009F0F0A82AEF00F02CEF00F035EF00F0EF
:10005800F0A231EF00F033EF00F035EF00F065EC7F
:1000680009F0F2A63AEF00F03CEF00F057EF00F08D
:10007800F2A041EF00F043EF00F057EF00F081A845
:1000880048EF00F04AEF00F057EF00F05304D8A40F
:1000980050EF00F052EF00F057EF00F0000E536EF3
:1000A800010E31EC09F0F2A65CEF00F05EEF00F013
:1000B80079EF00F0F2A063EF00F065EF00F079EF60
:1000C80000F081B86AEF00F06CEF00F079EF00F013
:1000D8005350D8A472EF00F074EF00F079EF00F0FD
:1000E800010E536E000E31EC09F0F2A67EEF00F01F
:1000F80080EF00F09BEF00F0F2A085EF00F087EFB3
:1001080000F09BEF00F081AA8CEF00F08EEF00F07A
:100118009BEF00F05204D8A494EF00F096EF00F0A3
:100128009BEF00F0000E526E010E24EC09F0F2A6CF
:10013800A0EF00F0A2EF00F0BDEF00F0F2A0A7EFF3
:1001480000F0A9EF00F0BDEF00F081BAAEEF00F0CB
:10015800B0EF00F0BDEF00F05250D8A4B6EF00F0B9
:10016800B8EF00F0BDEF00F0010E526E000E24EC67
:1001780009F0F2A6C2EF00F0C4EF00F0DFEF00F0E4
:10018800F2A0C9EF00F0CBEF00F0DFEF00F081AC98
:10019800D0EF00F0D2EF00F0DFEF00F05104D8A468
:1001A800D8EF00F0DAEF00F0DFEF00F0000E516E4C
:1001B800010E17EC09F0F2A6E4EF00F0E6EF00F00C
:1001C80001EF01F0F2A0EBEF00F0EDEF00F001EF2E
:1001D80001F081BCF2EF00F0F4EF00F001EF01F064
:1001E8005150D8A4FAEF00F0FCEF00F001EF01F055
:1001F800010E516E000E17EC09F0F2A606EF01F0A1
:1002080008EF01F023EF01F0F2A00DEF01F00FEF7E
:1002180001F023EF01F081AE14EF01F016EF01F0C9
:1002280023EF01F05004D8A41CEF01F01EEF01F0F9
:1002380023EF01F0000E506E010E0AEC09F0F2A651
:1002480028EF01F02AEF01F045EF01F0F2A02FEFBF
:1002580001F031EF01F045EF01F081BE36EF01F01A
:1002680038EF01F045EF01F05050D8A43EEF01F00F
:1002780040EF01F045EF01F0010E506E000E0AEC60
:1002880009F09DAC4AEF01F04CEF01F055EF01F099
:100298009EAC51EF01F053EF01F055EF01F06BEC1C
:1002A80009F0F2AA5AEF01F05CEF01F065EF01F0F6
:1002B800F2A461EF01F063EF01F065EF01F056EC95
:1002C80009F09DA06AEF01F06CEF01F075EF01F005
:1002D8009EA071EF01F073EF01F075EF01F050ECA3
:1002E80009F09DA27AEF01F07CEF01F085EF01F0B3
:1002F8009EA281EF01F083EF01F085EF01F061EC40
:1003080009F0A0A28AEF01F08CEF01F095EF01F05F
:10031800A1A291EF01F093EF01F095EF01F04AEC03
:0A03280009F05C9211008EEF08F05E
:10100000003738392F343536373132333423303DD9
:051010002B2569000022
:101016005650D8A411EF08F013EF08F015EF08F0BA
:1010260052EF08F0B1905650D96EDA6A050ED926FD
:10103600DF50030B576E573AB1505718CF0B57185E
:10104600B16E56C055F053EC08F05650D96EDA6AB8
:10105600030ED926DECF57F0DDCF58F058C057F033
:10106600586A5750B36E5650D96EDA6A030ED926AF
:10107600DF50B26E5650D96EDA6A030ED926DECF2D
:1010860005F0DDCF06F0A082A1925650D96EDA6A3D
:10109600DECF07F0DDCF08F0F28EF28CB1801200C1
:1010A6005550D96EDA6A050ED926DFB45DEF08F021
:1010B6005FEF08F062EF08F0B1928DEF08F055503F
:1010C600D96EDA6A050ED926DFA46CEF08F06EEF4A
:1010D60008F08DEF08F0B1825550D96EDA6A050E28
:1010E600D926DFA679EF08F07BEF08F07EEF08F04F
:1010F600B1848DEF08F05550D96EDA6A050ED926FF
:10110600DFB688EF08F08AEF08F08DEF08F0B194AB
:101116008DEF08F01200B80EF66E120EF76E000E86
:10112600F86E00EE71F010EE0AF00900F5CFEEFF52
:10113600E550E150FAE17C0EF66E120EF76E000EE7
:10114600F86E00EE3CF010EE18F00900F5CFEEFF59
:10115600E550E150FAE100EE60F0110EEE6AE806A5
:10116600FDE100EE01F03B0EEE6AE806FDE15C9063
:101176005C920001EEEF08F0010E596E000E5B6EF8
:101186005550D8A4C9EF08F0CBEF08F0D7EF08F018
:101196005650D8A4D1EF08F0D3EF08F0D7EF08F0F7
:1011A600000E596EECEF08F0B2CF5AF0B3CF5BF0F9
:1011B6005A505BC057F0586A57C058F0576A5726BE
:1011C600000E58225650D96EDA6A57C0DEFF58C054
:1011D600DDFF59501200000E346E000E356E398454
:1011E600000E386E000E376EFC0E39163998399699
:1011F600340E566E0BEC08F0340E556E3A0E566EE3
:10120600BFEC08F02C6EFFEF08F097EF01F0546E7C
:10121600F2905450D8A412EF09F014EF09F016EF2B
:1012260009F016EF09F01200546EF2905450D8A44B
:101236001FEF09F021EF09F023EF09F023EF09F082
:101246001200546EF2905450D8A42CEF09F02EEFF1
:1012560009F030EF09F030EF09F01200546EF29009
:101266005450D8A439EF09F03BEF09F03DEF09F0EF
:101276003DEF09F01200890F8A0F8B0F8C0F8D0F2F
:10128600920F930F940F950F960F01010101A192F2
:101296000650B36E05C0B2FF12009E900C50CF6E82
:1012A6000BC0CEFF1200F2941050D76E0FC0D6FFBF
:1012B6001200800F810F820F830F840F9E922BC026
:1012C600CCFF1200F0921200F0901200F29212007F
:0412D6009E9C1200C8
:020000040030CA
:0E000000FF071F1FFF8985FF0FC00FE00F4095
:00000001FF
