:040000007FEF01F09D
:100008005082FACF48F0FBCF49F0D9CF4AF0DACF87
:100018004BF0F3CF4CF0F4CF4DF0F2A816EF00F010
:1000280018EF00F021EF00F0F2A21DEF00F01FEF33
:1000380000F021EF00F0C3EC0BF0F0A626EF00F083
:1000480028EF00F031EF00F0F0A02DEF00F02FEFD7
:1000580000F031EF00F0C1EC0BF0F0A836EF00F043
:1000680038EF00F041EF00F0F0A23DEF00F03FEF75
:1000780000F041EF00F0BFEC0BF0F2A646EF00F005
:1000880048EF00F063EF00F0F2A04DEF00F04FEF03
:1000980000F063EF00F081A854EF00F056EF00F095
:1000A80063EF00F03D04D8A45CEF00F05EEF00F0D1
:1000B80063EF00F0000E3D6E010E93EC0BF0F2A61C
:1000C80068EF00F06AEF00F085EF00F0F2A06FEF44
:1000D80000F071EF00F085EF00F081B876EF00F0E6
:1000E80078EF00F085EF00F03D50D8A47EEF00F0E7
:1000F80080EF00F085EF00F0010E3D6E000E93ECEE
:100108000BF0F2A68AEF00F08CEF00F0A7EF00F0FA
:10011800F2A091EF00F093EF00F0A7EF00F081AAB2
:1001280098EF00F09AEF00F0A7EF00F03C04D8A495
:10013800A0EF00F0A2EF00F0A7EF00F0000E3C6E79
:10014800010E86EC0BF0F2A6ACEF00F0AEEF00F07B
:10015800C9EF00F0F2A0B3EF00F0B5EF00F0C9EF7F
:1001680000F081BABAEF00F0BCEF00F0C9EF00F080
:100178003C50D8A4C2EF00F0C4EF00F0C9EF00F083
:10018800010E3C6E000E86EC0BF0F2A6CEEF00F0EE
:10019800D0EF00F0EBEF00F0F2A0D5EF00F0D7EFD2
:1001A80000F0EBEF00F081ACDCEF00F0DEEF00F0E8
:1001B800EBEF00F03B04D8A4E4EF00F0E6EF00F02A
:1001C800EBEF00F0000E3B6E010E79EC0BF0F2A69F
:1001D800F0EF00F0F2EF00F00DEF01F0F2A0F7EF12
:1001E80000F0F9EF00F00DEF01F081BCFEEF00F038
:1001F80000EF01F00DEF01F03B50D8A406EF01F03D
:1002080008EF01F00DEF01F0010E3B6E000E79ECE6
:100218000BF0F2A612EF01F014EF01F02FEF01F04E
:10022800F2A019EF01F01BEF01F02FEF01F081AE02
:1002380020EF01F022EF01F02FEF01F03A04D8A4EB
:1002480028EF01F02AEF01F02FEF01F0000E3A6ECF
:10025800010E6CEC0BF0F2A634EF01F036EF01F072
:1002680051EF01F0F2A03BEF01F03DEF01F051EF4B
:1002780001F081BE42EF01F044EF01F051EF01F0CF
:100288003A50D8A44AEF01F04CEF01F051EF01F0D9
:10029800010E3A6E000E6CEC0BF09DAC56EF01F0BF
:1002A80058EF01F061EF01F09EAC5DEF01F05FEFF8
:1002B80001F061EF01F0C5EC0BF0F2AA66EF01F076
:1002C80068EF01F071EF01F0F2A46DEF01F06FEF4C
:1002D80001F071EF01F034EC0BF04DC0F4FF4CC0AD
:1002E800F3FF4BC0DAFF4AC0D9FF49C0FBFF48C043
:0A02F800FAFF509211008CEF0AF09B
:10100000003738392F343536373132333423303DD9
:051010002B2569000022
:10101600010E0001926F4E50D8B414EF08F016EF8F
:1010260008F026EF08F04E50D96EDA6ADF30E83263
:10103600E832070B8D6F070E8D6524EF08F026EF5B
:1010460008F07FEF08F0000E926F95EF08F04E5013
:10105600D96EDA6ADF30E832E832070B8D6F010E9F
:101066008E6F8D2B39EF08F0D8908E378D2F37EF96
:1010760008F000018E51FF0A8F6F4E50D96EDA6A62
:10108600DF50070B020DF350300FD96EDA6ADECF50
:1010960090F0DDCF91F090C0D9FF91C0DAFF8F516B
:1010A600DF1695EF08F04E50D96EDA6ADF30E83277
:1010B600E832070B8D6F010E8E6F8D2B65EF08F0F2
:1010C600D8908E378D2F63EF08F04E50D96EDA6ABE
:1010D600DF50070B020DF350300FD96EDA6ADECF00
:1010E6008FF0DDCF90F08FC0D9FF90C0DAFF0001FE
:1010F6008E51DF1295EF08F04E50D96EDA6ADFBCDA
:1011060087EF08F08AEF08F0010E8BEF08F0000E6B
:10111600000AD8B42AEF08F0010AD8B456EF08F04E
:1011260026EF08F092511200010E4E6E00018D510D
:10113600D8B4A0EF08F0A2EF08F0B2EF08F08D5196
:10114600D96EDA6ADF30E832E832070B8F6F070EA6
:101156008F65B0EF08F0B2EF08F00BEF09F0000E64
:101166004E6E20EF09F08D51D96EDA6ADF30E83223
:10117600E832070B8F6F010E906F8F2BC5EF08F0CB
:10118600D89090378F2FC3EF08F000019051FF0AD7
:10119600916F8D51D96EDA6ADF50070B020DF3504D
:1011A600260FD96EDA6ADECF92F0DDCF93F092C0C9
:1011B600D9FF93C0DAFF9151DF1620EF09F08D5168
:1011C600D96EDA6ADF30E832E832070B8F6F010E2C
:1011D600906F8F2BF1EF08F0D89090378F2FEFEFAD
:1011E60008F000018D51D96EDA6ADF50070B020D47
:1011F600F350260FD96EDA6ADECF91F0DDCF92F08A
:1012060091C0D9FF92C0DAFF9051DF1220EF09F0AA
:101216008E518F6F906B9051000AD8B415EF09F07C
:10122600B2EF08F08F51000AD8B4B6EF08F0010A01
:10123600D8B4E2EF08F0B2EF08F04E501200010EFB
:101246000001916F8E51D8A42BEF09F02DEF09F014
:1012560031EF09F0000E916F69EF09F0D59E8EC04F
:101266004EF0EDEC0AF08EC04EF0E7EC09F08EC0C1
:101276004EF017EC0BF000018E51D96EDA6A040EAF
:10128600D926DECF8FF0DDCF90F090C08FF0906B37
:101296008F51D76E8E51D96EDA6A040ED926DF5079
:1012A600D66E8E51D96EDA6A040ED926DECF01F0DB
:1012B600DDCF02F0F28AF2948E51D96EDA6ADECF71
:1012C60003F0DDCF04F0F28EF28CD58E9151120030
:1012D6003F50D8B471EF09F073EF09F083EF09F0CE
:1012E6003F50D96EDA6ADF30E832E832070B406EDB
:1012F600070E406481EF09F083EF09F085EF09F0EE
:10130600ABEF09F03F50D96EDA6ADF30E832E832E7
:10131600070B406E010E416E402A94EF09F0D890FB
:101326004136402E92EF09F03F50D96EDA6ADF500F
:10133600070B020DF350260FD96EDA6ADECF42F0A4
:10134600DDCF43F042C0D9FF43C0DAFF4150DF1A78
:101356001200010E0001996F9751D8A4B5EF09F05C
:10136600B7EF09F0BBEF09F0000E996FE4EF09F053
:1013760023C09AF09751D96EDA6ADF500F0B986F37
:101386009A519819F80B98199A6F9751D96EDA6A8B
:10139600DF38070B986F9847984798479A519819DE
:1013A600C70B98199A6F9A9D9751D96EDA6ADFAE74
:1013B60002D09A8F02D000019A9F9A0E946F5AEC2F
:1013C6000AF00001995112004E50D96EDA6A060EE3
:1013D600D926DFA4F1EF09F0F3EF09F0F6EF09F0F3
:1013E600D59A21EF0AF04E50D96EDA6A060ED92642
:1013F600DFB400EF0AF002EF0AF021EF0AF0D58A17
:101406004E50D96EDA6A060ED926DFA20DEF0AF023
:101416000FEF0AF012EF0AF0D59821EF0AF04E50BE
:10142600D96EDA6A060ED926DFB21CEF0AF01EEF75
:101436000AF021EF0AF0D58821EF0AF01200010E1A
:10144600466E4450D8A42AEF0AF02CEF0AF030EF8B
:101456000AF0000E466E58EF0AF020C047F04450DE
:10146600D96EDA6ADF500F0B456E47504518F80BF8
:101476004518476E4450D96EDA6ADF38070B456E59
:1014860045464546454647504518C70B4518476EDD
:10149600479C4450D96EDA6ADFAE02D0478E01D03F
:1014A600479E470E3F6E6BEC09F046501200000156
:1014B6009451D8B461EF0AF063EF0AF073EF0AF0C3
:1014C6009451D96EDA6ADF30E832E832070B956F4D
:1014D600070E956571EF0AF073EF0AF077EF0AF0E1
:1014E600000E966F8AEF0AF094C04EF00BEC08F0EF
:1014F6000001966F94C08DF09451D96EDA6A000E91
:10150600DFBE010E8E6F97EC08F00001966F9651C4
:101516001200590EF66E170EF76E000EF86E00EEFC
:1015260060F010EE18F00900F5CFEEFFE550E1503F
:10153600FAE1400EF66E170EF76E000EF86E00EE2C
:1015460026F010EE19F00900F5CFEEFFE550E15058
:10155600FAE100EE78F0150EEE6AE806FDE100EE1F
:1015660001F0250EEE6AE806FDE15090509200016A
:101576005EEF0BF0010E0001916F000E936F8D511F
:10158600D8A4C8EF0AF0CAEF0AF0D6EF0AF08E51D7
:10159600D8A4D0EF0AF0D2EF0AF0D6EF0AF0000E88
:1015A600916FEBEF0AF0D6CF92F0D7CF93F092512E
:1015B60093C08FF0906B8FC090F08F6B8F27000ECB
:1015C60090238E51D96EDA6A8FC0DEFF90C0DDFFA0
:1015D600915112004E50D96EDA6A060ED926DFA056
:1015E600F7EF0AF0F9EF0AF009EF0BF0D5964E5037
:1015F600D96EDA6A030ED926DF5000018D6FD550F9
:101606008D19F80B8D19D56E16EF0BF04E50D96E5D
:10161600DA6A060ED926DFB013EF0BF015EF0BF0E2
:1016260016EF0BF0D58612004E50D96EDA6A060E0A
:10163600D926DFA621EF0BF023EF0BF026EF0BF0F8
:10164600D58C33EF0BF04E50D96EDA6A060ED926DA
:10165600DFB630EF0BF032EF0BF033EF0BF0D59C2B
:101666001200F2940250D76E01C0D6FF0350041048
:10167600D8B440EF0BF042EF0BF04EEF0BF002D870
:101686004EEF0BF00500FA6E0350FD6E0450FE6E31
:10169600FF6AFA5012001200710E00018E6F22ECE2
:1016A60009F04F6E3E0E0001976FACEC09F04F6EDD
:1016B600C7EC0BF012004FEC0BF0710E00018D6FB2
:1016C600240E8E6FBDEC0AF04F6E60EF0BF07FEFCD
:1016D60001F03F6EF2903F50D8A474EF0BF076EF16
:1016E6000BF078EF0BF078EF0BF012003F6EF290F4
:1016F6003F50D8A481EF0BF083EF0BF085EF0BF092
:1017060085EF0BF012003F6EF2903F50D8A48EEF9B
:101716000BF090EF0BF092EF0BF092EF0BF0120044
:101726003F6EF2903F50D8A49BEF0BF09DEF0BF06D
:101736009FEF0BF09FEF0BF01200890F8A0F8B0FB4
:101746008C0F8D0F920F930F940F950F960F01012B
:10175600010103800F810F820F830F840F72170020
:0B17660002DC0B0572170000000002FF
:101772003E0E446E22EC0AF04F6E1200F0921200FE
:0E178200F0901200F29212009E9C12001200D3
:020000040030CA
:0E000000FF071F1FFF8985FF0FC00FE00F4095
:00000001FF
