:04000000DFEF01F03D
:100008004D82FACF02F0FBCF03F0F2A80EEF00F01A
:1000180010EF00F019EF00F0F2A215EF00F017EF63
:1000280000F019EF00F077EC13F0F0A61EEF00F0E7
:1000380020EF00F029EF00F0F0A025EF00F027EF07
:1000480000F029EF00F075EC13F0F0A82EEF00F0A7
:1000580030EF00F039EF00F0F0A235EF00F037EFA5
:1000680000F039EF00F073EC13F0F2A63EEF00F069
:1000780040EF00F05BEF00F0F2A045EF00F047EF33
:1000880000F05BEF00F081A84CEF00F04EEF00F0BD
:100098005BEF00F04B04D8A454EF00F056EF00F0EB
:1000A8005BEF00F0000E4B6E010E37EC13F0F2A67A
:1000B80060EF00F062EF00F07DEF00F0F2A067EF74
:1000C80000F069EF00F07DEF00F081B86EEF00F00E
:1000D80070EF00F07DEF00F04B50D8A476EF00F001
:1000E80078EF00F07DEF00F0010E4B6E000E37EC5C
:1000F80013F0F2A682EF00F084EF00F09FEF00F01B
:10010800F2A089EF00F08BEF00F09FEF00F081AADA
:1001180090EF00F092EF00F09FEF00F04A04D8A4AF
:1001280098EF00F09AEF00F09FEF00F0000E4A6E93
:10013800010E2AEC13F0F2A6A4EF00F0A6EF00F0EF
:10014800C1EF00F0F2A0ABEF00F0ADEF00F0C1EFAF
:1001580000F081BAB2EF00F0B4EF00F0C1EF00F0A8
:100168004A50D8A4BAEF00F0BCEF00F0C1EF00F09D
:10017800010E4A6E000E2AEC13F0F2A6C6EF00F04C
:10018800C8EF00F0E3EF00F0F2A0CDEF00F0CFEF02
:1001980000F0E3EF00F081ACD4EF00F0D6EF00F010
:1001A800E3EF00F04904D8A4DCEF00F0DEEF00F044
:1001B800E3EF00F0000E496E010E1DEC13F0F2A6FD
:1001C800E8EF00F0EAEF00F005EF01F0F2A0EFEF42
:1001D80000F0F1EF00F005EF01F081BCF6EF00F060
:1001E800F8EF00F005EF01F04950D8A4FEEF00F059
:1001F80000EF01F005EF01F0010E496E000E1DEC55
:1002080013F0F2A60AEF01F00CEF01F027EF01F06E
:10021800F2A011EF01F013EF01F027EF01F081AE2A
:1002280018EF01F01AEF01F027EF01F04804D8A405
:1002380020EF01F022EF01F027EF01F0000E486EE9
:10024800010E10EC13F0F2A62CEF01F02EEF01F0E6
:1002580049EF01F0F2A033EF01F035EF01F049EF7B
:1002680001F081BE3AEF01F03CEF01F049EF01F0F7
:100278004850D8A442EF01F044EF01F049EF01F0F3
:10028800010E486E000E10EC13F09DAC4EEF01F01D
:1002980050EF01F059EF01F09EAC55EF01F057EF28
:1002A80001F059EF01F07DEC13F0F2AA5EEF01F0D6
:1002B80060EF01F069EF01F0F2A465EF01F067EF7C
:1002C80001F069EF01F066EC13F09DA06EEF01F00C
:1002D80070EF01F079EF01F09EA075EF01F077EF74
:1002E80001F079EF01F05FEC13F09DA27EEF01F0D1
:1002F80080EF01F089EF01F09EA285EF01F087EF12
:1003080001F089EF01F06DEC13F0A0A28EEF01F07F
:1003180090EF01F099EF01F0A1A295EF01F097EFAE
:1003280001F099EF01F058EC13F09DA49EEF01F055
:10033800A0EF01F0A9EF01F09EA4A5EF01F0A7EF4F
:1003480001F0A9EF01F07BEC13F0A0A0AEEF01F0F3
:10035800B0EF01F0B9EF01F0A1A0B5EF01F0B7EFF0
:1003680001F0B9EF01F079EC13F09DA8BEEF01F0B0
:10037800C0EF01F0C9EF01F09EA8C5EF01F0C7EF8B
:1003880001F0C9EF01F0D6EC12F09DAACEEF01F012
:10039800D0EF01F0D9EF01F09EAAD5EF01F0D7EF29
:1003A80001F0D9EF01F07FEC13F003C0FBFF02C0AE
:0A03B800FAFF4D9211003CEF12F025
:10100000003738392F343536373132333423303DD9
:101010002B48656C6C6F0D0025690000000E3E6E5C
:10102000000E3F6E000E406E000E416E38EF0AF06B
:10103000AC98B896AC943B50D96EDA6A080ED926B3
:10104000DECF04F0DECF05F0DECF06F0DECF07F016
:10105000000EAFEC0EF004C016F005C017F006C08D
:1010600018F007C019F0000E126E240E136EF40E65
:10107000146E4A0E156EE2EC0CF012C042F013C072
:1010800043F014C044F015C045F0000E166E000E7B
:10109000176E800E186E420E196E42C012F043C0D9
:1010A00013F044C014F045C015F0E2EC0CF012C08F
:1010B0002BF013C02CF014C02DF015C02EF0000E34
:1010C0002F6E000E306E800E316EBF0E326E82ECCF
:1010D0000AF02BC03EF02CC03FF02DC040F02EC0D7
:1010E00041F062EF0AF0AC98B896AC843B50D96EF0
:1010F000DA6A080ED926DECF04F0DECF05F0DECFA7
:1011000006F0DECF07F0000EAFEC0EF004C016F0D4
:1011100005C017F006C018F007C019F0000E126ED7
:10112000240E136EF40E146E4A0E156EE2EC0CF0E3
:1011300012C042F013C043F014C044F015C045F093
:10114000000E166E000E176E800E186E410E196E90
:1011500042C012F043C013F044C014F045C015F073
:10116000E2EC0CF012C02BF013C02CF014C02DF0E8
:1011700015C02EF0000E2F6E000E306E800E316EF8
:10118000BF0E326E82EC0AF02BC03EF02CC03FF056
:101190002DC040F02EC041F062EF0AF0AC98B88646
:1011A000AC943B50D96EDA6A080ED926DECF04F033
:1011B000DECF05F0DECF06F0DECF07F0000EAFEC9D
:1011C0000EF004C016F005C017F006C018F007C0F6
:1011D00019F0000E126E240E136EF40E146E4A0EE9
:1011E000156EE2EC0CF012C042F013C043F014C0D4
:1011F00044F015C045F0000E166E000E176E800EFE
:10120000186E410E196E42C012F043C013F044C074
:1012100014F045C015F0E2EC0CF012C02BF013C036
:101220002CF014C02DF015C02EF0000E2F6E000E05
:10123000306E800E316EBF0E326E82EC0AF02BC023
:101240003EF02CC03FF02DC040F02EC041F062EFC8
:101250000AF0AC98B886AC843B50D96EDA6A080EB6
:10126000D926DECF04F0DECF05F0DECF06F0DECFEC
:1012700007F0000EAFEC0EF004C016F005C017F03A
:1012800006C018F007C019F0000E126E240E136E7F
:10129000F40E146E4A0E156EE2EC0CF012C042F021
:1012A00013C043F014C044F015C045F0000E166E94
:1012B000000E176E800E186E400E196E42C012F0AE
:1012C00043C013F044C014F045C015F0E2EC0CF03C
:1012D00012C02BF013C02CF014C02DF015C02EF04E
:1012E000000E2F6E000E306E800E316EBF0E326E0D
:1012F00082EC0AF02BC03EF02CC03FF02DC040F035
:101300002EC041F062EF0AF0AC88B8963B50D96E1F
:10131000DA6A080ED926DECF04F0DECF05F0DECF84
:1013200006F0DECF07F0000EAFEC0EF004C016F0B2
:1013300005C017F006C018F007C019F0000E126EB5
:10134000240E136EF40E146E4A0E156EE2EC0CF0C1
:1013500012C042F013C043F014C044F015C045F071
:10136000000E166E000E176E800E186E400E196E6F
:1013700042C012F043C013F044C014F045C015F051
:10138000E2EC0CF012C02BF013C02CF014C02DF0C6
:1013900015C02EF0000E2F6E000E306E800E316ED6
:1013A000BF0E326E82EC0AF02BC03EF02CC03FF034
:1013B0002DC040F02EC041F062EF0AF0AC88B88634
:1013C0003B50D96EDA6A080ED926DECF04F0DECFA4
:1013D00005F0DECF06F0DECF07F0000EAFEC0EF02A
:1013E00004C016F005C017F006C018F007C019F0C9
:1013F000000E126E240E136EF40E146E4A0E156E4D
:10140000E2EC0CF012C042F013C043F014C044F000
:1014100015C045F0000E166E000E176E800E186E89
:10142000400E196E42C012F043C013F044C014F0D5
:1014300045C015F0E2EC0CF012C02BF013C02CF0FC
:1014400014C02DF015C02EF0000E2F6E000E306E61
:10145000800E316EBF0E326E82EC0AF02BC03EF071
:101460002CC03FF02DC040F02EC041F062EF0AF0DA
:101470003B50D96EDA6A0C0ED926DF503C6E3D6ABD
:101480003D50000AD8B447EF0AF062EF0AF03C5032
:10149000000AD8B418EF08F0010AD8B473EF08F0C6
:1014A000030AD8B4CEEF08F0010AD8B429EF09F046
:1014B000070AD8B484EF09F0010AD8B4DEEF09F0C6
:1014C00062EF0AF03EC004F03FC005F040C006F0F5
:1014D00041C007F09AEC10F00450AF6E3EC004F02B
:1014E0003FC005F040C006F041C007F09AEC10F094
:1014F00005C004F006C005F007C006F0076A0450F6
:10150000B06E12002E50800B376E2E502E24396E86
:101510002DAE8DEF0AF08FEF0AF090EF0AF03980D0
:101520003950D8B496EF0AF098EF0AF0ADEF0AF010
:101530003928D8A49EEF0AF0A0EF0AF0A8EF0AF02D
:10154000000E2B6E000E2C6E000E2D6E000E2E6EF9
:101550002D8E000E2E6EB5EF0AF0000E2B6E000ED3
:101560002C6E000E2D6E000E2E6E3250800B386EDB
:1015700037503818D8B4BFEF0AF0C1EF0AF0C2EF05
:101580000AF0378C32503224386E31AECAEF0AF08E
:10159000CCEF0AF0CDEF0AF038803850D8B4D3EF52
:1015A0000AF0D5EF0AF0EAEF0AF03828D8A4DBEF0A
:1015B0000AF0DDEF0AF0E5EF0AF0000E2F6E000EE4
:1015C000306E000E316E000E326E318E000E326EB5
:1015D000F2EF0AF0000E2F6E000E306E000E316E2C
:1015E000000E326E3950385CD8B0F9EF0AF0FBEFDC
:1015F0000AF022EF0BF037AC00EF0BF002EF0BF02C
:1016000004EF0BF0800E371A39C03AF038C039F0C9
:101610003AC038F02BC03AF02FC02BF03AC02FF070
:101620002CC03AF030C02CF03AC030F02DC03AF067
:1016300031C02DF03AC031F02EC03AF032C02EF059
:101640003AC032F0000E3A6E395038C033F0346A86
:10165000335E000E345A34BE37EF0BF0345009E1DC
:101660001A0E335CD8A037EF0BF039EF0BF070EFA8
:101670000BF02B502C102D102E10D8A442EF0BF095
:1016800045EF0BF0010E46EF0BF0000E3A6E000E28
:101690002B6E000E2C6E000E2D6E000E2E6E38C0BE
:1016A00039F079EF0BF03AA058EF0BF05AEF0BF04E
:1016B00060EF0BF0D8903A3001093A6E62EF0BF010
:1016C000D8903A322BA067EF0BF069EF0BF06AEF7E
:1016D0000BF03A8E2E342E322D322C322B32392A08
:1016E0003850395CD8A077EF0BF079EF0BF053EF5F
:1016F0000BF037BC7EEF0BF080EF0BF0C0EF0BF080
:101700003950D8A486EF0BF088EF0BF092EF0BF076
:10171000000E2B6E000E2C6E000E2D6E000E2E6E27
:10172000E1EF0CF02F502B2630502C2231502D227F
:1017300032502E222EA09FEF0BF0A1EF0BF04DEFB9
:101740000CF03AA0A6EF0BF0A8EF0BF0AEEF0BF009
:10175000D8903A3001093A6EB0EF0BF0D8903A3297
:101760002BA0B5EF0BF0B7EF0BF0B8EF0BF03A8E04
:101770002E342E322D322C322B32392A4DEF0CF0F2
:101780002F502B5C30502C5831502D582E50800A41
:10179000336E3250800A3358D8B0D1EF0BF0D3EF0C
:1017A0000BF0FEEF0BF02B502F5C336E2C503058AB
:1017B000346E2D503158356E2E503258366EFF0E25
:1017C00033242B6EFF0E34202C6EFF0E35202D6E31
:1017D000FF0E36202E6E800E371A3A6C3A50D8A47F
:1017E000F4EF0BF0F6EF0BF006EF0CF0010E2B26EA
:1017F000000E2C222D222E2206EF0CF02F502B5EF5
:1018000030502C5A31502D5A32502E5A2B502C1009
:101810002D102E10D8A40FEF0CF011EF0CF046EFA6
:101820000CF03A50D8A417EF0CF019EF0CF046EF7B
:101830000CF0000E2B6E000E2C6E000E2D6E000EA6
:101840002E6EE1EF0CF0D8902B362C362D362E363E
:101850003AAE2DEF0CF02FEF0CF030EF0CF02B80A8
:101860003AA035EF0CF037EF0CF03BEF0CF0D880DE
:101870003A363DEF0CF0D8903A363950D8B443EFB1
:101880000CF045EF0CF046EF0CF039062DAE4BEFA7
:101890000CF04DEF0CF023EF0CF0000E386E3AAE6A
:1018A00054EF0CF056EF0CF06EEF0CF03AC033F042
:1018B0007F0E3316D8B45FEF0CF061EF0CF065EFDC
:1018C0000CF0010E386E6EEF0CF02BA06AEF0CF0EE
:1018D0006CEF0CF06EEF0CF061EF0CF03850D8B4F8
:1018E00074EF0CF076EF0CF0A1EF0CF0010E2B264C
:1018F000000E2C222D222E222EA081EF0CF083EF41
:101900000CF0A1EF0CF02BC033F02CC034F02DC044
:1019100035F02EC036F0363436323532343233328A
:1019200033C02BF034C02CF035C02DF036C02EF073
:101930003928D8B49EEF0CF0A0EF0CF0A1EF0CF01A
:10194000392A3928D8B4A7EF0CF0A9EF0CF0B1EF81
:101950000CF03950D8A4AFEF0CF0B1EF0CF0C3EF9E
:101960000CF0000E2B6E000E2C6E000E2D6E000E75
:101970002E6E3950D8A4BFEF0CF0C1EF0CF0C3EFBE
:101980000CF0000E376E39A0C8EF0CF0CAEF0CF067
:10199000CDEF0CF02D8ECEEF0CF02D9ED89039307F
:1019A0002E6E37AED6EF0CF0D8EF0CF0D9EF0CF06E
:1019B0002E8E2BC02BF02CC02CF02DC02DF02EC065
:1019C0002EF012001550800B226E15501524296E32
:1019D00014AEEDEF0CF0EFEF0CF0F0EF0CF029800F
:1019E0002950D8B4F6EF0CF0F8EF0CF00DEF0DF035
:1019F0002928D8A4FEEF0CF000EF0DF008EF0DF051
:101A0000000E126E000E136E000E146E000E156E98
:101A1000148E000E156E15EF0DF0000E126E000EF6
:101A2000136E000E146E000E156E1950800B221AE4
:101A3000195019242A6E18AE20EF0DF022EF0DF088
:101A400023EF0DF02A802A50D8B429EF0DF02BEFA8
:101A50000DF040EF0DF02A28D8A431EF0DF033EF50
:101A60000DF03BEF0DF0000E166E000E176E000E1F
:101A7000186E000E196E188E000E196E48EF0DF0DC
:101A8000000E166E000E176E000E186E000E196E08
:101A90001650171018101910D8A451EF0DF053EF6D
:101AA0000DF06BEF0DF0000E126E000E136E000EB7
:101AB000146E000E156E800E14127F0E1512225039
:101AC000151212C012F013C013F014C014F015C098
:101AD00015F0AEEF0EF02950D8A471EF0DF073EFB2
:101AE0000DF07DEF0DF0000E126E000E136E000E65
:101AF000146E000E156EAEEF0EF02A5029C01AF0CB
:101B00001B6A1A5E000E1B5A7F0E1A24236E000EEB
:101B10001B20246E12C01EF013C01FF014C020F052
:101B200015C021F0000E126E000E136E000E146E22
:101B3000000E156E000E256E000E266E000E276E2E
:101B4000000E286E000E2A6EDEEF0DF02A50D8B47B
:101B5000ACEF0DF0AEEF0DF0C5EF0DF0D8901E36E6
:101B60001F3620362136D8901236133614361536E5
:101B700028AEBDEF0DF0BFEF0DF0C0EF0DF01280FD
:101B8000D890253626362736283616501E5C175034
:101B90001F581850205819502158D8A0D2EF0DF0D6
:101BA000D4EF0DF0DDEF0DF0288C16501E5E1750AF
:101BB0001F5A1850205A1950215A2A2A190E2A64DD
:101BC000E4EF0DF0E6EF0DF0A6EF0DF01E501F1044
:101BD00020102110D8B4EFEF0DF0F1EF0DF009EF68
:101BE0000EF0258009EF0EF0D89012361336143619
:101BF000153628AEFEEF0DF000EF0EF001EF0EF0FF
:101C00001280D89025362636273628362306D8A0C7
:101C1000240614AE0EEF0EF010EF0EF0F4EF0DF000
:101C2000000E2A6E28AE17EF0EF019EF0EF03DEF02
:101C30000EF0FF0E25141A6EFF0E26141B6EFF0EFB
:101C400027141C6E7F0E28141D6E1A501B101C10BA
:101C50001D10D8B42EEF0EF030EF0EF034EF0EF072
:101C6000010E2A6E3DEF0EF012A039EF0EF03BEFA1
:101C70000EF03DEF0EF030EF0EF02A50D8B443EFE7
:101C80000EF045EF0EF069EF0EF0010E1226000E79
:101C900013221422152215A050EF0EF052EF0EF071
:101CA00069EF0EF012C01AF013C01BF014C01CF044
:101CB00015C01DF01D341D321C321B321A321AC0E1
:101CC00012F01BC013F01CC014F01DC015F0234A05
:101CD000242A24BE74EF0EF0245008E12328D8A053
:101CE00074EF0EF076EF0EF081EF0EF0000E246E22
:101CF0002368000E126E000E136E000E146E000E9E
:101D0000156E24BE8EEF0EF0245006E12304D8B0E9
:101D10008CEF0EF08EEF0EF09CEF0EF0000E246EA6
:101D2000000E236E000E126E000E136E000E146E67
:101D3000000E156E000E226E23C029F029A0A3EF1D
:101D40000EF0A5EF0EF0A8EF0EF0148EA9EF0EF036
:101D5000149ED8902930156E5FEF0DF012000C6EB6
:101D60000C50D8B4B6EF0EF0B8EF0EF0DAEF0EF07C
:101D700007BEBFEF0EF0BDEF0EF0DAEF0EF004C0BD
:101D800008F005C009F006C00AF007C00BF0081EF5
:101D9000091E0A1E0B1E082A000E09220A220B2207
:101DA00008C00EF009C00FF00AC010F00BC011F00F
:101DB000E2EF0EF004C00EF005C00FF006C010F008
:101DC00007C011F00450051006100710D8A4EBEF5F
:101DD0000EF0EDEF0EF0F7EF0EF0000E046E000EB9
:101DE000056E000E066E000E076E88EF0FF0960E61
:101DF0000D6E01EF0FF00D2AD890113210320F3214
:101E00000E32000E0E14086E000E0F14096E000E36
:101E100010140A6EFE0E11140B6E085009100A10F1
:101E20000B10D8A416EF0FF018EF0FF0FBEF0EF029
:101E300026EF0FF00D2A010E0E26000E0F221022A3
:101E40001122D890113210320F320E32000E0E14C1
:101E5000086E000E0F14096E000E10140A6EFF0EAD
:101E600011140B6E085009100A100B10D8A43BEF88
:101E70000FF03DEF0FF01AEF0FF045EF0FF00D06EA
:101E8000D8900E360F361036113610BE4AEF0FF0CE
:101E90004CEF0FF054EF0FF0020E0D6052EF0FF009
:101EA00054EF0FF03FEF0FF00DB059EF0FF05BEF75
:101EB0000FF05CEF0FF0109ED8900D320DC008F0BF
:101EC000096A0A6A0B6A08C00BF00A6A096A086A9A
:101ED00008500E1209500F120A5010120B50111216
:101EE0000C50D8B476EF0FF078EF0FF080EF0FF0D2
:101EF00007BE7FEF0FF07DEF0FF080EF0FF0118E38
:101F00000EC004F00FC005F010C006F011C007F0BD
:101F10001200010E0A6E0450D8B491EF0FF093EF47
:101F20000FF0A3EF0FF00450D96EDA6ADF30E83219
:101F3000E832070B056E070E0564A1EF0FF0A3EF63
:101F40000FF0FAEF0FF0000E0A6E10EF10F00450D1
:101F5000D96EDA6ADF30E832E832070B056E010E1F
:101F6000066E052AB6EF0FF0D8900636052EB4EFB0
:101F70000FF00650FF0A076E0450D96EDA6ADF5080
:101F8000070B020DF350CA0FD96EDA6ADECF08F0E4
:101F9000DDCF09F008C0D9FF09C0DAFF0750DF160E
:101FA00010EF10F00450D96EDA6ADF30E832E83210
:101FB000070B056E010E066E052AE1EF0FF0D890B3
:101FC0000636052EDFEF0FF00450D96EDA6ADF50C7
:101FD000070B020DF350CA0FD96EDA6ADECF07F095
:101FE000DDCF08F007C0D9FF08C0DAFF0650DF12C6
:101FF00010EF10F00450D96EDA6ADFBC02EF10F077
:1020000005EF10F0010E06EF10F0000E000AD8B434
:10201000A7EF0FF0010AD8B4D2EF0FF0A3EF0FF043
:102020000A501200010E0B6E0450D8B41AEF10F0D3
:102030001CEF10F02CEF10F00450D96EDA6ADF308C
:10204000E832E832070B066E070E06642AEF10F03E
:102050002CEF10F083EF10F0000E0B6E98EF10F0E5
:102060000450D96EDA6ADF30E832E832070B066EC8
:10207000010E076E062A3FEF10F0D8900736062EA5
:102080003DEF10F00750FF0A086E0450D96EDA6A6F
:10209000DF50070B020DF350C00FD96EDA6ADECFA6
:1020A00009F0DDCF0AF009C0D9FF0AC0DAFF0850F5
:1020B000DF1698EF10F00450D96EDA6ADF30E8329C
:1020C000E832070B066E010E076E062A6AEF10F063
:1020D000D8900736062E68EF10F00450D96EDA6AF1
:1020E000DF50070B020DF350C00FD96EDA6ADECF56
:1020F00008F0DDCF09F008C0D9FF09C0DAFF0750AA
:10210000DF1298EF10F00550066E076A0750000ABC
:10211000D8B48DEF10F02CEF10F00650000AD8B4B0
:1021200030EF10F0010AD8B45BEF10F02CEF10F094
:102130000B501200063407340D6E0D50D8A4A3EFD7
:1021400010F0A5EF10F0AFEF10F0000E046E000ECF
:10215000056E000E066E000E076E1CEF11F004C037
:1021600008F005C009F006C00AF007C00BF0200E09
:10217000BFEF10F0D8900B320A3209320832E82E45
:10218000BAEF10F008500C6E068EFF0E0416FF0E0C
:102190000516FF0E0616000E0716960E0D5E0DBEF6
:1021A000D6EF10F0D4EF10F0ECEF10F00D50800AE5
:1021B000970FD8B0DEEF10F0E0EF10F0E2EF10F084
:1021C000A5EF10F0D89007320632053204320D3EEA
:1021D000E2EF10F004EF11F01F0E0D64F2EF10F0BB
:1021E000F4EF10F0FCEF10F0A5EF10F0D8900436EB
:1021F0000536063607360D060D50D8A402EF11F04D
:1022000004EF11F0F6EF10F00C50D8B40AEF11F013
:102210000CEF11F014EF11F0071E061E051E046CE2
:10222000000E05220622072204C004F005C005F0B6
:1022300006C006F007C007F012000450D96EDA6A33
:102240000F0ED926DFAA27EF11F029EF11F082EF48
:1022500011F0AB880450D96EDA6A0F0ED926DFACC4
:1022600034EF11F036EF11F057EF11F09D8A045062
:10227000D96EDA6A020ED926DECF7DF0DDCF7EF090
:102280000450D96EDA6A040ED926DECF7BF0DDCF9A
:102290007CF00450D96EDA6A060ED926DECF79F0CA
:1022A000DDCF7AF09D8AF28EF28C64EF11F004504B
:1022B000D96EDA6A0F0ED926DFBC61EF11F063EF39
:1022C00011F064EF11F09D9A0450D96EDA6A0F0E86
:1022D000D926DFAE6EEF11F070EF11F073EF11F051
:1022E000AB8C82EF11F00450D96EDA6A0F0ED9264A
:1022F000DFBE7DEF11F07FEF11F082EF11F0AB9CAC
:1023000082EF11F012000450D96EDA6A0D0ED92650
:10231000DFAA8DEF11F08FEF11F0D4EF11F0AC8A3E
:102320000450D96EDA6A0D0ED926DFAC9AEF11F09F
:102330009CEF11F0A9EF11F09D880450D96EDA6A74
:10234000DECF7FF0DDCF80F09D88F28EF28CB6EF8D
:1023500011F00450D96EDA6A0D0ED926DFBCB3EF46
:1023600011F0B5EF11F0B6EF11F09D980450D96E51
:10237000DA6A0D0ED926DFAEC0EF11F0C2EF11F010
:10238000C5EF11F0AC8CD4EF11F00450D96EDA6ABD
:102390000D0ED926DFBECFEF11F0D1EF11F0D4EF43
:1023A00011F0AC9CD4EF11F01200010E116E0F5021
:1023B000D8A4DDEF11F0DFEF11F0E3EF11F0000E24
:1023C000116E0BEF12F04CC012F00F50D96EDA6A9A
:1023D000DF500F0B106E12501018F80B1018126E01
:1023E0000F50D96EDA6ADF38070B106E10461046B0
:1023F000104612501018C70B1018126E129C0F5076
:10240000D96EDA6ADFAE02D0128E01D0129E120EA1
:102410000C6E0DEC12F0115012000C50D8B413EFEA
:1024200012F015EF12F025EF12F00C50D96EDA6AA7
:10243000DF30E832E832070B0D6E070E0D6423EF34
:1024400012F025EF12F029EF12F0000E0E6E3AEFA7
:1024500012F00CC004F089EC0FF00E6E0CC004F00A
:102460000C50D96EDA6A000EDFBE010E056E12EC5A
:1024700010F00E6E0E501200000EF66E260EF76E65
:10248000000EF86E00EEB6F010EE1FF00900F5CF6A
:10249000EEFFE550E150FAE1E20EF66E260EF76E21
:1024A000000EF86E00EE48F010EE04F00900F5CFD3
:1024B000EEFFE550E150FAE100EE60F0560EEE6AF4
:1024C000E806FDE14C6A4D904D920001EEEF12F0EE
:1024D000010E096E000E0B6E000E0A6E000E0B6EE2
:1024E000000E0A6E83EF12F005500A24086E08C031
:1024F000F6FF100EF76EF86A0800F55044EC13F082
:10250000096E0A4A0B2A06500A5C07500B58D8A0DD
:102510008CEF12F08EEF12F074EF12F009501200EF
:10252000000E0001D96F000EDA6F000EDB6F000E97
:10253000DC6F000ED76F000ED86FA00ED56F260E81
:10254000D66F800EDD6F250EDE6F000EDF6F000E82
:10255000E06F000EE16FE28BE28DE29FE48BE48D91
:10256000E49FD50E466EB6EC12F01200010E476ED7
:102570004650D8A4BEEF12F0C0EF12F0C4EF12F034
:10258000000E476ED4EF12F0AB9E948C948E46C032
:102590003BF00EEC08F046C004F083EC11F046C0AE
:1025A00004F01DEC11F0AB8E475012009D98000115
:1025B0007F518011D8B4DFEF12F0E1EF12F0EDEFB0
:1025C00012F002D8EDEF12F00500FA6E7F51FD6EA9
:1025D0008051FE6EFF6AFA501200120090EC12F069
:1025E000D40E0F6ED5EC11F0110E056E000E076EB5
:1025F000060E066E68EC12F0F4EF12F0DFEF01F059
:10260000800F810F820F830F840F890F8A0F8B0F2A
:0F2610008C0F8D0F920F930F940F950F960F0352
:10262000016EF2900150D8A418EF13F01AEF13F0D6
:102630001CEF13F01CEF13F01200016EF29001502A
:10264000D8A425EF13F027EF13F029EF13F029EFAB
:1026500013F01200016EF2900150D8A432EF13F083
:1026600034EF13F036EF13F036EF13F01200016E73
:10267000F2900150D8A43FEF13F041EF13F043EF75
:1026800013F043EF13F01200046EACA24AEF13F004
:102690004CEF13F045EF13F09D8804C0ADFF12001E
:1026A000010E00017127000E7223732374231200A0
:1026B000A19200018251B36E81C0B2FF12009E90C0
:1026C00000018851CF6E87C0CEFF1200F294000146
:1026D0008C51D76E8BC0D6FF12009E92AEC0CCFF3D
:1026E000120001010101F0921200F0901200F2922A
:1026F00012009E9412009E9412009E9C12001200E2
:020000040030CA
:0E000000FF071F1FFF8985FF0FC00FE00F4095
:00000001FF
