:04000000B6EF0AF05D
:101000000000010E2D6E2750D8B409EF08F00BEF49
:1010100008F01BEF08F02750D96EDA6ADF30E832AB
:10102000E832070B286E070E286419EF08F01BEF53
:1010300008F072EF08F0000E2D6E88EF08F02750D0
:10104000D96EDA6ADF30E832E832070B286E010E1B
:10105000296E282A2EEF08F0D8902936282E2CEF5A
:1010600008F02950FF0A2A6E2750D96EDA6ADF503D
:10107000070B020DF350150FD96EDA6ADECF2BF095
:10108000DDCF2CF02BC0D9FF2CC0DAFF2A50DF16A1
:1010900088EF08F02750D96EDA6ADF30E832E8329C
:1010A000070B286E010E296E282A59EF08F0D890F8
:1010B0002936282E57EF08F02750D96EDA6ADF500C
:1010C000070B020DF350150FD96EDA6ADECF2AF046
:1010D000DDCF2BF02AC0D9FF2BC0DAFF2950DF1259
:1010E00088EF08F02750D96EDA6ADFBC7AEF08F093
:1010F0007DEF08F0010E7EEF08F0000E000AD8B474
:101100001FEF08F0010AD8B44AEF08F01BEF08F00F
:101110002D501200010E2E6E2750D8B492EF08F019
:1011200094EF08F0A4EF08F02750D96EDA6ADF30A8
:10113000E832E832070B296E070E2964A2EF08F0A7
:10114000A4EF08F0FBEF08F0000E2E6E10EF09F090
:101150002750D96EDA6ADF30E832E832070B296EA1
:10116000010E2A6E292AB7EF08F0D8902A36292EC8
:10117000B5EF08F02A50FF0A2B6E2750D96EDA6AB5
:10118000DF50070B020DF3500B0FD96EDA6ADECF7A
:101190002CF0DDCF2DF02CC0D9FF2DC0DAFF2B5065
:1011A000DF1610EF09F02750D96EDA6ADF30E83227
:1011B000E832070B296E010E2A6E292AE2EF08F0A9
:1011C000D8902A36292EE0EF08F02750D96EDA6A37
:1011D000DF50070B020DF3500B0FD96EDA6ADECF2A
:1011E0002BF0DDCF2CF02BC0D9FF2CC0DAFF2A501A
:1011F000DF1210EF09F02850296E2A6A2A50000ADF
:10120000D8B405EF09F0A4EF08F02950000AD8B4CB
:10121000A8EF08F0010AD8B4D3EF08F0A4EF08F063
:101220002E501200E4EC0AF0000E3C6E200E2F6EE1
:101230001FC027F0286A000E2A6E0A0E296E75EC70
:1012400009F02750306E2FEC0AF0260E276E010EA3
:10125000286E8AEC08F01A0E346EF80EE82EFED7CF
:10126000342EFCD700D0260E276E000E286E8AEC96
:1012700008F0200E2F6E1FC027F0286A000E2A6E7D
:101280000A0E296ED7EC09F02750306E2FEC0AF0C9
:10129000250E276E010E286E8AEC08F01A0E346EA9
:1012A000F80EE82EFED7342EFCD700D0250E276E80
:1012B000000E286E8AEC08F03C2A320E3C6463EF84
:1012C00009F065EF09F016EF09F01F2A640E1F18E8
:1012D000D8A46DEF09F06FEF09F014EF09F0000EDC
:1012E0001F6E14EF09F000EF00F0000E2C6E2ABE06
:1012F0007EEF09F07CEF09F084EF09F0296C2A1EDB
:10130000D8B02A2A010E2C6E28BE8BEF09F089EF87
:1013100009F091EF09F0276C281ED8B0282A010E99
:101320002C1A000E2E6E000E2D6E29502A10D8B4E5
:101330009CEF09F09EEF09F0C6EF09F0010E2B6E4D
:10134000A6EF09F0D89029362A362B2A2AAEABEF21
:1013500009F0ADEF09F0A2EF09F0D8902D362E3646
:101360002950275C2A502858D8A0B9EF09F0BBEFC4
:1013700009F0C0EF09F02950275E2A50285A2D8025
:10138000D8902A3229322B2EADEF09F02C50D8B448
:10139000CCEF09F0CEEF09F0D2EF09F02D6C2E1E44
:1013A000D8B02E2A2DC027F02EC028F01200000E33
:1013B0002C6E28BEE0EF09F0DEEF09F0E6EF09F051
:1013C000276C281ED8B0282A010E2C6E2ABEEDEFFD
:1013D00009F0EBEF09F0F1EF09F0296C2A1ED8B003
:1013E0002A2A29502A10D8B4F8EF09F0FAEF09F0A8
:1013F0001EEF0AF0010E2B6E02EF0AF0D89029368C
:101400002A362B2A2AAE07EF0AF009EF0AF0FEEF80
:1014100009F02950275C2A502858D8A012EF0AF06A
:1014200014EF0AF018EF0AF02950275E2A50285AC4
:10143000D8902A3229322B2E09EF0AF02C50D8B43A
:1014400024EF0AF026EF0AF02AEF0AF0276C281E94
:10145000D8B0282A27C027F028C028F012002F5023
:10146000D8B435EF0AF037EF0AF03FEF0AF0090E73
:1014700030643DEF0AF03FEF0AF041EF0AF064EF0D
:101480000AF02FC027F03050010B286E8AEC08F0CC
:101490002F28276ED8903030010B286E8AEC08F088
:1014A0002F50020F276E3040E8423F0B010B286E91
:1014B0008AEC08F02F50030F276E3038E8461F0BD8
:1014C000010B286E8AEC08F012002F50D8B46BEF95
:1014D0000AF06DEF0AF07DEF0AF02F50D96EDA6A4C
:1014E000DF30E832E832070B306E070E30647BEFF6
:1014F0000AF07DEF0AF081EF0AF0000E316E92EFF4
:101500000AF02FC027F001EC08F0316E2FC027F051
:101510002F50D96EDA6A000EDFBE010E286E8AECFB
:1015200008F0316E31501200010E336E3250D8A4E3
:101530009CEF0AF09EEF0AF0A2EF0AF0000E336E65
:10154000B4EF0AF032C02FF065EC0AF032282F6EAB
:1015500065EC0AF03250020F2F6E65EC0AF0325043
:10156000030F2F6E65EC0AF033501200A20EF66ED8
:10157000150EF76E000EF86E00EE01F010EE26F07C
:101580000900F5CFEEFFE550E150FAE100EE35F04D
:10159000070EEE6AE806FDE1000EF86E000112EF9C
:1015A00009F0800F810F820F830F840F890F8A0F3C
:1015B0008B0F8C0F8D0F920F930F940F950F960F2B
:1015C0005A020A121A000B03200E326E94EC0AF033
:1015D0003D6E260E2F6E65EC0AF03D6E250E2F6EC9
:0815E00065EC0AF03D6E1200FB
:020000040030CA
:0E000000FF02091EFF8181FF0FC00FE00F40BD
:00000001FF
