:040000000BEF0AF008
:101000000000010E296E2350D8B409EF08F00BEF51
:1010100008F01BEF08F02350D96EDA6ADF30E832AF
:10102000E832070B246E070E246419EF08F01BEF5B
:1010300008F072EF08F0000E296E88EF08F02350D8
:10104000D96EDA6ADF30E832E832070B246E010E1F
:10105000256E242A2EEF08F0D8902536242E2CEF6A
:1010600008F02550FF0A266E2350D96EDA6ADF5049
:10107000070B020DF350150FD96EDA6ADECF27F099
:10108000DDCF28F027C0D9FF28C0DAFF2650DF16B1
:1010900088EF08F02350D96EDA6ADF30E832E832A0
:1010A000070B246E010E256E242A59EF08F0D89004
:1010B0002536242E57EF08F02350D96EDA6ADF5018
:1010C000070B020DF350150FD96EDA6ADECF26F04A
:1010D000DDCF27F026C0D9FF27C0DAFF2550DF1269
:1010E00088EF08F02350D96EDA6ADFBC7AEF08F097
:1010F0007DEF08F0010E7EEF08F0000E000AD8B474
:101100001FEF08F0010AD8B44AEF08F01BEF08F00F
:1011100029501200010E2A6E2350D8B492EF08F025
:1011200094EF08F0A4EF08F02350D96EDA6ADF30AC
:10113000E832E832070B256E070E2564A2EF08F0AF
:10114000A4EF08F0FBEF08F0000E2A6E10EF09F094
:101150002350D96EDA6ADF30E832E832070B256EA9
:10116000010E266E252AB7EF08F0D8902636252ED8
:10117000B5EF08F02650FF0A276E2350D96EDA6AC1
:10118000DF50070B020DF3500B0FD96EDA6ADECF7A
:1011900028F0DDCF29F028C0D9FF29C0DAFF275079
:1011A000DF1610EF09F02350D96EDA6ADF30E8322B
:1011B000E832070B256E010E266E252AE2EF08F0B5
:1011C000D8902636252EE0EF08F02350D96EDA6A43
:1011D000DF50070B020DF3500B0FD96EDA6ADECF2A
:1011E00027F0DDCF28F027C0D9FF28C0DAFF26502E
:1011F000DF1210EF09F02450256E266A2650000AEF
:10120000D8B405EF09F0A4EF08F02550000AD8B4CF
:10121000A8EF08F0010AD8B4D3EF08F0A4EF08F063
:101220002A5012002350D8B418EF09F01AEF09F031
:101230002AEF09F02350D96EDA6ADF30E832E8325B
:10124000070B246E070E246428EF09F02AEF09F03B
:101250002CEF09F052EF09F02350D96EDA6ADF3033
:10126000E832E832070B246E010E256E242A3BEF8C
:1012700009F0D8902536242E39EF09F02350D96E85
:10128000DA6ADF50070B020DF3500B0FD96EDA6AE2
:10129000DECF26F0DDCF27F026C0D9FF27C0DAFF4A
:1012A0002550DF1A1200010E306E2E50D8A45BEFCD
:1012B00009F05DEF09F061EF09F0000E306E89EF83
:1012C00009F037C031F02E50D96EDA6ADF500F0BBB
:1012D0002F6E31502F18F80B2F18316E2E50D96EFB
:1012E000DA6ADF38070B2F6E2F462F462F46315014
:1012F0002F18C70B2F18316E319C2E50D96EDA6A19
:10130000DFAE02D0318E01D0319E310E2B6EBEEC9D
:1013100009F0305012002850D8A491EF09F093EF53
:1013200009F095EF09F0BDEF09F034C02AF028501C
:10133000D96EDA6ADF500F0B296E2A502918F80B84
:1013400029182A6E2850D96EDA6ADF38070B296E01
:101350002946294629462A502918C70B29182A6EDA
:101360002A9C2850D96EDA6ADFAE02D02A8E01D0CC
:101370002A9E2A0E236E12EC09F012002B50D8B4CC
:10138000C4EF09F0C6EF09F0D6EF09F02B50D96E83
:10139000DA6ADF30E832E832070B2C6E070E2C6475
:1013A000D4EF09F0D6EF09F0D8EF09F0E9EF09F032
:1013B0002BC023F001EC08F02D6E2BC023F02B5036
:1013C000D96EDA6A000EDFBE010E246E8AEC08F0D8
:1013D0002D6E120035EC0AF0220E286E8BEC09F00F
:1013E000210E286E8BEC09F0200E286E8BEC09F094
:1013F0001F0E286E8BEC09F0060E336E130E326E44
:10140000AE0EE82EFED7322EFCD7332EFAD7ECEFF5
:1014100009F000EF00F0480EF66E140EF76E000EA5
:10142000F86E00EE01F010EE22F00900F5CFEEFFAD
:10143000E550E150FAE1376A366A356A346A000EDF
:10144000F86E0001EAEF09F0800F810F820F830F21
:10145000840F890F8A0F8B0F8C0F8D0F920F930FB4
:10146000940F950F960F32221202220E2E6E53EC1D
:1014700009F0210E2E6E53EC09F0200E2E6E53EC67
:0C14800009F01F0E2E6E53EC09F0120054
:020000040030CA
:0E000000FF02091EFF8181FF0FC00FE00F40BD
:00000001FF
