:04000000A1EF09F073
:10100000003738392F343536373132333423303DD9
:101010002B00010E356E2F50D8B411EF08F013EFEE
:1010200008F023EF08F02F50D96EDA6ADF30E8328B
:10103000E832070B306E070E306421EF08F023EF23
:1010400008F07AEF08F0000E356E90EF08F02F50A0
:10105000D96EDA6ADF30E832E832070B306E010E03
:10106000316E302A36EF08F0D8903136302E34EF1A
:1010700008F03150FF0A326E2F50D96EDA6ADF5015
:10108000070B020DF350150FD96EDA6ADECF33F07D
:10109000DDCF34F033C0D9FF34C0DAFF3250DF1671
:1010A00090EF08F02F50D96EDA6ADF30E832E8327C
:1010B000070B306E010E316E302A61EF08F0D890C8
:1010C0003136302E5FEF08F02F50D96EDA6ADF50DC
:1010D000070B020DF350150FD96EDA6ADECF32F02E
:1010E000DDCF33F032C0D9FF33C0DAFF3150DF1229
:1010F00090EF08F02F50D96EDA6ADFBC82EF08F06B
:1011000085EF08F0010E86EF08F0000E000AD8B453
:1011100027EF08F0010AD8B452EF08F023EF08F0E7
:1011200035501200010E366E2F50D8B49AEF08F0E9
:101130009CEF08F0ACEF08F02F50D96EDA6ADF3080
:10114000E832E832070B316E070E3164AAEF08F07F
:10115000ACEF08F003EF09F0000E366E18EF09F05F
:101160002F50D96EDA6ADF30E832E832070B316E81
:10117000010E326E312ABFEF08F0D8903236312E90
:10118000BDEF08F03250FF0A336E2F50D96EDA6A85
:10119000DF50070B020DF3500B0FD96EDA6ADECF6A
:1011A00034F0DDCF35F034C0D9FF35C0DAFF33502D
:1011B000DF1618EF09F02F50D96EDA6ADF30E83207
:1011C000E832070B316E010E326E312AEAEF08F079
:1011D000D8903236312EE8EF08F02F50D96EDA6A07
:1011E000DF50070B020DF3500B0FD96EDA6ADECF1A
:1011F00033F0DDCF34F033C0D9FF34C0DAFF3250E2
:10120000DF1218EF09F03050316E326A3250000AA6
:10121000D8B40DEF09F0ACEF08F03150000AD8B4A3
:10122000B0EF08F0010AD8B4DBEF08F0ACEF08F03B
:10123000365012003750D8B420EF09F022EF09F0F1
:1012400032EF09F03750D96EDA6ADF30E832E8322F
:10125000070B386E070E386430EF09F032EF09F0F3
:1012600036EF09F0000E396E47EF09F037C02FF066
:1012700009EC08F0396E37C02FF03750D96EDA6AB2
:10128000000EDFBE010E306E92EC08F0396E395060
:101290001200000E3C6E3A50D8A451EF09F053EF03
:1012A00009F057EF09F0000E3B6E73EF09F03AC0FA
:1012B00037F01AEC09F03B6E3A28376E1AEC09F059
:1012C0003B6E000E3C6E3A503C24020F376E1AEC17
:1012D00009F03B6E3C2A070E3C6471EF09F073EF96
:1012E00009F063EF09F03B501200000E3C6E3A50DB
:1012F000D8A47DEF09F07FEF09F083EF09F0000E2D
:101300003B6E9FEF09F03AC037F01AEC09F03B6EE4
:101310003A28376E1AEC09F03B6E000E3C6E3A50DC
:101320003C24020F376E1AEC09F03B6E3C2A030E88
:101330003C649DEF09F09FEF09F08FEF09F03B50FF
:101340001200780EF66E130EF76E000EF86E00EEB9
:1013500001F010EE2EF00900F5CFEEFFE550E15060
:10136000FAE100EE3DF0070EEE6AE806FDE1000E40
:10137000F86E0001DEEF09F0800F810F820F830FFE
:10138000840F890F8A0F8B0F8C0F8D0F920F930F85
:10139000940F950F960F323A030B131B232B333BFD
:1013A000020A121A222A290E3A6E75EC09F0446ECE
:1013B0001F0E3A6E49EC09F0446E1200E4EC09F09D
:0E13C000E0EF09F000EF00F0D3EC09F01200AE
:020000040030CA
:0E000000FF02091EFF8181FF0FC00FE00F40BD
:00000001FF
