:04000000C7EF01F055
:100008005482FACF48F0FBCF49F0D9CF4AF0DACF83
:100018004BF0F2A812EF00F014EF00F01DEF00F023
:10002800F2A219EF00F01BEF00F01DEF00F0A7ECB3
:100038000CF0F0A622EF00F024EF00F02DEF00F016
:10004800F0A029EF00F02BEF00F02DEF00F0A5EC69
:100058000CF0F0A832EF00F034EF00F03DEF00F0C4
:10006800F0A239EF00F03BEF00F03DEF00F0A3EC19
:100078000CF0F2A642EF00F044EF00F05FEF00F062
:10008800F2A049EF00F04BEF00F05FEF00F081A81D
:1000980050EF00F052EF00F05FEF00F05304D8A4E7
:1000A80058EF00F05AEF00F05FEF00F0000E536ECB
:1000B800010E7EEC0CF0F2A664EF00F066EF00F0A3
:1000C80081EF00F0F2A06BEF00F06DEF00F081EF30
:1000D80000F081B872EF00F074EF00F081EF00F0EB
:1000E8005350D8A47AEF00F07CEF00F081EF00F0D5
:1000F800010E536E000E7EEC0CF0F2A686EF00F0B7
:1001080088EF00F0A3EF00F0F2A08DEF00F08FEF82
:1001180000F0A3EF00F081AA94EF00F096EF00F052
:10012800A3EF00F05204D8A49CEF00F09EEF00F07B
:10013800A3EF00F0000E526E010E71EC0CF0F2A667
:10014800A8EF00F0AAEF00F0C5EF00F0F2A0AFEFC3
:1001580000F0B1EF00F0C5EF00F081BAB6EF00F0A3
:10016800B8EF00F0C5EF00F05250D8A4BEEF00F091
:10017800C0EF00F0C5EF00F0010E526E000E71ECFA
:100188000CF0F2A6CAEF00F0CCEF00F0E7EF00F0B9
:10019800F2A0D1EF00F0D3EF00F0E7EF00F081AC70
:1001A800D8EF00F0DAEF00F0E7EF00F05104D8A440
:1001B800E0EF00F0E2EF00F0E7EF00F0000E516E24
:1001C800010E64EC0CF0F2A6ECEF00F0EEEF00F09C
:1001D80009EF01F0F2A0F3EF00F0F5EF00F009EFFE
:1001E80001F081BCFAEF00F0FCEF00F009EF01F03C
:1001F8005150D8A402EF01F004EF01F009EF01F02B
:10020800010E516E000E64EC0CF0F2A60EEF01F038
:1002180010EF01F02BEF01F0F2A015EF01F017EF4E
:1002280001F02BEF01F081AE1CEF01F01EEF01F0A1
:100238002BEF01F05004D8A424EF01F026EF01F0D1
:100248002BEF01F0000E506E010E57EC0CF0F2A6E9
:1002580030EF01F032EF01F04DEF01F0F2A037EF8F
:1002680001F039EF01F04DEF01F081BE3EEF01F0F2
:1002780040EF01F04DEF01F05050D8A446EF01F0E7
:1002880048EF01F04DEF01F0010E506E000E57ECF3
:100298000CF09DAC52EF01F054EF01F05DEF01F06E
:1002A8009EAC59EF01F05BEF01F05DEF01F0ABECB4
:1002B8000CF0F2AA62EF01F064EF01F06DEF01F0CB
:1002C800F2A469EF01F06BEF01F06DEF01F097EC2C
:1002D8000CF09DA072EF01F074EF01F07DEF01F0DA
:1002E8009EA079EF01F07BEF01F07DEF01F091EC3A
:1002F8000CF09DA282EF01F084EF01F08DEF01F088
:100308009EA289EF01F08BEF01F08DEF01F09DECDB
:100318000CF0A0A292EF01F094EF01F09DEF01F034
:10032800A1A299EF01F09BEF01F09DEF01F08BEC9A
:100338000CF09DA4A2EF01F0A4EF01F0ADEF01F0E5
:100348009EA4A9EF01F0ABEF01F0ADEF01F01DECB9
:100358000CF0A0A0B2EF01F0B4EF01F0BDEF01F096
:10036800A1A0B9EF01F0BBEF01F0BDEF01F0A9ECDE
:100378000CF04BC0DAFF4AC0D9FF49C0FBFF48C0A8
:0A038800FAFF54921100C4EF0BF0CD
:10100000003738392F343536373132333423303DD9
:051010002B2569000022
:101016000001A151D8A412EF08F014EF08F018EF60
:1010260008F0000EA36FD4EF08F0A151D96EDA6A6A
:101036000A0ED926DF50D8A423EF08F025EF08F0D2
:1010460029EF08F0F00EBD1638EF08F0A151D96E61
:10105600DA6A0A0ED926DE04D8A434EF08F036EF91
:1010660008F038EF08F0F00EBA16A151D96EDA6A18
:10107600070ED926DF50D8A443EF08F045EF08F055
:101086007FEF08F061EF08F0BD50F00B0409BD6E6C
:1010960079EF08F0BD50F00B0509BD6E79EF08F049
:1010A600BD50F00B0609BD6E79EF08F0BD50F00B90
:1010B6000709BD6E79EF08F079EF08F0A151D96EF6
:1010C600DA6A080ED926DF50040AD8B447EF08F0CA
:1010D600010AD8B44DEF08F0030AD8B453EF08F06C
:1010E600010AD8B459EF08F05FEF08F0A1C04CF040
:1010F6005CEC0BF0C8EF08F0A151D96EDA6A070E66
:10110600D926DE04D8A48AEF08F08CEF08F0C8EFE1
:1011160008F0ACEF08F0BD50F00B0809BD6E79EF92
:1011260008F0BD50F00B0909BD6E79EF08F0BD500F
:10113600F00B0209BD6E79EF08F0BD50F00B0A09FD
:10114600BD6E79EF08F0BD50F00B0B09BD6E79EF5F
:1011560008F0A151D96EDA6A080ED926DF50020AC4
:10116600D8B49AEF08F00A0AD8B48EEF08F0010A4C
:10117600D8B494EF08F0030AD8B4A0EF08F0010A37
:10118600D8B4A6EF08F05FEF08F00001A151090FEF
:101196004F6E91EC0BF0A1C04CF0F5EC0BF000019A
:1011A600A36FA3511200010E4D6E4C50D8B4DEEF62
:1011B60008F0E0EF08F0F1EF08F04C50D96EDA6A6B
:1011C600DF30E832E832070B00019A6F070E9A65A6
:1011D600EFEF08F0F1EF08F04AEF09F0000E4D6E60
:1011E60060EF09F04C50D96EDA6ADF30E832E83247
:1011F600070B9A6F010E9B6F9A2B04EF09F0D8909C
:101206009B379A2F02EF09F000019B51FF0A9C6F52
:101216004C50D96EDA6ADF50070B020DF350740F8B
:10122600D96EDA6ADECF9DF0DDCF9EF09DC0D9FF84
:101236009EC0DAFF9C51DF1660EF09F04C50D96E64
:10124600DA6ADF30E832E832070B9A6F010E9B6FDD
:101256009A2B30EF09F0D8909B379A2F2EEF09F092
:101266004C50D96EDA6ADF50070B020DF350740F3B
:10127600D96EDA6ADECF9CF0DDCF9DF09CC0D9FF37
:101286009DC0DAFF00019B51DF1260EF09F04C5060
:10129600D96EDA6ADFBC52EF09F055EF09F0010E9C
:1012A60056EF09F0000E000AD8B4F5EF08F0010A6F
:1012B600D8B421EF09F0F1EF08F04D501200010EFD
:1012C6004E6E4C50D8B46AEF09F06CEF09F07DEF22
:1012D60009F04C50D96EDA6ADF30E832E832070B93
:1012E60000019A6F070E9A657BEF09F07DEF09F012
:1012F600D6EF09F0000E4E6EEBEF09F04C50D96EAA
:10130600DA6ADF30E832E832070B9A6F010E9B6F1C
:101316009A2B90EF09F0D8909B379A2F8EEF09F011
:1013260000019B51FF0A9C6F4C50D96EDA6ADF5060
:10133600070B020DF3506A0FD96EDA6ADECF9DF005
:10134600DDCF9EF09DC0D9FF9EC0DAFF9C51DF160F
:10135600EBEF09F04C50D96EDA6ADF30E832E8324A
:10136600070B9A6F010E9B6F9A2BBCEF09F0D89072
:101376009B379A2FBAEF09F04C50D96EDA6ADF50D4
:10138600070B020DF3506A0FD96EDA6ADECF9CF0B6
:10139600DDCF9DF09CC0D9FF9DC0DAFF00019B51B7
:1013A600DF12EBEF09F04D509A6F9B6B9B51000AD1
:1013B600D8B4E0EF09F07DEF09F09A51000AD8B4ED
:1013C60081EF09F0010AD8B4ADEF09F07DEF09F01D
:1013D6004E501200010E00019A6F4D50D8A4F6EF40
:1013E60009F0F8EF09F0FCEF09F0000E9A6F39EFFB
:1013F6000AF0B1904D50D96EDA6A050ED926DF5043
:10140600030B4E6E4E3AB1504E18CF0B4E18B16EBE
:101416004DC04CF03CEC0AF04D50D96EDA6A030E22
:10142600D926DECF4EF0DDCF4FF04FC04EF04F6ADB
:101436004E50B36E4D50D96EDA6A030ED926DF5080
:10144600B26E4D50D96EDA6A030ED926DECF0BF096
:10145600DDCF0CF0A082A1924D50D96EDA6ADECFB4
:101466000DF0DDCF0EF0F28EF28CB18000019A51B4
:1014760012004C50D96EDA6A050ED926DFB446EF53
:101486000AF048EF0AF04BEF0AF0B19276EF0AF055
:101496004C50D96EDA6A050ED926DFA455EF0AF04C
:1014A60057EF0AF076EF0AF0B1824C50D96EDA6A3D
:1014B600050ED926DFA662EF0AF064EF0AF067EFA1
:1014C6000AF0B18476EF0AF04C50D96EDA6A050E4E
:1014D600D926DFB671EF0AF073EF0AF076EF0AF05D
:1014E600B19476EF0AF01200010E00019A6F4DC01A
:1014F6009BF04EC09CF04C50D8A484EF0AF086EFC7
:101506000AF08AEF0AF0000E9A6FB0EF0AF04C501C
:10151600D96EDA6A0A0ED926DF50D8A495EF0AF0FA
:1015260097EF0AF09DEF0AF09BC0BEFF9CC0BFFF7D
:10153600B0EF0AF04C50D96EDA6A0A0ED926DE04EC
:10154600D8A4A8EF0AF0AAEF0AF0B0EF0AF09BC001
:10155600BBFF9CC0BCFFB0EF0AF09A511200010E0F
:10156600456E42C046F043C047F04150D8A4BEEF96
:101576000AF0C0EF0AF0C4EF0AF0000E456EEAEF7B
:101586000AF04150D96EDA6A0A0ED926DF50D8A47D
:10159600CFEF0AF0D1EF0AF0D7EF0AF046C0BEFF50
:1015A60047C0BFFFEAEF0AF04150D96EDA6A0A0E69
:1015B600D926DE04D8A4E2EF0AF0E4EF0AF0EAEF57
:1015C6000AF046C0BBFF47C0BCFFEAEF0AF0455031
:1015D60012004A0E00018F6F160E906F000E996F63
:1015E600010E966F080E976F020E976F9851F80BC3
:1015F6000209986F9851C70B1009986F989D8F0E26
:101606004C6E920E4E6E7C0E4D6E77EC0AF08F0E7F
:101616000001A16F0BEC08F0000E3B6E000E3C6E55
:101626004094000E3D6EFC0E4016000E3F6E000EFE
:101636003E6E40983B0E4D6EEDEC09F021EF0BF03F
:10164600C7EF01F0312A3B0E416E000E436E000ECD
:10165600426E34EC0CF03104D8A434EF0BF036EFC4
:101666000BF044EF0BF08F0E416E300E436ED40E2E
:10167600426EB2EC0AF0BD50F00B0909BD6E5BEF8D
:101686000BF0020E3118D8A44BEF0BF04DEF0BF018
:101696005BEF0BF08F0E416E920E436E7C0E426E28
:1016A600B2EC0AF0BD50F00B0809BD6E000E316EAB
:1016B60012004C50D96EDA6A060ED926DF50D8A42D
:1016C60067EF0BF069EF0BF06DEF0BF0B196B19C85
:1016D60090EF0BF04C50D96EDA6A060ED926DE046E
:1016E600D8A478EF0BF07AEF0BF07EEF0BF0B18613
:1016F600B19C90EF0BF04C50D96EDA6A060ED926E3
:10170600020EDE18D8A48AEF0BF08CEF0BF090EFE8
:101716000BF0B196B18C90EF0BF012004F50D8B48D
:1017260097EF0BF099EF0BF0AAEF0BF04F50D96E35
:10173600DA6ADF30E832E832070B00019F6F070EE6
:101746009F65A8EF0BF0AAEF0BF0AFEF0BF0000EC2
:101756000001A06FC2EF0BF04FC04CF0D6EC08F0C2
:101766000001A06F4FC04CF04F50D96EDA6A000EE0
:10177600DFBE010E4D6E62EC09F00001A06FA051B4
:101786001200900EF66E180EF76E000EF86E00EE52
:1017960060F010EE1EF00900F5CFEEFFE550E150C7
:1017A600FAE1420EF66E190EF76E000EF86E00EEB6
:1017B60050F010EE04F00900F5CFEEFFE550E150D1
:1017C600FAE100EE7EF01C0EEE6AE806FDE100EEA0
:1017D60001F0400EEE6AE806FDE1549054920001D5
:1017E600ECEF0AF0010E4D6E4C50D8A4FDEF0BF055
:1017F600FFEF0BF003EF0CF0000E4D6E1BEF0CF03D
:101806009D849E944C50D96EDA6ADECF09F0DDCF06
:101816000AF0F28EF28CA080A1904C50D96EDA6A52
:10182600030ED926DECF07F0DDCF08F0F28EF28C5C
:101836004D5012009E9409500A10D8B425EF0CF0B2
:1018460027EF0CF033EF0CF002D833EF0CF0050065
:10185600FA6E0950FD6E0A50FE6EFF6AFA501200CB
:101866001200010E446E4150D8A43CEF0CF03EEF3E
:101876000CF042EF0CF0000E446E46EF0CF04350B5
:10188600B36E42C0B2FF44501200800F810F820F28
:10189600830F840F890F8A0F8B0F8C0F8D0F920F7A
:1018A600930F940F950F960F416EF2904150D8A466
:1018B6005FEF0CF061EF0CF063EF0CF063EF0CF0F0
:1018C6001200416EF2904150D8A46CEF0CF06EEF0E
:1018D6000CF070EF0CF070EF0CF01200416EF2900D
:1018E6004150D8A479EF0CF07BEF0CF07DEF0CF0B3
:1018F6007DEF0CF01200416EF2904150D8A486EFB5
:101906000CF088EF0CF08AEF0CF08AEF0CF0120066
:10191600A1920C50B36E0BC0B2FF12009E901250F3
:10192600CF6E11C0CEFF1200F2941650D76E15C0BE
:10193600D6FF12009E9232C0CCFF120001010101B7
:10194600F0921200F0901200F29212009E94120091
:041956009E9C120041
:020000040030CA
:0E000000FF071F1FFF8985FF0FC00FE00F4095
:00000001FF
