:0400000065EF0BF0AD
:101000000000010E326E2C50D8B409EF08F00BEF3F
:1010100008F01BEF08F02C50D96EDA6ADF30E832A6
:10102000E832070B2D6E070E2D6419EF08F01BEF49
:1010300008F072EF08F0000E326E88EF08F02C50C6
:10104000D96EDA6ADF30E832E832070B2D6E010E16
:101050002E6E2D2A2EEF08F0D8902E362D2E2CEF46
:1010600008F02E50FF0A2F6E2C50D96EDA6ADF502E
:10107000070B020DF350150FD96EDA6ADECF30F090
:10108000DDCF31F030C0D9FF31C0DAFF2F50DF168D
:1010900088EF08F02C50D96EDA6ADF30E832E83297
:1010A000070B2D6E010E2E6E2D2A59EF08F0D890E9
:1010B0002E362D2E57EF08F02C50D96EDA6ADF50FD
:1010C000070B020DF350150FD96EDA6ADECF2FF041
:1010D000DDCF30F02FC0D9FF30C0DAFF2E50DF1245
:1010E00088EF08F02C50D96EDA6ADFBC7AEF08F08E
:1010F0007DEF08F0010E7EEF08F0000E000AD8B474
:101100001FEF08F0010AD8B44AEF08F01BEF08F00F
:1011100032501200010E336E2C50D8B492EF08F00A
:1011200094EF08F0A4EF08F02C50D96EDA6ADF30A3
:10113000E832E832070B2E6E070E2E64A2EF08F09D
:10114000A4EF08F0FBEF08F0000E336E10EF09F08B
:101150002C50D96EDA6ADF30E832E832070B2E6E97
:10116000010E2F6E2E2AB7EF08F0D8902F362E2EB4
:10117000B5EF08F02F50FF0A306E2C50D96EDA6AA6
:10118000DF50070B020DF3500B0FD96EDA6ADECF7A
:1011900031F0DDCF32F031C0D9FF32C0DAFF30504C
:1011A000DF1610EF09F02C50D96EDA6ADF30E83222
:1011B000E832070B2E6E010E2F6E2E2AE2EF08F09A
:1011C000D8902F362E2EE0EF08F02C50D96EDA6A28
:1011D000DF50070B020DF3500B0FD96EDA6ADECF2A
:1011E00030F0DDCF31F030C0D9FF31C0DAFF2F5001
:1011F000DF1210EF09F02D502E6E2F6A2F50000ACB
:10120000D8B405EF09F0A4EF08F02E50000AD8B4C6
:10121000A8EF08F0010AD8B4D3EF08F0A4EF08F063
:1012200033501200A9EC0BF0270E326E2A0E336EEB
:101230007AEC09F0226E2A50D8A421EF09F023EFAE
:1012400009F034EF09F03B4A3C2AF50E3B5C010EF5
:101250003C58D8A02EEF09F030EF09F03AEF09F032
:10126000000E246E3AEF09F0000E3C6E000E3B6E4D
:10127000010E246E23502418D8B441EF09F043EF37
:1012800009F014EF09F024C023F02450D8A44BEF48
:1012900009F04DEF09F014EF09F0030E3D18D8A442
:1012A00054EF09F056EF09F058EF09F0000E3D6ECB
:1012B0003D2A67EF09F046EC0BF014EF09F0EEEC75
:1012C0000AF014EF09F0C2EC0AF014EF09F03D50F7
:1012D000010AD8B45BEF09F0030AD8B45FEF09F054
:1012E000010AD8B463EF09F076EF09F014EF09F0C2
:1012F00000EF00F0010E356E000E366E3250D8B49D
:1013000084EF09F086EF09F08EEF09F03350D8A48E
:101310008CEF09F08EEF09F092EF09F0000E356EB8
:10132000D1EF09F032C02CF0360E2D6ED3EC09F05F
:101330003250D96EDA6A020ED926DF50D8A4A3EF54
:1013400009F0A5EF09F0BAEF09F03604D8A4ABEF25
:1013500009F0ADEF09F0B3EF09F03350D96EDA6A56
:10136000DF6AD1EF09F03350D96EDA6A010EDF6E11
:10137000D1EF09F03250D96EDA6A020ED926DE04B6
:10138000D8A4C5EF09F0C7EF09F0D1EF09F0365046
:10139000D8A4CDEF09F0CFEF09F0B3EF09F0ADEF2E
:1013A00009F0355012002C50D8B4D9EF09F0DBEF1A
:1013B00009F0F3EF09F02D50D8B4E1EF09F0E3EFB5
:1013C00009F0F3EF09F02C50D96EDA6ADF30E83219
:1013D000E832070B2E6E070E2E64F1EF09F0F3EFE3
:1013E00009F0F5EF09F01FEF0AF02D50D96EDA6A17
:1013F0002C50E16EE26AE730E832E832070B2E6EDD
:101400002C50E16EE26AE750070B020DF350010F1A
:10141000E16EE26AE6CF2FF0E5CF30F02FC0E1FFBA
:1014200030C0E2FFE750316E2E2A19EF0AF0D89053
:1014300031322E2E17EF0AF03150010BDF6E120001
:10144000010E396E3750D8A428EF0AF02AEF0AF0BF
:101450002EEF0AF0000E396E56EF0AF042C03AF055
:101460003750D96EDA6ADF500F0B386E3A503818A1
:10147000F80B38183A6E3750D96EDA6ADF38070B36
:10148000386E3846384638463A503818C70B381840
:101490003A6E3A9C3750D96EDA6ADFAE02D03A8E95
:1014A00001D03A9E3A0E346E1AEC0BF0395012000D
:1014B0003450D8A45EEF0AF060EF0AF062EF0AF051
:1014C0008CEF0AF041C036F03450D96EDA6ADF5042
:1014D0000F0B356E36503518F80B3518366E345004
:1014E000D96EDA6ADF38070B356E35463546354634
:1014F00036503518C70B3518366E369C3450D96EB9
:10150000DA6ADFAE02D0368E01D0369E360E2C6EF1
:10151000010E2D6E8AEC08F012003450D8A493EF1F
:101520000AF095EF0AF097EF0AF0C1EF0AF040C019
:1015300036F03450D96EDA6ADF500F0B356E365004
:101540003518F80B3518366E3450D96EDA6ADF3834
:10155000070B356E35463546354636503518C70BC0
:101560003518366E369C3450D96EDA6ADFAE02D04A
:10157000368E01D0369E360E2C6E000E2D6E8AEC05
:1015800008F01200000E396E000E396E2B0E346E0C
:1015900058EC0AF0060E386E130E376EAE0EE82EBB
:1015A000FED7372EFCD7382EFAD72B0E346E8DECA3
:1015B0000AF0060E386E130E376EAE0EE82EFED70A
:1015C000372EFCD7382EFAD7392A020E3964EBEFC2
:1015D0000AF0EDEF0AF0C6EF0AF01200000E396EC5
:1015E000000E396E2B0E346E58EC0AF0060E386E73
:1015F000130E376EAE0EE82EFED7372EFCD7382EE0
:10160000FAD72B0E346E8DEC0AF0060E386E130EE0
:10161000376EAE0EE82EFED7372EFCD7382EFAD70F
:10162000392A010E396417EF0BF019EF0BF0F2EFC6
:101630000AF012003450D8B420EF0BF022EF0BF078
:1016400032EF0BF03450D96EDA6ADF30E832E8322C
:10165000070B356E070E356430EF0BF032EF0BF0F1
:1016600034EF0BF045EF0BF034C02CF001EC08F038
:10167000366E34C02CF03450D96EDA6A000EDFBEFC
:10168000010E2D6E8AEC08F0366E12002B0E346EB1
:1016900058EC0AF0060E386E130E376EAE0EE82EBA
:1016A000FED7372EFCD7382EFAD72B0E346E8DECA2
:1016B0000AF0060E386E130E376EAE0EE82EFED709
:1016C000372EFCD7382EFAD71200000EF66E170E02
:1016D000F76E000EF86E00EE01F010EE2BF0090030
:1016E000F5CFEEFFE550E150FAE100EE3BF0080ED9
:1016F000EE6AE806FDE1000EF86E000112EF09F057
:10170000800F810F820F830F840F890F8A0F8B0F39
:101710008C0F8D0F920F930F940F950F960FC3019F
:0B172000010101010112520100010251
:10172C003350D8A49CEF0BF09EEF0BF0A2EF0BF014
:10173C00000E346EA7EF0BF033C02CF001EC08F068
:10174C00346E34501200270E336E96EC0BF02B0EC9
:08175C00376E20EC0AF01200C8
:020000040030CA
:0E000000FF02091EFF8181FF0FC00FE00F40BD
:00000001FF
