:0400000001EF08F014
:1010000000002C0EF66E100EF76E000EF86E00EE5D
:1010100001F010EE22F00900F5CFEEFFE550E150AF
:10102000FAE1000EF86E000146EF08F0800F810F24
:10103000820F830F840F890F8A0F8B0F8C0F8D0FF8
:10104000920F930F940F950F960F32221202220ED9
:10105000236E38EC08F0210E236E38EC08F0200ED9
:10106000236E38EC08F01F0E236E38EC08F01200E7
:10107000010E246E2350D8A440EF08F042EF08F090
:1010800044EF08F0000E246E2450120027EC08F004
:0410900000EF00F07D
:020000040030CA
:0E000000FF02091EFF8181FF0FC00FE00F40BD
:00000001FF
