:040000008BEF08F08A
:101000000000286E010E276E2450D8B40AEF08F0B5
:101010000CEF08F014EF08F0040E286412EF08F04B
:1010200014EF08F018EF08F0000E276E2BEF08F011
:101030002850020DF350150FD96EDA6ADECF25F075
:10104000DDCF26F025C0D9FF26C0DAFF2450E16E9F
:10105000E26ADFCFE7FF27501200286E010E276EED
:10106000040E286436EF08F038EF08F03CEF08F083
:10107000000E276E4CEF08F02850020DF3500B0FB6
:10108000D96EDA6ADECF25F0DDCF26F025C0D9FF94
:1010900026C0DAFF24C0DFFF27501200286E010EA1
:1010A000276E040E286457EF08F059EF08F05DEF43
:1010B00008F0000E276E6DEF08F02850020DF35077
:1010C000150FD96EDA6ADECF25F0DDCF26F025C008
:1010D000D9FF26C0DAFF24C0DFFF27501200266E9A
:1010E000040E266476EF08F078EF08F07AEF08F047
:1010F0008AEF08F02650020DF3500B0FD96EDA6A12
:10110000DECF24F0DDCF25F024C0D9FF25C0DAFFE3
:10111000FF0EDF1A12006E0EF66E110EF76E000E45
:10112000F86E00EE01F010EE23F00900F5CFEEFFAF
:10113000E550E150FAE12D6A2C6A2B6A2A6A000E0A
:10114000F86E0001C9EF08F0000E246E020E4EEC9E
:1011500008F01F6E2D0E246E020E01EC08F01F6EBB
:10116000AA0E246E020E2DEC08F01F6E1200800FE6
:10117000810F820F830F840F890F8A0F8B0F8C0FC3
:101180008D0F920F930F940F950F960F0143120A34
:01119000025C
:10119200A4EC08F0020E6FEC08F0820E296EDE0E4F
:1011A200E82EFED7292EFCD7CBEF08F000EF00F097
:020000040030CA
:0E000000FF02091EFF8181FF0FC00FE00F40BD
:00000001FF
