:040000000CEF0AF007
:101000000000010E276E2150D8B409EF08F00BEF55
:1010100008F01BEF08F02150D96EDA6ADF30E832B1
:10102000E832070B226E070E226419EF08F01BEF5F
:1010300008F072EF08F0000E276E88EF08F02150DC
:10104000D96EDA6ADF30E832E832070B226E010E21
:10105000236E222A2EEF08F0D8902336222E2CEF72
:1010600008F02350FF0A246E2150D96EDA6ADF504F
:10107000070B020DF350150FD96EDA6ADECF25F09B
:10108000DDCF26F025C0D9FF26C0DAFF2450DF16B9
:1010900088EF08F02150D96EDA6ADF30E832E832A2
:1010A000070B226E010E236E222A59EF08F0D8900A
:1010B0002336222E57EF08F02150D96EDA6ADF501E
:1010C000070B020DF350150FD96EDA6ADECF24F04C
:1010D000DDCF25F024C0D9FF25C0DAFF2350DF1271
:1010E00088EF08F02150D96EDA6ADFBC7AEF08F099
:1010F0007DEF08F0010E7EEF08F0000E000AD8B474
:101100001FEF08F0010AD8B44AEF08F01BEF08F00F
:1011100027501200010E286E2150D8B492EF08F02B
:1011200094EF08F0A4EF08F02150D96EDA6ADF30AE
:10113000E832E832070B236E070E2364A2EF08F0B3
:10114000A4EF08F0FBEF08F0000E286E10EF09F096
:101150002150D96EDA6ADF30E832E832070B236EAD
:10116000010E246E232AB7EF08F0D8902436232EE0
:10117000B5EF08F02450FF0A256E2150D96EDA6AC7
:10118000DF50070B020DF3500B0FD96EDA6ADECF7A
:1011900026F0DDCF27F026C0D9FF27C0DAFF255083
:1011A000DF1610EF09F02150D96EDA6ADF30E8322D
:1011B000E832070B236E010E246E232AE2EF08F0BB
:1011C000D8902436232EE0EF08F02150D96EDA6A49
:1011D000DF50070B020DF3500B0FD96EDA6ADECF2A
:1011E00025F0DDCF26F025C0D9FF26C0DAFF245038
:1011F000DF1210EF09F02250236E246A2450000AF7
:10120000D8B405EF09F0A4EF08F02350000AD8B4D1
:10121000A8EF08F0010AD8B4D3EF08F0A4EF08F063
:1012200028501200010E2E6E2C50D8A41AEF09F08F
:101230001CEF09F020EF09F0000E2E6E48EF09F0C8
:1012400034C02FF02C50D96EDA6ADF500F0B2D6EA0
:101250002F502D18F80B2D182F6E2C50D96EDA6ADE
:10126000DF38070B2D6E2D462D462D462F502D189D
:10127000C70B2D182F6E2F9C2C50D96EDA6ADFAE5B
:1012800002D02F8E01D02F9E2F0E296EE0EC09F098
:101290002E5012002950D8A450EF09F052EF09F057
:1012A00054EF09F07EEF09F033C02BF02950D96ECE
:1012B000DA6ADF500F0B2A6E2B502A18F80B2A1807
:1012C0002B6E2950D96EDA6ADF38070B2A6E2A4650
:1012D0002A462A462B502A18C70B2A182B6E2B9CFD
:1012E0002950D96EDA6ADFAE02D02B8E01D02B9E48
:1012F0002B0E216E010E226E8AEC08F0120029508E
:10130000D8A485EF09F087EF09F089EF09F0B3EF72
:1013100009F032C02BF02950D96EDA6ADF500F0B7A
:101320002A6E2B502A18F80B2A182B6E2950D96ECA
:10133000DA6ADF38070B2A6E2A462A462A462B50DD
:101340002A18C70B2A182B6E2B9C2950D96EDA6AE3
:10135000DFAE02D02B8E01D02B9E2B0E216E000E05
:10136000226E8AEC08F0120037EC0AF0200E296E8B
:101370004AEC09F01F0E296E7FEC09F0330E316E36
:10138000BB0E306EE00EE82EFED7302EFCD7312E8D
:10139000FAD71F0E296E4AEC09F0200E296E7FEC59
:1013A00009F0330E316EBB0E306EE00EE82EFED724
:1013B000302EFCD7312EFAD7B6EF09F000EF00F04F
:1013C0002950D8B4E6EF09F0E8EF09F0F8EF09F09A
:1013D0002950D96EDA6ADF30E832E832070B2A6E1C
:1013E000070E2A64F6EF09F0F8EF09F0FAEF09F0BA
:1013F0000BEF0AF029C021F001EC08F02B6E29C098
:1014000021F02950D96EDA6A000EDFBE010E226E7D
:101410008AEC08F02B6E12004E0EF66E140EF76E6C
:10142000000EF86E00EE01F010EE20F00900F5CF8E
:10143000EEFFE550E150FAE100EE32F0070EEE6A01
:10144000E806FDE1000EF86E0001B4EF09F0800F30
:10145000810F820F830F840F890F8A0F8B0F8C0FE0
:101460008D0F920F930F940F950F960F1202200E6F
:101470002C6E12EC09F0396E1F0E2C6E12EC09F076
:04148000396E1200AF
:020000040030CA
:0E000000FF02091EFF8181FF0FC00FE00F40BD
:00000001FF
