:040000004FEF01F0CD
:100008005982FACF4DF0FBCF4EF0F2A80EEF00F078
:1000180010EF00F019EF00F0F2A215EF00F017EF63
:1000280000F019EF00F0B9EC0CF0F0A61EEF00F0AC
:1000380020EF00F029EF00F0F0A025EF00F027EF07
:1000480000F029EF00F0A2EC0CF0F0A82EEF00F081
:1000580030EF00F039EF00F0F0A235EF00F037EFA5
:1000680000F039EF00F08BEC0CF0F2A63EEF00F058
:1000780040EF00F05BEF00F0F2A045EF00F047EF33
:1000880000F05BEF00F081A84CEF00F04EEF00F0BD
:100098005BEF00F02204D8A454EF00F056EF00F014
:1000A8005BEF00F0000E226E010E75EC0DF0F2A66B
:1000B80060EF00F062EF00F07DEF00F0F2A067EF74
:1000C80000F069EF00F07DEF00F081B86EEF00F00E
:1000D80070EF00F07DEF00F02250D8A476EF00F02A
:1000E80078EF00F07DEF00F0010E226E000E75EC47
:1000F8000DF0F2A682EF00F084EF00F09FEF00F021
:10010800F2A089EF00F08BEF00F09FEF00F081AADA
:1001180090EF00F092EF00F09FEF00F02104D8A4D8
:1001280098EF00F09AEF00F09FEF00F0000E216EBC
:10013800010E68EC0DF0F2A6A4EF00F0A6EF00F0B7
:10014800C1EF00F0F2A0ABEF00F0ADEF00F0C1EFAF
:1001580000F081BAB2EF00F0B4EF00F0C1EF00F0A8
:100168002150D8A4BAEF00F0BCEF00F0C1EF00F0C6
:10017800010E216E000E68EC0DF0F2A6C6EF00F03D
:10018800C8EF00F0E3EF00F0F2A0CDEF00F0CFEF02
:1001980000F0E3EF00F081ACD4EF00F0D6EF00F010
:1001A800E3EF00F02004D8A4DCEF00F0DEEF00F06D
:1001B800E3EF00F0000E206E010E5BEC0DF0F2A6EE
:1001C800E8EF00F0EAEF00F005EF01F0F2A0EFEF42
:1001D80000F0F1EF00F005EF01F081BCF6EF00F060
:1001E800F8EF00F005EF01F02050D8A4FEEF00F082
:1001F80000EF01F005EF01F0010E206E000E5BEC40
:100208000DF0F2A60AEF01F00CEF01F027EF01F074
:10021800F2A011EF01F013EF01F027EF01F081AE2A
:1002280018EF01F01AEF01F027EF01F01F04D8A42E
:1002380020EF01F022EF01F027EF01F0000E1F6E12
:10024800010E4EEC0DF0F2A62CEF01F02EEF01F0AE
:1002580049EF01F0F2A033EF01F035EF01F049EF7B
:1002680001F081BE3AEF01F03CEF01F049EF01F0F7
:100278001F50D8A442EF01F044EF01F049EF01F01C
:10028800010E1F6E000E4EEC0DF04EC0FBFF4DC070
:0A029800FAFF5992110070EF0CF00C
:10100000003738392F343536373132333423303DD9
:051010002B2569000022
:101016004F50D8A411EF08F013EF08F075EF08F061
:1010260093EF08F04F50D96EDA6A030ED926DF50D7
:10103600D8A420EF08F022EF08F025EF08F0F19C85
:1010460093EF08F04F50D96EDA6A030ED926DE0404
:10105600D8A430EF08F032EF08F093EF08F0F18CE7
:1010660093EF08F04F50D96EDA6A030ED926DF5097
:10107600D8A440EF08F042EF08F045EF08F0F19AE7
:1010860093EF08F04F50D96EDA6A030ED926DE04C4
:10109600D8A450EF08F052EF08F093EF08F0F18A69
:1010A60093EF08F04F50D96EDA6A030ED926DF5057
:1010B600D8A460EF08F062EF08F065EF08F0F19849
:1010C60093EF08F04F50D96EDA6A030ED926DE0484
:1010D600D8A470EF08F072EF08F093EF08F0F188EB
:1010E60093EF08F04F50D96EDA6A040ED926DF5016
:1010F600506E516A5150000AD8B484EF08F013EFCD
:1011060008F05050000AD8B415EF08F0010AD8B418
:1011160035EF08F0030AD8B455EF08F013EF08F0DE
:10112600000E1200010E556E4F50D8B49DEF08F018
:101136009FEF08F0AFEF08F04F50D96EDA6ADF3054
:10114600E832E832070B506E070E5064ADEF08F038
:10115600AFEF08F006EF09F0000E556E1CEF09F030
:101166004F50D96EDA6ADF30E832E832070B506E3C
:10117600010E516E502AC2EF08F0D8905136502E0B
:10118600C0EF08F05150FF0A526E4F50D96EDA6A1E
:10119600DF50070B020DF350150FD96EDA6ADECF5A
:1011A60053F0DDCF54F053C0D9FF54C0DAFF52508C
:1011B600DF161CEF09F04F50D96EDA6ADF30E832DD
:1011C600E832070B506E010E516E502AEDEF08F013
:1011D600D8905136502EEBEF08F04F50D96EDA6AA0
:1011E600DF50070B020DF350150FD96EDA6ADECF0A
:1011F60052F0DDCF53F052C0D9FF53C0DAFF515041
:10120600DF121CEF09F04F50D96EDA6ADFBC0EEF21
:1012160009F011EF09F0010E12EF09F0000E000AB5
:10122600D8B4B3EF08F0010AD8B4DEEF08F0AFEF98
:1012360008F055501200010E566E4F50D8B426EFE6
:1012460009F028EF09F038EF09F04F50D96EDA6A45
:10125600DF30E832E832070B516E070E516436EF85
:1012660009F038EF09F08FEF09F0000E566EA4EF83
:1012760009F04F50D96EDA6ADF30E832E832070BF0
:10128600516E010E526E512A4BEF09F0D89052362C
:10129600512E49EF09F05250FF0A536E4F50D96E46
:1012A600DA6ADF50070B020DF3500B0FD96EDA6ABC
:1012B600DECF54F0DDCF55F054C0D9FF55C0DAFF6C
:1012C6005350DF16A4EF09F04F50D96EDA6ADF30BB
:1012D600E832E832070B516E010E526E512A76EF54
:1012E60009F0D8905236512E74EF09F04F50D96E4E
:1012F600DA6ADF50070B020DF3500B0FD96EDA6A6C
:10130600DECF53F0DDCF54F053C0D9FF54C0DAFF1F
:101316005250DF12A4EF09F05050516E526A5250EB
:10132600000AD8B499EF09F038EF09F05150000AD5
:10133600D8B43CEF09F0010AD8B467EF09F038EFEA
:1013460009F0565012005250D8A4ACEF09F0AEEF97
:1013560009F0D6EF09F0000E556EF4EF09F0525081
:10136600D96EDA6ADECF4FF0DDCF50F025EC0DF006
:10137600556EF4EF09F05250D96EDA6ADECF4FF0AF
:10138600DDCF50F010EC0DF0556EF4EF09F0525031
:10139600D96EDA6ADECF4FF0DDCF50F0FBEC0CF001
:1013A600556EF4EF09F05250D96EDA6A040ED9265A
:1013B600DF50536E546A5450000AD8B4E5EF09F072
:1013C600AEEF09F05350000AD8B4B2EF09F0010AA3
:1013D600D8B4BEEF09F0030AD8B4CAEF09F0AEEFED
:1013E60009F0555012002A0E0001626F36EC0AF021
:1013F600586E290E0001626F36EC0AF0586E230E05
:101406000001606F4BEC0BF0586E030E506EE00E51
:101416004F6E480E516E51EC0CF0586E4804D8A42D
:1014260017EF0AF019EF0AF01DEF0AF009EC0CF0BD
:1014360011EF0AF0020E4818D8A424EF0AF026EF9E
:101446000AF02AEF0AF0E4EC0BF011EF0AF02A0E8C
:10145600576EE1EC0AF0290E576EE1EC0AF011EF37
:101466000AF04FEF01F0010E0001646F6251D8A43B
:101476003FEF0AF041EF0AF045EF0AF0000E646F05
:101486006EEF0AF047C065F06251D96EDA6ADF5036
:101496000F0B636F65516319F80B6319656F625122
:1014A600D96EDA6ADF38070B636F634763476347B2
:1014B60065516319C70B6319656F659D6251D96ED6
:1014C600DA6ADFAE02D0658F02D00001659F650E35
:1014D600576E18EC0BF00001645112004F50D8A45F
:1014E60077EF0AF079EF0AF08AEF0AF0A8EF0AF030
:1014F600F28EF28CF288A8EF0AF0F28EF28CF08669
:10150600A8EF0AF0F28EF28CF088A8EF0AF04F509E
:10151600D96EDA6A040ED926DF50506E516A5150E0
:10152600000AD8B499EF0AF079EF0AF05050000A91
:10153600D8B47BEF0AF0010AD8B480EF0AF0030AA8
:10154600D8B485EF0AF079EF0AF0000E1200575072
:10155600D8A4B0EF0AF0B2EF0AF0B4EF0AF0E0EF69
:101566000AF046C061F05750D96EDA6ADF500F0BA9
:101576000001606F61516019F80B6019616F575077
:10158600D96EDA6ADF38070B606F604760476047DD
:1015960061516019C70B6019616F619D5750D96E13
:1015A600DA6ADFAE02D0618F02D00001619F610E60
:1015B6004F6E010E506E1EEC09F012005750D8A463
:1015C600E7EF0AF0E9EF0AF0EBEF0AF017EF0BF09E
:1015D60045C061F05750D96EDA6ADF500F0B000133
:1015E600606F61516019F80B6019616F5750D96EC1
:1015F600DA6ADF38070B606F604760476047615102
:101606006019C70B6019616F619D5750D96EDA6A10
:10161600DFAE02D0618F02D00001619F610E4F6E76
:10162600000E506E1EEC09F012005750D8B41EEF93
:101636000BF020EF0BF031EF0BF05750D96EDA6A52
:10164600DF30E832E832070B0001606F070E606595
:101656002FEF0BF031EF0BF036EF0BF0000E000121
:10166600616F49EF0BF057C04FF095EC08F00001A1
:10167600616F57C04FF05750D96EDA6A000EDFBE61
:10168600010E506E1EEC09F00001616F61511200EF
:1016960000016051D8A452EF0BF054EF0BF058EF55
:1016A6000BF0000E616F7CEF0BF060C04FF07EEC2C
:1016B6000BF00001616F60C04FF0B1EC0BF0000160
:1016C600611360C04FF00BEC08F00001611360C0BD
:1016D60056F03AEC0DF00001611360C052F0A6EC32
:1016E60009F00001611360C04FF071EC0AF00001CF
:1016F6006113615112004F50D8A484EF0BF086EFAE
:101706000BF091EF0BF0AFEF0BF0F298AFEF0BF0A1
:10171600F096AFEF0BF0F098AFEF0BF04F50D96E9D
:10172600DA6A040ED926DF50506E516A5150000A0B
:10173600D8B4A0EF0BF086EF0BF05050000AD8B4E7
:1017460088EF0BF0010AD8B48BEF0BF0030AD8B47C
:101756008EEF0BF086EF0BF0000E12004F50D8A460
:10176600B7EF0BF0B9EF0BF0C4EF0BF0E2EF0BF0B5
:10177600F292E2EF0BF0F090E2EF0BF0F092E2EF74
:101786000BF04F50D96EDA6A040ED926DF50506E30
:10179600516A5150000AD8B4D3EF0BF0B9EF0BF0F1
:1017A6005050000AD8B4BBEF0BF0010AD8B4BEEF14
:1017B6000BF0030AD8B4C1EF0BF0B9EF0BF0000E33
:1017C6001200290E576EAAEC0AF0030E0001636F91
:1017D6008A0E626F550EE82EFED7622FFCD7632F56
:1017E600FAD700F000F0290E576EE1EC0AF0030E6E
:1017F6000001636F8A0E626F550EE82EFED7622FC8
:10180600FCD7632FFAD700F000F012002A0E576EAD
:10181600AAEC0AF0030E0001636F8A0E626F550E82
:10182600E82EFED7622FFCD7632FFAD700F000F020
:101836002A0E576EE1EC0AF0030E0001636F8A0E62
:10184600626F550EE82EFED7622FFCD7632FFAD7AC
:1018560000F000F01200000EF2BE010E4C6E4A506F
:10186600030BAA6E49C0A9FF4BC0A8FFA69EA69C63
:10187600A684F29E550EA76EAA0EA76EA682A6B2E3
:1018860047EF0CF049EF0CF042EF0CF0A6944CB089
:1018960002D0F29E01D0F28E010E1200010E526E9F
:1018A6005150D8A459EF0CF05BEF0CF05FEF0CF041
:1018B600000E526E6EEF0CF05050030BAA6E4FC026
:1018C600A9FFA69EA69CA680000000005150D96ED6
:1018D600DA6AA8CFDFFF52501200CC0EF66E190E50
:1018E600F76E000EF86E00EE01F010EE2AF0090019
:1018F600F5CFEEFFE550E150FAE100EE2BF01E0EBB
:10190600EE6AE806FDE1599059920001F6EF09F0FA
:10191600F0923B503C10D8B493EF0CF095EF0CF0DE
:10192600A1EF0CF002D8A1EF0CF00500FA6E3B50C7
:10193600FD6E3C50FE6EFF6AFA5012001200F090E7
:101946003D503E10D8B4AAEF0CF0ACEF0CF0B8EF57
:101956000CF002D8B8EF0CF00500FA6E3D50FD6EA3
:101966003E50FE6EFF6AFA5012001200F2923F508D
:101976004010D8B4C1EF0CF0C3EF0CF0CFEF0CF071
:1019860002D8CFEF0CF00500FA6E3F50FD6E4050C6
:10199600FE6EFF6AFA5012001200482A030E48181B
:1019A600D8A4D8EF0CF0DAEF0CF0DCEF0CF0000E58
:1019B600486E030E4A6EE00E496E48C04BF02EECA0
:1019C6000CF0586E1200800F810F820F830F840F68
:1019D600890F8A0F8B0F8C0F8D0F920F930F940F19
:1019E600950F960F01010101A01941010001130392
:1019F600010E516E4F505010D8A404EF0DF006EFB3
:101A06000DF00AEF0DF0000E516E0EEF0DF04FC007
:101A16003BF050C03CF051501200010E516E4F5039
:101A26005010D8A419EF0DF01BEF0DF01FEF0DF0BD
:101A3600000E516E23EF0DF04FC03DF050C03EF04A
:101A460051501200010E516E4F505010D8A42EEF77
:101A56000DF030EF0DF034EF0DF0000E516E38EF53
:101A66000DF04FC03FF050C040F05150120056509C
:101A7600D8A440EF0DF042EF0DF046EF0DF0000E4A
:101A8600576E4CEF0DF05650020F4F6E95EC08F066
:101A9600576E57501200496EF2904950D8A456EF2F
:101AA6000DF058EF0DF05AEF0DF05AEF0DF0120051
:101AB600496EF2904950D8A463EF0DF065EF0DF032
:101AC60067EF0DF067EF0DF01200496EF290495086
:101AD600D8A470EF0DF072EF0DF074EF0DF074EF07
:101AE6000DF01200496EF2904950D8A47DEF0DF02A
:0E1AF6007FEF0DF081EF0DF081EF0DF012008B
:020000040030CA
:0E000000FF071F1FFF8985FF0FC00FE00F4095
:00000001FF
