:040000007FEF01F09D
:100008005C82FACF4DF0FBCF4EF0F2A80EEF00F075
:1000180010EF00F019EF00F0F2A215EF00F017EF63
:1000280000F019EF00F0F7EC0AF0F0A61EEF00F070
:1000380020EF00F029EF00F0F0A025EF00F027EF07
:1000480000F029EF00F0F5EC0AF0F0A82EEF00F030
:1000580030EF00F039EF00F0F0A235EF00F037EFA5
:1000680000F039EF00F0F3EC0AF0F2A63EEF00F0F2
:1000780040EF00F05BEF00F0F2A045EF00F047EF33
:1000880000F05BEF00F081A84CEF00F04EEF00F0BD
:100098005BEF00F04A04D8A454EF00F056EF00F0EC
:1000A8005BEF00F0000E4A6E010ECEEC0AF0F2A6ED
:1000B80060EF00F062EF00F07DEF00F0F2A067EF74
:1000C80000F069EF00F07DEF00F081B86EEF00F00E
:1000D80070EF00F07DEF00F04A50D8A476EF00F002
:1000E80078EF00F07DEF00F0010E4A6E000ECEECC6
:1000F8000AF0F2A682EF00F084EF00F09FEF00F024
:10010800F2A089EF00F08BEF00F09FEF00F081AADA
:1001180090EF00F092EF00F09FEF00F04904D8A4B0
:1001280098EF00F09AEF00F09FEF00F0000E496E94
:10013800010EC1EC0AF0F2A6A4EF00F0A6EF00F061
:10014800C1EF00F0F2A0ABEF00F0ADEF00F0C1EFAF
:1001580000F081BAB2EF00F0B4EF00F0C1EF00F0A8
:100168004950D8A4BAEF00F0BCEF00F0C1EF00F09E
:10017800010E496E000EC1EC0AF0F2A6C6EF00F0BF
:10018800C8EF00F0E3EF00F0F2A0CDEF00F0CFEF02
:1001980000F0E3EF00F081ACD4EF00F0D6EF00F010
:1001A800E3EF00F04804D8A4DCEF00F0DEEF00F045
:1001B800E3EF00F0000E486E010EB4EC0AF0F2A670
:1001C800E8EF00F0EAEF00F005EF01F0F2A0EFEF42
:1001D80000F0F1EF00F005EF01F081BCF6EF00F060
:1001E800F8EF00F005EF01F04850D8A4FEEF00F05A
:1001F80000EF01F005EF01F0010E486E000EB4ECBF
:100208000AF0F2A60AEF01F00CEF01F027EF01F077
:10021800F2A011EF01F013EF01F027EF01F081AE2A
:1002280018EF01F01AEF01F027EF01F04704D8A406
:1002380020EF01F022EF01F027EF01F0000E476EEA
:10024800010EA7EC0AF0F2A62CEF01F02EEF01F058
:1002580049EF01F0F2A033EF01F035EF01F049EF7B
:1002680001F081BE3AEF01F03CEF01F049EF01F0F7
:100278004750D8A442EF01F044EF01F049EF01F0F4
:10028800010E476E000EA7EC0AF09DAC4EEF01F090
:1002980050EF01F059EF01F09EAC55EF01F057EF28
:1002A80001F059EF01F0F9EC0AF0F2AA5EEF01F063
:1002B80060EF01F069EF01F0F2A465EF01F067EF7C
:1002C80001F069EF01F0E8EC0AF09DA06EEF01F093
:1002D80070EF01F079EF01F09EA075EF01F077EF74
:1002E80001F079EF01F08CEC0AF04EC0FBFF4DC035
:0A02F800FAFF5C921100DAEF09F042
:10100000003738392F343536373132333423303DD9
:051010002B2569000022
:10101600010E556E4F50D8B413EF08F015EF08F0D7
:1010260025EF08F04F50D96EDA6ADF30E832E83241
:10103600070B506E070E506423EF08F025EF08F0FB
:101046007CEF08F0000E556E92EF08F04F50D96E07
:10105600DA6ADF30E832E832070B506E010E516E65
:10106600502A38EF08F0D8905136502E36EF08F057
:101076005150FF0A526E4F50D96EDA6ADF50070B95
:10108600020DF3503D0FD96EDA6ADECF53F0DDCF95
:1010960054F053C0D9FF54C0DAFF5250DF1692EF16
:1010A60008F04F50D96EDA6ADF30E832E832070BC3
:1010B600506E010E516E502A63EF08F0D8905136EB
:1010C600502E61EF08F04F50D96EDA6ADF50070BE9
:1010D600020DF3503D0FD96EDA6ADECF52F0DDCF46
:1010E60053F052C0D9FF53C0DAFF5150DF1292EFCE
:1010F60008F04F50D96EDA6ADFBC84EF08F087EF4C
:1011060008F0010E88EF08F0000E000AD8B429EFA7
:1011160008F0010AD8B454EF08F025EF08F055504E
:101126001200010E566E4F50D8B49CEF08F09EEF99
:1011360008F0AEEF08F04F50D96EDA6ADF30E832C9
:10114600E832070B516E070E5164ACEF08F0AEEFB4
:1011560008F005EF09F0000E566E1AEF09F04F5031
:10116600D96EDA6ADF30E832E832070B516E010ECB
:10117600526E512AC1EF08F0D8905236512EBFEF69
:1011860008F05250FF0A536E4F50D96EDA6ADF509C
:10119600070B020DF350330FD96EDA6ADECF54F027
:1011A600DDCF55F054C0D9FF55C0DAFF5350DF16D6
:1011B6001AEF09F04F50D96EDA6ADF30E832E832BA
:1011C600070B516E010E526E512AECEF08F0D890C3
:1011D6005236512EEAEF08F04F50D96EDA6ADF50D8
:1011E600070B020DF350330FD96EDA6ADECF53F0D8
:1011F600DDCF54F053C0D9FF54C0DAFF5250DF128E
:101206001AEF09F05050516E526A5250000AD8B483
:101216000FEF09F0AEEF08F05150000AD8B4B2EF64
:1012260008F0010AD8B4DDEF08F0AEEF08F056502A
:1012360012005050D8A422EF09F024EF09F026EF4F
:1012460009F063EF09F0CD905050D96EDA6A050EB9
:10125600D926DF50030B516E513ACD505118CF0BA2
:101266005118CD6E50C04FF09FEC09F05050D96E1A
:10127600DA6A030ED926DECF51F0DDCF52F052C026
:1012860051F0526A5150CF6E5050D96EDA6A030E41
:10129600D926DF50CE6E5050D96EDA6A030ED926A3
:1012A600DECF01F0DDCF02F09D809E905050D96ECA
:1012B600DA6ADECF03F0DDCF04F0F28EF28CCD8059
:1012C6001200010E00017F6F5A50D8A46DEF09F08D
:1012D6006FEF09F073EF09F0000E7F6F9CEF09F0D6
:1012E6002AC080F05A50D96EDA6ADF500F0B5B6E57
:1012F60080515B18F80B5B18806F5A50D96EDA6A0A
:10130600DF38070B5B6E5B465B465B4680515B18BE
:10131600C70B5B18806F809D5A50D96EDA6ADFAEB4
:1013260002D0808F02D00001809F800E576E0BEC9A
:101336000AF000017F5112004F50D96EDA6A050E8D
:10134600D926DFB4A9EF09F0ABEF09F0AEEF09F04B
:10135600CD92D9EF09F04F50D96EDA6A050ED9262B
:10136600DFA4B8EF09F0BAEF09F0D9EF09F0CD82A2
:101376004F50D96EDA6A050ED926DFA6C5EF09F0F9
:10138600C7EF09F0CAEF09F0CD84D9EF09F04F5045
:10139600D96EDA6A050ED926DFB6D4EF09F0D6EF94
:1013A60009F0D9EF09F0CD94D9EF09F01200DC0E5F
:1013B600F66E150EF76E000EF86E00EE75F010EE76
:1013C6000AF00900F5CFEEFFE550E150FAE1B60E5E
:1013D600F66E150EF76E000EF86E00EE33F010EE98
:1013E60019F00900F5CFEEFFE550E150FAE100EE05
:1013F60060F0150EEE6AE806FDE100EE01F0320E31
:10140600EE6AE806FDE15C905C92000169EF0AF085
:101416005750D8B411EF0AF013EF0AF023EF0AF091
:101426005750D96EDA6ADF30E832E832070B586E69
:10143600070E586421EF0AF023EF0AF027EF0AF0AF
:10144600000E596E38EF0AF057C04FF00BEC08F05B
:10145600596E57C04FF05750D96EDA6A000EDFBE8C
:10146600010E506E94EC08F0596E59501200010EA0
:10147600536E000E556E4F50D8A444EF0AF046EF57
:101486000AF052EF0AF05050D8A44CEF0AF04EEF93
:101496000AF052EF0AF0000E536E67EF0AF0CECF55
:1014A60054F0CFCF55F0545055C051F0526A51C048
:1014B60052F0516A5126000E52225050D96EDA6A05
:1014C60051C0DEFF52C0DDFF53501200000E2B6EDE
:1014D600000E2C6E000E2D6E3084000E2F6E000E48
:1014E6002E6EFC0E3016309A30962B0E506E1CEC7B
:1014F60009F04B0E5A6E64EC09F0236E2B0E4F6EFC
:10150600310E506E3AEC0AF0236E81EF0AF07FEF4F
:1015160001F09E900250CF6E01C0CEFF0350041022
:10152600D8B498EF0AF09AEF0AF0A6EF0AF002D8BC
:10153600A6EF0AF00500FA6E0350FD6E0450FE6E2B
:10154600FF6AFA50120012004C6EF2904C50D8A46A
:10155600AFEF0AF0B1EF0AF0B3EF0AF0B3EF0AF01B
:1015660012004C6EF2904C50D8A4BCEF0AF0BEEFBD
:101576000AF0C0EF0AF0C0EF0AF012004C6EF290CB
:101586004C50D8A4C9EF0AF0CBEF0AF0CDEF0AF021
:10159600CDEF0AF012004C6EF2904C50D8A4D6EF64
:1015A6000AF0D8EF0AF0DAEF0AF0DAEF0AF01200E2
:1015B600890F8A0F8B0F8C0F8D0F920F930F940F3D
:0915C600950F960F0101010103CC
:1015D000F2940650D76E05C0D6FF1200800F810F1F
:1015E000820F830F840FF0921200F0901200F2929B
:0815F00012009E9C1200120083
:020000040030CA
:0E000000FF071F1FFF8985FF0FC00FE00F4095
:00000001FF
