:04000000E0EF09F034
:1010000000000CEC0AF0000E376E3E0E2A6E030E46
:101010009EEC09F0386E1FC022F0236A000E256E88
:101020000A0E246EE4EC08F022502A6E020E9EECAA
:1010300009F0386E090E2F6EA70EE82EFED72F2E60
:10104000FCD700003D0E2A6E030E9EEC09F0386EB0
:101050001FC022F0236A000E256E0A0E246E46EC95
:1010600009F022502A6E020E9EEC09F0386E090E2D
:101070002F6EA70EE82EFED72F2EFCD700003B0EBA
:101080002A6E030E9EEC09F0386E20C022F0236A0F
:10109000000E256E0A0E246EE4EC08F022502A6E33
:1010A000020E9EEC09F0386E090E2F6EA70EE82E88
:1010B000FED72F2EFCD70000370E2A6E030E9EECB3
:1010C00009F0386E20C022F0236A000E256E0A0E49
:1010D000246E46EC09F022502A6E020E9EEC09F0B6
:1010E000386E090E2F6EA70EE82EFED72F2EFCD7D6
:1010F00000002F0E2A6E030E9EEC09F0386E21C000
:1011000022F0236A000E256E0A0E246EE4EC08F02D
:1011100022502A6E020E9EEC09F0386E090E2F6ED8
:10112000A70EE82EFED72F2EFCD700001F0E2A6E2A
:10113000030E9EEC09F0386E21C022F0236A000EE7
:10114000256E0A0E246E46EC09F022502A6E020E1D
:101150009EEC09F0386E090E2F6EA70EE82EFED712
:101160002F2EFCD70000372A310E3764BAEF08F073
:10117000BCEF08F005EF08F0212A3C0E2118D8A496
:10118000C4EF08F0C6EF08F0C9EF08F0202A000EFF
:10119000216E3C0E2018D8A4D0EF08F0D2EF08F052
:1011A000D5EF08F01F2A000E206E0D0E1F18D8A4D0
:1011B000DCEF08F0DEEF08F003EF08F0010E1F6E21
:1011C00003EF08F000EF00F0000E276E25BEEDEFF4
:1011D00008F0EBEF08F0F3EF08F0246C251ED8B010
:1011E000252A010E276E23BEFAEF08F0F8EF08F06B
:1011F00000EF09F0226C231ED8B0232A010E271A13
:10120000000E296E000E286E24502510D8B40BEF66
:1012100009F00DEF09F035EF09F0010E266E15EF1C
:1012200009F0D89024362536262A25AE1AEF09F083
:101230001CEF09F011EF09F0D89028362936245018
:10124000225C25502358D8A028EF09F02AEF09F096
:101250002FEF09F02450225E2550235A2880D89081
:1012600025322432262E1CEF09F02750D8B43BEF4C
:1012700009F03DEF09F041EF09F0286C291ED8B0C4
:10128000292A28C022F029C023F01200000E276E60
:1012900023BE4FEF09F04DEF09F055EF09F0226C36
:1012A000231ED8B0232A010E276E25BE5CEF09F05D
:1012B0005AEF09F060EF09F0246C251ED8B0252AFA
:1012C00024502510D8B467EF09F069EF09F08DEFCD
:1012D00009F0010E266E71EF09F0D89024362536FC
:1012E000262A25AE76EF09F078EF09F06DEF09F0C8
:1012F0002450225C25502358D8A081EF09F083EFB9
:1013000009F087EF09F02450225E2550235AD89027
:1013100025322432262E78EF09F02750D8B493EFE7
:1013200009F095EF09F099EF09F0226C231ED8B06F
:10133000232A22C022F023C023F012002E6E010EB9
:101340002D6E040E2E64A7EF09F0A9EF09F0ADEFA2
:1013500009F0000E2D6EBDEF09F02E50020DF35076
:101360000B0FD96EDA6ADECF2BF0DDCF2CF02BC05D
:10137000D9FF2CC0DAFF2AC0DFFF2D501200266EE5
:10138000010E256E040E2664C8EF09F0CAEF09F0BD
:10139000CEEF09F0000E256EDEEF09F02650020DAB
:1013A000F350150FD96EDA6ADECF23F0DDCF24F0CB
:1013B00023C0D9FF24C0DAFF22C0DFFF255012006E
:1013C000F60EF66E130EF76E000EF86E00EE01F0DC
:1013D00010EE21F00900F5CFEEFFE550E150FAE103
:1013E00000EE30F0070EEE6AE806FDE1000EF86E42
:1013F000000101EF08F0800F810F820F830F840F2F
:10140000890F8A0F8B0F8C0F8D0F920F930F940FF4
:07141000950F960F0C3B3213
:10141800F00E226E020EBFEC09F0386EC00E226E7E
:0A142800030EBFEC09F0386E12004D
:020000040030CA
:0E000000FF02091EFF8181FF0FC00FE00F40BD
:00000001FF
