:04000000FFEF01F01D
:100008004B82FACF0BF0FBCF0CF0D9CF0DF0DACF43
:100018000EF0F3CF0FF0F4CF10F0F6CF11F0F7CFCA
:1000280012F0F8CF13F0F5CF14F0F2A81EEF00F09D
:1000380020EF00F029EF00F0F2A225EF00F027EF03
:1000480000F029EF00F03DEC15F0F0A62EEF00F0DF
:1000580030EF00F039EF00F0F0A035EF00F037EFA7
:1000680000F039EF00F03BEC15F0F0A83EEF00F09F
:1000780040EF00F049EF00F0F0A245EF00F047EF45
:1000880000F049EF00F039EC15F0F2A64EEF00F061
:1000980050EF00F06BEF00F0F2A055EF00F057EFD3
:1000A80000F06BEF00F081A85CEF00F05EEF00F06D
:1000B8006BEF00F04A04D8A464EF00F066EF00F09C
:1000C8006BEF00F0000E4A6E010EF4EC14F0F2A68D
:1000D80070EF00F072EF00F08DEF00F0F2A077EF14
:1000E80000F079EF00F08DEF00F081B87EEF00F0BE
:1000F80080EF00F08DEF00F04A50D8A486EF00F0B2
:1001080088EF00F08DEF00F0010E4A6E000EF4EC5F
:1001180014F0F2A692EF00F094EF00F0AFEF00F0C9
:10012800F2A099EF00F09BEF00F0AFEF00F081AA8A
:10013800A0EF00F0A2EF00F0AFEF00F04904D8A460
:10014800A8EF00F0AAEF00F0AFEF00F0000E496E44
:10015800010EE7EC14F0F2A6B4EF00F0B6EF00F0F1
:10016800D1EF00F0F2A0BBEF00F0BDEF00F0D1EF4F
:1001780000F081BAC2EF00F0C4EF00F0D1EF00F058
:100188004950D8A4CAEF00F0CCEF00F0D1EF00F04E
:10019800010E496E000EE7EC14F0F2A6D6EF00F05F
:1001A800D8EF00F0F3EF00F0F2A0DDEF00F0DFEFA2
:1001B80000F0F3EF00F081ACE4EF00F0E6EF00F0C0
:1001C800F3EF00F04804D8A4ECEF00F0EEEF00F0F5
:1001D800F3EF00F0000E486E010EDAEC14F0F2A610
:1001E800F8EF00F0FAEF00F015EF01F0F2A0FFEFE2
:1001F80000F001EF01F015EF01F081BC06EF01F00E
:1002080008EF01F015EF01F04850D8A40EEF01F007
:1002180010EF01F015EF01F0010E486E000EDAEC58
:1002280014F0F2A61AEF01F01CEF01F037EF01F01D
:10023800F2A021EF01F023EF01F037EF01F081AEDA
:1002480028EF01F02AEF01F037EF01F04704D8A4B6
:1002580030EF01F032EF01F037EF01F0000E476E9A
:10026800010ECDEC14F0F2A63CEF01F03EEF01F0E8
:1002780059EF01F0F2A043EF01F045EF01F059EF1B
:1002880001F081BE4AEF01F04CEF01F059EF01F0A7
:100298004750D8A452EF01F054EF01F059EF01F0A4
:1002A800010E476E000ECDEC14F09DAC5EEF01F030
:1002B80060EF01F069EF01F09EAC65EF01F067EFC8
:1002C80001F069EF01F043EC15F0F2AA6EEF01F0CE
:1002D80070EF01F079EF01F0F2A475EF01F077EF1C
:1002E80001F079EF01F022EC15F09DA07EEF01F00E
:1002F80080EF01F089EF01F09EA085EF01F087EF14
:1003080001F089EF01F01CEC15F09DA28EEF01F0D1
:1003180090EF01F099EF01F09EA295EF01F097EFB1
:1003280001F099EF01F02DEC15F0A0A29EEF01F07D
:10033800A0EF01F0A9EF01F0A1A2A5EF01F0A7EF4E
:1003480001F0A9EF01F016EC15F09DA4AEEF01F055
:10035800B0EF01F0B9EF01F09EA4B5EF01F0B7EFEF
:1003680001F0B9EF01F041EC15F0A0A0BEEF01F0EB
:10037800C0EF01F0C9EF01F0A1A0C5EF01F0C7EF90
:1003880001F0C9EF01F03FEC15F09DA8CEEF01F0A8
:10039800D0EF01F0D9EF01F09EA8D5EF01F0D7EF2B
:1003A80001F0D9EF01F083EC14F09DAADEEF01F023
:1003B800E0EF01F0E9EF01F09EAAE5EF01F0E7EFC9
:1003C80001F0E9EF01F0CEEC12F014C0F5FF13C014
:1003D800F8FF12C0F7FF11C0F6FF10C0F4FF0FC0FE
:1003E800F3FF0EC0DAFF0DC0D9FF0CC0FBFF0BC036
:0A03F800FAFF4B921100B3EF13F06F
:10100000003738392F343536373132333423303DD9
:101010002B4C4544315F4F46460D004C4544325FF2
:101020004F46460D004C4544315F4F4E0D004C4538
:0B10300044325F4F4E0D0025690000A8
:10103C00000E0001C36F000EC46F000EC56F000ED2
:10104C00C66F49EF0AF0AC98B896AC94C051D96E03
:10105C00DA6A080ED926DECF15F0DECF16F0DECF19
:10106C0017F0DECF18F0000EC2EC0EF015C027F012
:10107C0016C028F017C029F018C02AF0000E236EF5
:10108C00240E246EF40E256E4A0E266EF4EC0CF033
:10109C0023C0C7F024C0C8F025C0C9F026C0CAF0D0
:1010AC00000E276E000E286E800E296E420E2A6EE0
:1010BC00C7C023F0C8C024F0C9C025F0CAC026F0B0
:1010CC00F4EC0CF023C02FF024C030F025C031F02C
:1010DC0026C032F0000E336E000E346E800E356E6C
:1010EC00BF0E366E93EC0AF02FC0C3F030C0C4F0C4
:1010FC0031C0C5F032C0C6F073EF0AF0AC98B896A8
:10110C00AC84C051D96EDA6A080ED926DECF15F040
:10111C00DECF16F0DECF17F0DECF18F0000EC2ECEB
:10112C000EF015C027F016C028F017C029F018C013
:10113C002AF0000E236E240E246EF40E256E4A0E39
:10114C00266EF4EC0CF023C0C7F024C0C8F025C008
:10115C00C9F026C0CAF0000E276E000E286E800E55
:10116C00296E410E2A6EC7C023F0C8C024F0C9C036
:10117C0025F0CAC026F0F4EC0CF023C02FF024C0EC
:10118C0030F025C031F026C032F0000E336E000E68
:10119C00346E800E356EBF0E366E93EC0AF02FC097
:1011AC00C3F030C0C4F031C0C5F032C0C6F073EF2C
:1011BC000AF0AC98B886AC94C051D96EDA6A080EB5
:1011CC00D926DECF15F0DECF16F0DECF17F0DECF4E
:1011DC0018F0000EC2EC0EF015C027F016C028F067
:1011EC0017C029F018C02AF0000E236E240E246EAE
:1011FC00F40E256E4A0E266EF4EC0CF023C0C7F0EC
:10120C0024C0C8F025C0C9F026C0CAF0000E276E55
:10121C00000E286E800E296E410E2A6EC7C023F078
:10122C00C8C024F0C9C025F0CAC026F0F4EC0CF0FC
:10123C0023C02FF024C030F025C031F026C032F08E
:10124C00000E336E000E346E800E356EBF0E366E91
:10125C0093EC0AF02FC0C3F030C0C4F031C0C5F01D
:10126C0032C0C6F073EF0AF0AC98B886AC84C051AB
:10127C00D96EDA6A080ED926DECF15F0DECF16F05D
:10128C00DECF17F0DECF18F0000EC2EC0EF015C05A
:10129C0027F016C028F017C029F018C02AF0000E4D
:1012AC00236E240E246EF40E256E4A0E266EF4EC7C
:1012BC000CF023C0C7F024C0C8F025C0C9F026C06C
:1012CC00CAF0000E276E000E286E800E296E400E9E
:1012DC002A6EC7C023F0C8C024F0C9C025F0CAC00C
:1012EC0026F0F4EC0CF023C02FF024C030F025C015
:1012FC0031F026C032F0000E336E000E346E800ECC
:10130C00356EBF0E366E93EC0AF02FC0C3F030C0B2
:10131C00C4F031C0C5F032C0C6F073EF0AF0AC882F
:10132C00B896C051D96EDA6A080ED926DECF15F000
:10133C00DECF16F0DECF17F0DECF18F0000EC2ECC9
:10134C000EF015C027F016C028F017C029F018C0F1
:10135C002AF0000E236E240E246EF40E256E4A0E17
:10136C00266EF4EC0CF023C0C7F024C0C8F025C0E6
:10137C00C9F026C0CAF0000E276E000E286E800E33
:10138C00296E400E2A6EC7C023F0C8C024F0C9C015
:10139C0025F0CAC026F0F4EC0CF023C02FF024C0CA
:1013AC0030F025C031F026C032F0000E336E000E46
:1013BC00346E800E356EBF0E366E93EC0AF02FC075
:1013CC00C3F030C0C4F031C0C5F032C0C6F073EF0A
:1013DC000AF0AC88B886C051D96EDA6A080ED926E4
:1013EC00DECF15F0DECF16F0DECF17F0DECF18F023
:1013FC00000EC2EC0EF015C027F016C028F017C076
:10140C0029F018C02AF0000E236E240E246EF40E60
:10141C00256E4A0E266EF4EC0CF023C0C7F024C0E7
:10142C00C8F025C0C9F026C0CAF0000E276E000E09
:10143C00286E800E296E400E2A6EC7C023F0C8C0DD
:10144C0024F0C9C025F0CAC026F0F4EC0CF023C07F
:10145C002FF024C030F025C031F026C032F0000E41
:10146C00336E000E346E800E356EBF0E366E93ECFE
:10147C000AF02FC0C3F030C0C4F031C0C5F032C088
:10148C00C6F073EF0AF0C051D96EDA6A0C0ED92689
:10149C00DF50C16FC26BC251000AD8B458EF0AF0CA
:1014AC0073EF0AF0C151000AD8B429EF08F0010A11
:1014BC00D8B484EF08F0030AD8B4DFEF08F0010ABF
:1014CC00D8B43AEF09F0070AD8B495EF09F0010A3D
:1014DC00D8B4EFEF09F073EF0AF0C3C015F0C4C035
:1014EC0016F0C5C017F0C6C018F0ADEC10F01550D2
:1014FC00AF6EC3C015F0C4C016F0C5C017F0C6C09F
:10150C0018F0ADEC10F016C015F017C016F018C09E
:10151C0017F0186A1550B06E12003250800B000193
:10152C00BC6F32503224BE6F31AE9FEF0AF0A1EF88
:10153C000AF0A2EF0AF0BE81BE51D8B4A8EF0AF0AF
:10154C00AAEF0AF0BFEF0AF0BE29D8A4B0EF0AF058
:10155C00B2EF0AF0BAEF0AF0000E2F6E000E306EEA
:10156C00000E316E000E326E318E000E326EC7EFF1
:10157C000AF0000E2F6E000E306E000E316E000E53
:10158C00326E3650800BBD6FBC51BD19D8B4D1EF43
:10159C000AF0D3EF0AF0D4EF0AF0BC8D36503624A3
:1015AC00BD6F35AEDCEF0AF0DEEF0AF0DFEF0AF0CC
:1015BC00BD81BD51D8B4E5EF0AF0E7EF0AF0FCEFBE
:1015CC000AF0BD29D8A4EDEF0AF0EFEF0AF0F7EF1F
:1015DC000AF0000E336E000E346E000E356E000EE7
:1015EC00366E358E000E366E04EF0BF0000E336E39
:1015FC00000E346E000E356E000E366EBE51BD5DA3
:10160C00D8B00BEF0BF00DEF0BF034EF0BF0BCADD3
:10161C0012EF0BF014EF0BF016EF0BF0800EBC1B5F
:10162C00BEC0BFF0BDC0BEF0BFC0BDF02FC0BFF08C
:10163C0033C02FF0BFC033F030C0BFF034C030F037
:10164C00BFC034F031C0BFF035C031F0BFC035F091
:10165C0032C0BFF036C032F0BFC036F0000EBF6FE4
:10166C00BE51BDC0B8F0B96BB85F000EB95BB9BF65
:10167C0049EF0BF0B95109E11A0EB85DD8A049EF4A
:10168C000BF04BEF0BF082EF0BF02F5030103110B2
:10169C003210D8A454EF0BF057EF0BF0010E58EFAB
:1016AC000BF0000EBF6F000E2F6E000E306E000E92
:1016BC00316E000E326EBDC0BEF08BEF0BF0BFA1D1
:1016CC006AEF0BF06CEF0BF072EF0BF0D890BF31B0
:1016DC000109BF6F74EF0BF0D890BF332FA079EFD7
:1016EC000BF07BEF0BF07CEF0BF0BF8F3234323210
:1016FC00313230322F32BE2BBD51BE5DD8A089EFB6
:10170C000BF08BEF0BF065EF0BF0BCBD90EF0BF01B
:10171C0092EF0BF0D2EF0BF0BE51D8A498EF0BF078
:10172C009AEF0BF0A4EF0BF0000E2F6E000E306E44
:10173C00000E316E000E326EF3EF0CF033502F268C
:10174C0034503022355031223650322232A0B1EF93
:10175C000BF0B3EF0BF05FEF0CF0BFA1B8EF0BF099
:10176C00BAEF0BF0C0EF0BF0D890BF310109BF6F8F
:10177C00C2EF0BF0D890BF332FA0C7EF0BF0C9EF1F
:10178C000BF0CAEF0BF0BF8F3234323231323032C1
:10179C002F32BE2B5FEF0CF033502F5C345030588F
:1017AC00355031583250800AB86F3650800AB859CB
:1017BC00D8B0E3EF0BF0E5EF0BF010EF0CF02F507F
:1017CC00335CB86F30503458B96F31503558BA6FEC
:1017DC0032503658BB6FFF0EB8252F6EFF0EB92155
:1017EC00306EFF0EBA21316EFF0EBB21326E800EB1
:1017FC00BC1BBF6DBF51D8A406EF0CF008EF0CF06A
:10180C0018EF0CF0010E2F26000E3022312232225E
:10181C0018EF0CF033502F5E3450305A3550315A8B
:10182C003650325A2F50301031103210D8A421EFCC
:10183C000CF023EF0CF058EF0CF0BF51D8A429EFAB
:10184C000CF02BEF0CF058EF0CF0000E2F6E000E7E
:10185C00306E000E316E000E326EF3EF0CF0D8903D
:10186C002F36303631363236BFAF3FEF0CF041EF0A
:10187C000CF042EF0CF02F80BFA147EF0CF049EFBA
:10188C000CF04DEF0CF0D880BF374FEF0CF0D89028
:10189C00BF37BE51D8B455EF0CF057EF0CF058EFE2
:1018AC000CF0BE0731AE5DEF0CF05FEF0CF035EFD6
:1018BC000CF0000EBD6FBFAF66EF0CF068EF0CF0D4
:1018CC0080EF0CF0BFC0B8F07F0EB817D8B471EF32
:1018DC000CF073EF0CF077EF0CF0010EBD6F80EF96
:1018EC000CF02FA07CEF0CF07EEF0CF080EF0CF0E6
:1018FC0073EF0CF0BD51D8B486EF0CF088EF0CF000
:10190C00B3EF0CF0010E2F26000E302231223222C2
:10191C0032A093EF0CF095EF0CF0B3EF0CF02FC05E
:10192C00B8F030C0B9F031C0BAF032C0BBF0BB3542
:10193C00BB33BA33B933B833B8C02FF0B9C030F0B9
:10194C00BAC031F0BBC032F0BE29D8B4B0EF0CF045
:10195C00B2EF0CF0B3EF0CF0BE2BBE29D8B4B9EF3C
:10196C000CF0BBEF0CF0C3EF0CF0BE51D8A4C1EFE0
:10197C000CF0C3EF0CF0D5EF0CF0000E2F6E000E38
:10198C00306E000E316E000E326EBE51D8A4D1EF07
:10199C000CF0D3EF0CF0D5EF0CF0000EBC6FBEA129
:1019AC00DAEF0CF0DCEF0CF0DFEF0CF0318EE0EF47
:1019BC000CF0319ED890BE31326EBCAFE8EF0CF01B
:1019CC00EAEF0CF0EBEF0CF0328E2FC02FF030C0A2
:1019DC0030F031C031F032C032F012002650800BA2
:1019EC000001AF6F26502624B66F25AE00EF0DF028
:1019FC0002EF0DF003EF0DF0B681B651D8B409EF3C
:101A0C000DF00BEF0DF020EF0DF0B629D8A411EF6F
:101A1C000DF013EF0DF01BEF0DF0000E236E000E0A
:101A2C00246E000E256E000E266E258E000E266E80
:101A3C0028EF0DF0000E236E000E246E000E256EA6
:101A4C00000E266E2A50800BAF1B2A502A24B76F2B
:101A5C0029AE33EF0DF035EF0DF036EF0DF0B78109
:101A6C00B751D8B43CEF0DF03EEF0DF053EF0DF045
:101A7C00B729D8A444EF0DF046EF0DF04EEF0DF062
:101A8C00000E276E000E286E000E296E000E2A6EB8
:101A9C00298E000E2A6E5BEF0DF0000E276E000EE5
:101AAC00286E000E296E000E2A6E27502810291061
:101ABC002A10D8A464EF0DF066EF0DF07EEF0DF058
:101ACC00000E236E000E246E000E256E000E266E88
:101ADC00800E25127F0E2612AF51261223C023F042
:101AEC0024C024F025C025F026C026F0C1EF0EF04E
:101AFC00B651D8A484EF0DF086EF0DF090EF0DF0F9
:101B0C00000E236E000E246E000E256E000E266E47
:101B1C00C1EF0EF0B751B6C02BF02C6A2B5E000E45
:101B2C002C5A7F0E2B24B06F000E2C20B16F23C0CB
:101B3C00ABF024C0ACF025C0ADF026C0AEF0000E6A
:101B4C00236E000E246E000E256E000E266E000E07
:101B5C00B26F000EB36F000EB46F000EB56F000EB7
:101B6C00B76FF1EF0DF0B751D8B4BFEF0DF0C1EF77
:101B7C000DF0D8EF0DF0D890AB37AC37AD37AE37A2
:101B8C00D8902336243625362636B5AFD0EF0DF057
:101B9C00D2EF0DF0D3EF0DF02380D890B237B337DE
:101BAC00B437B5372750AB5D2850AC592950AD59D7
:101BBC002A50AE59D8A0E5EF0DF0E7EF0DF0F0EF9D
:101BCC000DF0B58D2750AB5F2850AC5B2950AD5B49
:101BDC002A50AE5BB72B190EB765F7EF0DF0F9EF86
:101BEC000DF0B9EF0DF0AB51AC11AD11AE11D8B485
:101BFC0002EF0EF004EF0EF01CEF0EF0B2811CEFB2
:101C0C000EF0D8902336243625362636B5AF11EF94
:101C1C000EF013EF0EF014EF0EF02380D890B237C5
:101C2C00B337B437B537B007D8A0B10725AE21EF1D
:101C3C000EF023EF0EF007EF0EF0000EB76FB5AFFE
:101C4C002AEF0EF02CEF0EF050EF0EF0FF0EB21547
:101C5C002B6EFF0EB3152C6EFF0EB4152D6E7F0E72
:101C6C00B5152E6E2B502C102D102E10D8B441EF14
:101C7C000EF043EF0EF047EF0EF0010EB76F50EF82
:101C8C000EF023A04CEF0EF04EEF0EF050EF0EF0D6
:101C9C0043EF0EF0B751D8B456EF0EF058EF0EF0EC
:101CAC007CEF0EF0010E2326000E24222522262284
:101CBC0026A063EF0EF065EF0EF07CEF0EF023C064
:101CCC002BF024C02CF025C02DF026C02EF02E3485
:101CDC002E322D322C322B322BC023F02CC024F080
:101CEC002DC025F02EC026F0B04BB12BB1BF87EF25
:101CFC000EF0B15108E1B029D8A087EF0EF089EFB2
:101D0C000EF094EF0EF0000EB16FB069000E236E62
:101D1C00000E246E000E256E000E266EB1BFA1EFD4
:101D2C000EF0B15106E1B005D8B09FEF0EF0A1EF67
:101D3C000EF0AFEF0EF0000EB16F000EB06F000E94
:101D4C00236E000E246E000E256E000E266E000E05
:101D5C00AF6FB0C0B6F0B6A1B6EF0EF0B8EF0EF0A4
:101D6C00BBEF0EF0258EBCEF0EF0259ED890B63151
:101D7C00266E72EF0DF012001D6E1D50D8B4C9EF17
:101D8C000EF0CBEF0EF0EDEF0EF018BED2EF0EF022
:101D9C00D0EF0EF0EDEF0EF015C019F016C01AF0E2
:101DAC0017C01BF018C01CF0191E1A1E1B1E1C1E7F
:101DBC00192A000E1A221B221C2219C01FF01AC04D
:101DCC0020F01BC021F01CC022F0F5EF0EF015C066
:101DDC001FF016C020F017C021F018C022F01550CB
:101DEC00161017101810D8A4FEEF0EF000EF0FF01D
:101DFC000AEF0FF0000E156E000E166E000E176E29
:101E0C00000E186E9BEF0FF0960E1E6E14EF0FF077
:101E1C001E2AD8902232213220321F32000E1F147B
:101E2C00196E000E20141A6E000E21141B6EFE0E7D
:101E3C0022141C6E19501A101B101C10D8A429EF58
:101E4C000FF02BEF0FF00EEF0FF039EF0FF01E2A03
:101E5C00010E1F26000E202221222222D89022328F
:101E6C00213220321F32000E1F14196E000E201466
:101E7C001A6E000E21141B6EFF0E22141C6E1950CC
:101E8C001A101B101C10D8A44EEF0FF050EF0FF0CF
:101E9C002DEF0FF058EF0FF01E06D8901F3620369E
:101EAC002136223621BE5DEF0FF05FEF0FF067EFAA
:101EBC000FF0020E1E6065EF0FF067EF0FF052EFA0
:101ECC000FF01EB06CEF0FF06EEF0FF06FEF0FF026
:101EDC00219ED8901E321EC019F01A6A1B6A1C6A09
:101EEC0019C01CF01B6A1A6A196A19501F121A5071
:101EFC0020121B5021121C5022121D50D8B489EFF5
:101F0C000FF08BEF0FF093EF0FF018BE92EF0FF076
:101F1C0090EF0FF093EF0FF0228E1FC015F020C042
:101F2C0016F021C017F022C018F01200010E1B6E23
:101F3C001550D8B4A4EF0FF0A6EF0FF0B6EF0FF0DA
:101F4C001550D96EDA6ADF30E832E832070B166EBC
:101F5C00070E1664B4EF0FF0B6EF0FF00DEF10F0A4
:101F6C00000E1B6E23EF10F01550D96EDA6ADF30BD
:101F7C00E832E832070B166E010E176E162AC9EFFF
:101F8C000FF0D8901736162EC7EF0FF01750FF0A28
:101F9C00186E1550D96EDA6ADF50070B020DF3502C
:101FAC00F30FD96EDA6ADECF19F0DDCF1AF019C053
:101FBC00D9FF1AC0DAFF1850DF1623EF10F01550B6
:101FCC00D96EDA6ADF30E832E832070B166E010E92
:101FDC00176E162AF4EF0FF0D8901736162EF2EF74
:101FEC000FF01550D96EDA6ADF50070B020DF35063
:101FFC00F30FD96EDA6ADECF18F0DDCF19F018C006
:10200C00D9FF19C0DAFF1750DF1223EF10F015506B
:10201C00D96EDA6ADFBC15EF10F018EF10F0010E74
:10202C0019EF10F0000E000AD8B4BAEF0FF0010A45
:10203C00D8B4E5EF0FF0B6EF0FF01B501200010E05
:10204C001C6E1550D8B42DEF10F02FEF10F03FEFA1
:10205C0010F01550D96EDA6ADF30E832E832070B2F
:10206C00176E070E17643DEF10F03FEF10F096EF70
:10207C0010F0000E1C6EABEF10F01550D96EDA6A32
:10208C00DF30E832E832070B176E010E186E172A94
:10209C0052EF10F0D8901836172E50EF10F0185051
:1020AC00FF0A196E1550D96EDA6ADF50070B020D54
:1020BC00F350E90FD96EDA6ADECF1AF0DDCF1BF0E0
:1020CC001AC0D9FF1BC0DAFF1950DF16ABEF10F0A6
:1020DC001550D96EDA6ADF30E832E832070B176E2A
:1020EC00010E186E172A7DEF10F0D8901836172EA7
:1020FC007BEF10F01550D96EDA6ADF50070B020D2A
:10210C00F350E90FD96EDA6ADECF19F0DDCF1AF091
:10211C0019C0D9FF1AC0DAFF1850DF12ABEF10F05C
:10212C001650176E186A1850000AD8B4A0EF10F0A9
:10213C003FEF10F01750000AD8B443EF10F0010A2B
:10214C00D8B46EEF10F03FEF10F01C5012001734A3
:10215C0018341E6E1E50D8A4B6EF10F0B8EF10F065
:10216C00C2EF10F0000E156E000E166E000E176EFC
:10217C00000E186E2FEF11F015C019F016C01AF0E2
:10218C0017C01BF018C01CF0200ED2EF10F0D89026
:10219C001C321B321A321932E82ECDEF10F01950C6
:1021AC001D6E178EFF0E1516FF0E1616FF0E171648
:1021BC00000E1816960E1E5E1EBEE9EF10F0E7EF2D
:1021CC0010F0FFEF10F01E50800A970FD8B0F1EF0F
:1021DC0010F0F3EF10F0F5EF10F0B8EF10F0D8901E
:1021EC0018321732163215321E3EF5EF10F017EF7B
:1021FC0011F01F0E1E6405EF11F007EF11F00FEF39
:10220C0011F0B8EF10F0D890153616361736183680
:10221C001E061E50D8A415EF11F017EF11F009EFA0
:10222C0011F01D50D8B41DEF11F01FEF11F027EF76
:10223C0011F0181E171E161E156C000E16221722F2
:10224C00182215C015F016C016F017C017F018C0DC
:10225C0018F012000150D8B436EF11F038EF11F02D
:10226C0048EF11F00150D96EDA6ADF30E832E8320B
:10227C00070B036E070E036446EF11F048EF11F0E5
:10228C009DEF11F0B2EF11F00150D96EDA6ADF3028
:10229C00E832E832070B036E010E046E032A59EF85
:1022AC0011F0D8900436032E57EF11F00450FF0AAA
:1022BC00056E0150D96EDA6ADF50070B020DF35030
:1022CC00E90FD96EDA6ADECF06F0DDCF07F006C073
:1022DC00D9FF07C0DAFF0550DF16B2EF11F001503D
:1022EC00D96EDA6ADF30E832E832070B036E010E82
:1022FC00046E032A84EF11F0D8900436032E82EF7B
:10230C0011F00150D96EDA6ADF50070B020DF35051
:10231C00E90FD96EDA6ADECF05F0DDCF06F005C025
:10232C00D9FF06C0DAFF0450DF12B2EF11F00250F1
:10233C00036E046A0450000AD8B4A7EF11F048EFFA
:10234C0011F00350000AD8B44AEF11F0010AD8B4C6
:10235C0075EF11F048EF11F012001550D96EDA6AD2
:10236C000F0ED926DFAABDEF11F0BFEF11F018EF59
:10237C0012F0AB881550D96EDA6A0F0ED926DFAC85
:10238C00CAEF11F0CCEF11F0EDEF11F09D8A155062
:10239C00D96EDA6A020ED926DECF81F0DDCF82F05B
:1023AC001550D96EDA6A040ED926DECF7FF0DDCF58
:1023BC0080F01550D96EDA6A060ED926DECF7DF084
:1023CC00DDCF7EF09D8AF28EF28CFAEF11F0155073
:1023DC00D96EDA6A0F0ED926DFBCF7EF11F0F9EFE0
:1023EC0011F0FAEF11F09D9A1550D96EDA6A0F0EB2
:1023FC00D926DFAE04EF12F006EF12F009EF12F05F
:10240C00AB8C18EF12F01550D96EDA6A0F0ED92674
:10241C00DFBE13EF12F015EF12F018EF12F0AB9CB9
:10242C0018EF12F01200010E00017127000E72233A
:10243C0073237423460E016E9BEC14F068EF12F0BC
:10244C00FE0E086E49EC13F0250E026E000E046EA3
:10245C00080E036E13EC14F07BEF12F0FD0E086EF9
:10246C0049EC13F02E0E026E000E046E080E036E75
:10247C0013EC14F07BEF12F0FE0E086E7EEC13F0F2
:10248C00110E026E000E046E090E036E13EC14F0A6
:10249C007BEF12F0FD0E086E7EEC13F01B0E026E3D
:1024AC00000E046E090E036E13EC14F07BEF12F0A9
:1024BC00FE0E086E7EEC13F0FD0E086E7EEC13F033
:1024CC007BEF12F04650610AD8B426EF12F0030AE3
:1024DC00D8B434EF12F0010AD8B442EF12F0070A64
:1024EC00D8B450EF12F05EEF12F012001550D96E06
:1024FC00DA6A0D0ED926DFAA86EF12F088EF12F0F9
:10250C00CDEF12F0AC8A1550D96EDA6A0D0ED926C1
:10251C00DFAC93EF12F095EF12F0A2EF12F09D8862
:10252C001550D96EDA6ADECF83F0DDCF84F09D884A
:10253C00F28EF28CAFEF12F01550D96EDA6A0D0EE6
:10254C00D926DFBCACEF12F0AEEF12F0AFEF12F009
:10255C009D981550D96EDA6A0D0ED926DFAEB9EFFB
:10256C0012F0BBEF12F0BEEF12F0AC8CCDEF12F00C
:10257C001550D96EDA6A0D0ED926DFBEC8EF12F0EF
:10258C00CAEF12F0CDEF12F0AC9CCDEF12F01200AE
:10259C00000181518211D8B4D6EF12F0D8EF12F0AD
:1025AC00E4EF12F002D8E4EF12F00500FA6E81515C
:1025BC00FD6E8251FE6EFF6AFA50120000017F51CF
:1025CC008011D8B4ECEF12F0EEEF12F0FAEF12F03B
:1025DC0002D8FAEF12F00500FA6E7F51FD6E8051B1
:1025EC00FE6EFF6AFA50120000017D517E11D8B4C4
:1025FC0002EF13F004EF13F010EF13F002D810EF0A
:10260C0013F00500FA6E7D51FD6E7E51FE6EFF6A71
:10261C00FA5012001200010E226E2050D8A419EFAD
:10262C0013F01BEF13F01FEF13F0000E226E47EFA9
:10263C0013F045C023F02050D96EDA6ADF500F0B2F
:10264C00216E23502118F80B2118236E2050D96EBF
:10265C00DA6ADF38070B216E2146214621462350CA
:10266C002118C70B2118236E239C2050D96EDA6ACF
:10267C00DFAE02D0238E01D0239E230E1D6EE4EC20
:10268C0013F0225012000850D8A44FEF13F051EF62
:10269C0013F053EF13F07DEF13F044C00AF0085021
:1026AC00D96EDA6ADF500F0B096E0A500918F80B55
:1026BC0009180A6E0850D96EDA6ADF38070B096EF2
:1026CC000946094609460A500918C70B09180A6E2B
:1026DC000A9C0850D96EDA6ADFAE02D00A8E01D09D
:1026EC000A9E0A0E016E010E026E30EC11F0120001
:1026FC000850D8A484EF13F086EF13F088EF13F092
:10270C00B2EF13F043C00AF00850D96EDA6ADF500A
:10271C000F0B096E0A500918F80B09180A6E0850AD
:10272C00D96EDA6ADF38070B096E09460946094685
:10273C000A500918C70B09180A6E0A9C0850D96E62
:10274C00DA6ADFAE02D00A8E01D00A9E0A0E016E42
:10275C00000E026E30EC11F012005E0EF66E290EB9
:10276C00F76E000EF86E00EEDFF010EE20F00900B0
:10277C00F5CFEEFFE550E150FAE16E0EF66E2A0E43
:10278C00F76E000EF86E00EE47F010EE04F0090044
:10279C00F5CFEEFFE550E150FAE100EE60F04B0EA4
:1027AC00EE6AE806FDE100EE37F0100EEE6AE80680
:1027BC00FDE14B904B920001BFEF14F01D50D8B4CB
:1027CC00EAEF13F0ECEF13F0FCEF13F01D50D96EA1
:1027DC00DA6ADF30E832E832070B1E6E070E1E6431
:1027EC00FAEF13F0FCEF13F000EF14F0000E1F6E75
:1027FC0011EF14F01DC015F09CEC0FF01F6E1DC0F6
:10280C0015F01D50D96EDA6A000EDFBE010E166E81
:10281C0025EC10F01F6E1F501200010E066E000EFC
:10282C00086E000E076E000E086E000E076E2EEF7F
:10283C0014F002500724056E05C0F6FF100EF76E5B
:10284C00F86A0800F55001EC15F0066E074A082AE4
:10285C000350075C04500858D8A037EF14F039EF38
:10286C0014F01FEF14F006501200500E0001D16F3F
:10287C002A0ED26F620ED36F2A0ED46F320ECF6F28
:10288C00240ED06F1C0ECD6F2A0ECE6F800ED56F1E
:10289C00250ED66F000ED76F000ED86F000ED96FB5
:1028AC00DA8BDA8DDA9FDC8BDC8DDC9FCD0ECB6F77
:1028BC0061EC14F01200010E0001CC6FCB51D8A4C6
:1028CC006AEF14F06CEF14F070EF14F0000ECC6F94
:1028DC0080EF14F0AB9E948C948ECBC0C0F01EECA9
:1028EC0008F0CBC015F07CEC12F0CBC015F0B3ECBB
:1028FC0011F0AB8E0001CC5112009D980001835158
:10290C008411D8B48CEF14F08EEF14F09AEF14F00D
:10291C0002D89AEF14F00500FA6E8351FD6E8451C3
:10292C00FE6EFF6AFA50120012009EAAA0EF14F07D
:10293C00A2EF14F0ABEF14F00150D96EDA6AAECFFF
:10294C00DFFF010E026EADEF14F0000E026E0250AE
:10295C001200800F810F820F830F840F890F8A0F53
:10296C008B0F8C0F8D0F920F930F940F950F960F5B
:10297C0013033BEC14F0FE0E206E11EC13F0FD0E65
:10298C00206E11EC13F0C9EF14F0FFEF01F0016EA3
:10299C00F2900150D8A4D5EF14F0D7EF14F0D9EF82
:1029AC0014F0D9EF14F01200016EF2900150D8A47B
:1029BC00E2EF14F0E4EF14F0E6EF14F0E6EF14F0AD
:1029CC001200016EF2900150D8A4EFEF14F0F1EF69
:1029DC0014F0F3EF14F0F3EF14F01200016EF29018
:1029EC000150D8A4FCEF14F0FEEF14F000EF15F03A
:1029FC0000EF15F01200016EACA207EF15F009EF15
:102A0C0015F002EF15F09D8801C0ADFF010E12000C
:102A1C00010E00017527000E762377237823120010
:102A2C00A1923850B36E37C0B2FF12009E903A504C
:102A3C00CF6E39C0CEFF1200F2943C50D76E3BC023
:102A4C00D6FF1200030E016E9BEC14F012009E9246
:102A5C003DC0CCFF120034EC15F01200AB98AB88E3
:102A6C00120001010101F0921200F0901200F2929A
:0E2A7C0012009E9412009E9412009E9C120066
:020000040030CA
:0E000000FF071F1FFF8985FF0FC00FE00F4095
:00000001FF
