:040000003CEF0EF0D3
:10100000003738392F343536373132333423303DD9
:101010002B446F6E65207375636365737366756CBF
:10102000006C6F6164696E672020202500256900CF
:0110300000BF
:101032003A50D96EDA6ADFCFF6FF100EF76EF86A11
:101042000800F550250AD8A429EF08F02BEF08F084
:10105200E6EF08F03A50D96EDA6ADF2A000E646EC3
:10106200000E636E63C067F0656866683A50D96EB9
:10107200DA6ADF503E6E3EC0F6FF100EF76EF86A77
:101082000800F550640AD8B449EF08F04BEF08F0B5
:101092005AEF08F03EC0F6FF100EF76EF86A08002D
:1010A200F550690AD8A458EF08F05AEF08F0E0EFBB
:1010B20008F03B50D96EDA6A020EDF26DF5CD96E89
:1010C200DA6ADECF3FF0DECF40F03A50D96EDA6A0C
:1010D2003E28DF6E200E436E40BE72EF08F075EFC1
:1010E20008F0010E76EF08F0000E3D6E4306435005
:1010F200800FD96EDA6A3FC02FF040C030F0000E88
:10110200326E0A0E316E52EC0BF02FC035F030C049
:1011120036F0AFEC0EF03550300FDF6E3FC02FF0DF
:1011220040C030F0000E326E0A0E316EF0EC0AF062
:101132002FC03FF030C040F03F504010D8B4A4EF71
:1011420008F0A6EF08F0AEEF08F04350D8A4ACEFD9
:1011520008F0AEEF08F077EF08F04350D8B4B4EFE0
:1011620008F0B6EF08F0D5EF08F03D50D8B4BCEF68
:1011720008F0BEEF08F0D5EF08F043064350800FA9
:10118200D96EDA6A2D0EDF6ED5EF08F04350800F6C
:10119200D96EDA6ADF503C6E3C502F6E306A39C02D
:1011A20031F0AAEC0BF0432A200E4318D8A4DCEF4E
:1011B20008F0DEEF08F0C7EF08F0F8EF08F03A5059
:1011C200D96EDA6ADF2AF8EF08F03A50D96EDA6A95
:1011D200DFCFF6FF100EF76EF86A0800F5502F6E9B
:1011E200306A39C031F0AAEC0BF0E0EF08F01200DF
:1011F200010E356E2F50D8B401EF09F003EF09F05C
:1012020013EF09F02F50D96EDA6ADF30E832E83294
:10121200070B306E070E306411EF09F013EF09F07F
:101222006AEF09F0000E356E80EF09F02F50D96E8B
:10123200DA6ADF30E832E832070B306E010E316EC7
:10124200302A26EF09F0D8903136302E24EF09F0FB
:101252003150FF0A326E2F50D96EDA6ADF50070B17
:10126200020DF350150FD96EDA6ADECF33F0DDCFFF
:1012720034F033C0D9FF34C0DAFF3250DF1680EFCA
:1012820009F02F50D96EDA6ADF30E832E832070B04
:10129200306E010E316E302A51EF09F0D89031369E
:1012A200302E4FEF09F02F50D96EDA6ADF50070B5C
:1012B200020DF350150FD96EDA6ADECF32F0DDCFB0
:1012C20033F032C0D9FF33C0DAFF3150DF1280EF82
:1012D20009F02F50D96EDA6ADFBC72EF09F075EFB0
:1012E20009F0010E76EF09F0000E000AD8B417EFEC
:1012F20009F0010AD8B442EF09F013EF09F03550B2
:101302001200010E366E2F50D8B48AEF09F08CEF1E
:1013120009F09CEF09F02F50D96EDA6ADF30E8321B
:10132200E832070B316E070E31649AEF09F09CEF39
:1013320009F0F3EF09F0000E366E08EF0AF02F50B5
:10134200D96EDA6ADF30E832E832070B316E010E0D
:10135200326E312AAFEF09F0D8903236312EADEF2E
:1013620009F03250FF0A336E2F50D96EDA6ADF501D
:10137200070B020DF3500B0FD96EDA6ADECF34F091
:10138200DDCF35F034C0D9FF35C0DAFF3350DF1678
:1013920008EF0AF02F50D96EDA6ADF30E832E8320D
:1013A200070B316E010E326E312ADAEF09F0D89056
:1013B2003236312ED8EF09F02F50D96EDA6ADF506B
:1013C200070B020DF3500B0FD96EDA6ADECF33F042
:1013D200DDCF34F033C0D9FF34C0DAFF3250DF1230
:1013E20008EF0AF03050316E326A3250000AD8B437
:1013F200FDEF09F09CEF09F03150000AD8B4A0EFDC
:1014020009F0010AD8B4CBEF09F09CEF09F036508D
:101412001200000E406E3E50D8A412EF0AF014EFF4
:101422000AF018EF0AF0000E416E7BEF0AF03EC0A0
:1014320037F099EC0DF0416E3E28376E99EC0DF0C5
:10144200416E000E406E3E504024020F376E99EC02
:101452000DF0402A070E406431EF0AF033EF0AF034
:1014620024EF0AF0340E3F6EF20EE82EFED73F2E26
:10147200FCD73EC038F0380E396E27EC0DF00D0E59
:101482003F6EFC0EE82EFED73F2EFCD73EC038F052
:10149200380E396E27EC0DF0640EE82EFED73EC0F2
:1014A20038F0380E396E27EC0DF03EC038F0010EE0
:1014B200396E27EC0DF03EC038F0020E396E27EC83
:1014C2000DF03EC038F0060E396E27EC0DF03EC02E
:1014D20038F00C0E396E27EC0DF03EC038F0380EA5
:1014E200396E27EC0DF03EC038F0800E396E27ECD5
:1014F2000DF0416E41501200000E3F6E3D50D8A4D7
:1015020085EF0AF087EF0AF08BEF0AF0000E406ECB
:10151200EEEF0AF03DC037F099EC0DF0406E3D2839
:10152200376E99EC0DF0406E000E3F6E3D503F2439
:10153200020F376E99EC0DF03F2A030E3F64A4EFC1
:101542000AF0A6EF0AF097EF0AF0340E3E6EF20EA2
:10155200E82EFED73E2EFCD73DC03AF0380E3B6E49
:10156200C8EC0DF00D0E3E6EFC0EE82EFED73E2EA0
:10157200FCD73DC03AF0380E3B6EC8EC0DF0640E5D
:10158200E82EFED73DC03AF0380E3B6EC8EC0DF0A7
:101592003DC03AF0010E3B6EC8EC0DF03DC03AF092
:1015A200020E3B6EC8EC0DF03DC03AF0060E3B6EEB
:1015B200C8EC0DF03DC03AF00C0E3B6EC8EC0DF0DD
:1015C2003DC03AF0280E3B6EC8EC0DF03DC03AF03B
:1015D200800E3B6EC8EC0DF0406E40501200000EC3
:1015E200346E32BEF9EF0AF0F7EF0AF0FFEF0AF0BD
:1015F200316C321ED8B0322A010E346E30BE06EF84
:101602000BF004EF0BF00CEF0BF02F6C301ED8B088
:10161200302A010E341A000E366E000E356E31502D
:101622003210D8B417EF0BF019EF0BF041EF0BF0BB
:10163200010E336E21EF0BF0D89031363236332A59
:1016420032AE26EF0BF028EF0BF01DEF0BF0D89027
:101652003536363631502F5C32503058D8A034EF00
:101662000BF036EF0BF03BEF0BF031502F5E3250A8
:10167200305A3580D89032323132332E28EF0BF087
:101682003450D8B447EF0BF049EF0BF04DEF0BF0AD
:10169200356C361ED8B0362A35C02FF036C030F041
:1016A2001200000E346E30BE5BEF0BF059EF0BF000
:1016B20061EF0BF02F6C301ED8B0302A010E346E61
:1016C20032BE68EF0BF066EF0BF06CEF0BF0316C93
:1016D200321ED8B0322A31503210D8B473EF0BF028
:1016E20075EF0BF099EF0BF0010E336E7DEF0BF0FF
:1016F200D89031363236332A32AE82EF0BF084EF95
:101702000BF079EF0BF031502F5C32503058D8A0EB
:101712008DEF0BF08FEF0BF093EF0BF031502F5E4C
:101722003250305AD89032323132332E84EF0BF0AD
:101732003450D8B49FEF0BF0A1EF0BF0A5EF0BF0F4
:101742002F6C301ED8B0302A2FC02FF030C030F0AE
:1017520012003150D8B4B0EF0BF0B2EF0BF0BAEF89
:101762000BF03150D8A4B8EF0BF0BAEF0BF0BFEF8B
:101772000BF02F5020EC0FF0FEEF0BF03150D96E32
:10178200DA6A0A0ED926DE50DE10D8B4CBEF0BF09F
:10179200CDEF0BF0E6EF0BF03150D96EDA6A0A0E9C
:1017A200D9263150E16EE26A030EE126DE50E65C94
:1017B200E650800A366EDE50800A3658D8B0E4EF22
:1017C2000BF0E6EF0BF0FEEF0BF03150D96EDA6A58
:1017D200030ED926DF50326E3150D96EDA6ADF50ED
:1017E2003224D96EDA6A2FC0DFFF3150D96EDA6A3D
:1017F200030ED926DE2A000EDD2212004250D8B492
:1018020005EF0CF007EF0CF010EF0CF0455046100E
:10181200D8A40EEF0CF010EF0CF014EF0CF0000E49
:10182200476E51EF0CF042C03EF043C03FF044C05F
:1018320040F0A2EC0CF0476E38EF0CF042C038F0EA
:1018420045C0F6FF46C0F7FF000EF86E0F0EF764B4
:1018520003D00800F55005D0F6CFE9FFF7CFEAFF35
:10186200EF50396EECEC0CF0476E454A462A45C003
:10187200F6FF46C0F7FF000EF86E0F0EF76403D0B6
:101882000800F55005D0F6CFE9FFF7CFEAFFEF5099
:101892000009D8A44FEF0CF051EF0CF01FEF0CF041
:1018A200475012001DEC0FF01F0E426E020E436EE7
:1018B200070E446E210E456E4550D8A4100E466E9A
:1018C200FFEC0BF0756E710E596E6950F6EC0DF06F
:1018D200756E1F0E426E020E436E0F0E446E710E37
:1018E200456E466AFFEC0BF0756E820E5C6EDE0E84
:1018F200E82EFED75C2EFCD7640E6918D8A484EFBC
:101902000CF086EF0CF09DEF0CF01F0E426E020EF3
:10191200436E050E446E110E456E4550D8A4100E4E
:10192200466EFFEC0BF0756E000E326E010E316EDC
:1019320011EC0FF064EF0CF0692A64EF0CF000EF89
:1019420000F0010E416E3E50D8A4AAEF0CF0ACEFAD
:101952000CF0B0EF0CF0000E416EEAEF0CF0400616
:10196200D7EF0CF03EC038F04050800F396E27ECB4
:101972000DF0EAEF0CF03EC038F04050C00F396E67
:1019820027EC0DF0EAEF0CF03EC038F04050940F17
:10199200396E27EC0DF0EAEF0CF03EC038F0405003
:1019A200D40F396E27EC0DF0EAEF0CF03F50010A2C
:1019B200D8B4B3EF0CF0030AD8B4BCEF0CF0010AB0
:1019C200D8B4C5EF0CF0070AD8B4CEEF0CF0EAEFAA
:1019D2000CF041501200000E3D6E3850D8A4F4EFC6
:1019E2000CF0F6EF0CF0FAEF0CF0000E3C6E25EF67
:1019F2000DF038C02FF0010E306E82EC09F0000EAF
:101A02003D6E38503D24020F2F6E3DC03AF039C072
:101A12003BF03A2A0FEF0DF0D8903B323A2E0DEF01
:101A22000DF03B50010B306E82EC09F03C6E3D2A0A
:101A3200070E3D641FEF0DF021EF0DF002EF0DF0E8
:101A420038C037F07AEC0EF03C501200000E3D6EBA
:101A52003850D8A42FEF0DF031EF0DF035EF0DF027
:101A6200000E3C6E60EF0DF038C02FF0000E306EAD
:101A720082EC09F0000E3D6E38503D24020F2F6EAD
:101A82003DC03AF039C03BF03A2A4AEF0DF0D89007
:101A92003B323A2E48EF0DF03B50010B306E82EC98
:101AA20009F03C6E3D2A070E3D645AEF0DF05CEFE3
:101AB2000DF03DEF0DF038C037F07AEC0EF03C50EF
:101AC20012003750D8A468EF0DF06AEF0DF06EEFF8
:101AD2000DF0000E396E97EF0DF03750020F2F6E9A
:101AE2003850010B306E82EC09F0396E3750030F1B
:101AF2002F6ED8903830010B306E82EC09F0396EBF
:101B02003750040F2F6E3840E8423F0B010B306E06
:101B120082EC09F0396E3750050F2F6E3838E846DF
:101B22001F0B010B306E82EC09F0396E3950120036
:101B32003750D8B49FEF0DF0A1EF0DF0B1EF0DF0DB
:101B42003750D96EDA6ADF30E832E832070B386E86
:101B5200070E3864AFEF0DF0B1EF0DF0B5EF0DF0F9
:101B6200000E396EC6EF0DF037C02FF0F9EC08F019
:101B7200396E37C02FF03750D96EDA6A000EDFBEE9
:101B8200010E306E82EC09F0396E395012003A5073
:101B9200D8A4CEEF0DF0D0EF0DF0D4EF0DF0000E83
:101BA2003C6EF4EF0DF03AC02FF0000E306E82EC76
:101BB20009F03C6E3AC037F03B380F0B386E62ECDE
:101BC2000DF03C6E3AC037F05BEC0EF03C6E3AC062
:101BD20037F03BC038F062EC0DF03C6E3AC037F0A3
:101BE2005BEC0EF03C6E3C5012005A6E010E5B6EC6
:101BF2005950D8A4FFEF0DF001EF0EF005EF0EF0F3
:101C0200000E5B6E1AEF0EF059C02FF0000E316E0F
:101C1200000E306E000E336E040E326EC9EC0EF002
:101C220059C048F02D0E496E5AC04AF04B6A95ECE5
:101C32000EF05B50120045C047F028EF0EF044C092
:101C420039F0470E3A6E46C03BF019EC08F047C037
:101C5200F6FF100EF76EF86A0800F5500009D8A4D6
:101C620035EF0EF037EF0EF020EF0EF0000E456E5E
:101C7200000E446E1200C20EF66E1D0EF76E000EBE
:101C8200F86E00EE01F010EE2EF00900F5CFEEFF37
:101C9200E550E150FAE100EE80F0200EEE6AE8062F
:101CA200FDE100EE5DF0180EEE6AE806FDE10001CE
:101CB20053EF0CF03750D8A461EF0EF063EF0EF043
:101CC20067EF0EF0000E386E78EF0EF037282F6EA9
:101CD200010E306E82EC09F0030EE82EFED70000F2
:101CE20037282F6E000E306E82EC09F0386E3850B5
:101CF20012003750D8A480EF0EF082EF0EF084EF7E
:101D02000EF094EF0EF037282F6E010E306E82EC3B
:101D120009F0030EE82EFED7000037282F6E000EC2
:101D2200306E82EC09F012004A0E4C6E48C04DF043
:101D3200000E516E000E506E000E586E000E576E61
:101D42004D0E446E49C045F04C0E466E1CEC0EF032
:101D520048505024D96EDA6ADF6A120036BEB4EFF8
:101D62000EF0B6EF0EF0BCEF0EF035C035F036C017
:101D720036F0C8EF0EF035C037F036C038F0371EF7
:101D8200381E374A382A37C035F038C036F01200CC
:101D92002FC034F0D3EF0EF03450D96EDA6A30C06F
:101DA200DFFF342A3206D8A03306322806E1332870
:101DB200D8A4DEEF0EF0E0EF0EF0CDEF0EF0120041
:101DC200800F810F820F830F840F890F8A0F8B0F71
:101DD2008C0F8D0F920F930F940F950F960F323A2F
:101DE200030B131B232B333B020A121A222AFBEF8B
:101DF2000EF068066850800A7F0FD8B003EF0FF02C
:101E020005EF0FF0FAEF0EF01200290E3D6E7DEC99
:101E12000AF0756E1F0E3E6E0AEC0AF0756E120025
:101E2200F8EC0EF031C02FF032C030F01AEC0FF0A7
:101E320012001AEF0FF0120006EC0FF0120012005F
:020000040030CA
:0E000000FF02091EFF8181FF0FC00FE00F40BD
:00000001FF
